:020000040800F2
:10000000005000206D1D00086116000869160008E8
:10001000711600087916000881160008000000001B
:100020000000000000000000000000008916000829
:100030009516000800000000A1160008AD16000883
:10004000B51D0008B51D0008B51D0008B51D000848
:10005000B51D0008B51D0008B51D0008B51D000838
:10006000B51D0008B51D0008B51D0008B51D000828
:10007000B51D0008B51D0008B51D0008B51D000818
:10008000B9160008B51D0008B51D0008B51D00080B
:10009000CD160008B51D0008B51D0008B51D0008E7
:1000A000B51D0008E1160008B51D0008B51D0008C3
:1000B000B51D0008B51D0008B51D0008F51600089F
:1000C00009170008B51D0008B51D0008B51D00087A
:1000D000B51D0008B51D0008B51D0008B51D0008B8
:1000E000B51D0008B51D0008B51D00080000000082
:1000F0000000000000000000000000000000000000
:0C01000000000000000000005FF808F1A3
:10010C0010B5054C237833B9044B13B10448AFF345
:10011C0000800123237010BDD001002000000000DE
:10012C0004D9000808B5034B1BB103490348AFF3CE
:10013C00008008BD00000000D401002004D9000894
:10014C00034613F8012B002AFBD1181A013870470B
:10015C0080F0004002E000BF81F0004142001FBF70
:10016C005FEA410392EA030F7FEA226C7FEA236C79
:10017C006AD04FEA1262D2EB1363C1BFD21841406E
:10018C0048404140B8BF5B42192B88BF704710F004
:10019C00004F40F4000020F07F4018BF404211F0A7
:1001AC00004F41F4000121F07F4118BF494292EA0F
:1001BC00030F3FD0A2F1010241FA03FC10EB0C003B
:1001CC00C3F1200301FA03F100F0004302D54942C8
:1001DC0060EB4000B0F5000F13D3B0F1807F06D375
:1001EC0040084FEA310102F10102FE2A51D2B1F16D
:1001FC00004F40EBC25008BF20F0010040EA030062
:10020C007047490040EB0000013A28BFB0F5000FE1
:10021C00EDD2B0FA80FCACF1080CB2EB0C0200FA97
:10022C000CF0AABF00EBC25052421843BCBFD040E6
:10023C001843704792F0000F81F4000106BF80F460
:10024C0000000132013BB5E74FEA41037FEA226C23
:10025C0018BF7FEA236C21D092EA030F04D092F0EE
:10026C00000F08BF0846704790EA010F1CBF002022
:10027C00704712F07F4F04D1400028BF40F000407F
:10028C00704712F100723CBF00F50000704700F09F
:10029C00004343F0FE4040F4000070477FEA2262C6
:1002AC0016BF08467FEA23630146420206BF5FEA97
:1002BC00412390EA010F40F4800070474FF0000397
:1002CC0004E000BF10F0004348BF40425FEA000C5E
:1002DC0008BF704743F0964301464FF000001CE006
:1002EC0050EA010208BF70474FF000030AE000BF5C
:1002FC0050EA010208BF704711F0004302D540429A
:10030C0061EB41015FEA010C02BF8446014600200B
:10031C0043F0B64308BFA3F18053A3F50003BCFA26
:10032C008CF2083AA3EBC25310DB01FA02FC6344D3
:10033C0000FA02FCC2F12002BCF1004F20FA02F2DA
:10034C0043EB020008BF20F00100704702F12002CD
:10035C0001FA02FCC2F1200250EA4C0021FA02F22E
:10036C0043EB020008BF20EADC7070474FF0FF0C33
:10037C001CEAD0521EBF1CEAD15392EA0C0F93EA2E
:10038C000C0F6FD01A4480EA010C400218BF5FEAD0
:10039C0041211ED04FF0006343EA501043EA511143
:1003AC00A0FB01310CF00040B1F5000F3EBF49003D
:1003BC0041EAD3715B0040EA010062F17F02FD2A41
:1003CC001DD8B3F1004F40EBC25008BF20F0010024
:1003DC00704790F0000F0CF0004C08BF49024CEA3B
:1003EC00502040EA51207F3AC2BFD2F1FF0340EACD
:1003FC00C250704740F400004FF00003013A5DDC3E
:10040C0012F1190FDCBF00F000407047C2F100027E
:10041C00410021FA02F1C2F1200200FA02FC5FEA6B
:10042C00310040F1000053EA4C0308BF20EADC70B5
:10043C00704792F0000F00F0004C02BF400010F427
:10044C00000F013AF9D040EA0C0093F0000F01F0D4
:10045C00004C02BF490011F4000F013BF9D041EAF6
:10046C000C018FE70CEAD15392EA0C0F18BF93EAF8
:10047C000C0F0AD030F0004C18BF31F0004CD8D122
:10048C0080EA010000F00040704790F0000F17BFA9
:10049C0090F0004F084691F0000F91F0004F14D0EF
:1004AC0092EA0C0F01D142020FD193EA0C0F03D147
:1004BC004B0218BF084608D180EA010000F000404A
:1004CC0040F0FE4040F40000704740F0FE4040F425
:1004DC00400070474FF0FF0C1CEAD0521EBF1CEAC4
:1004EC00D15392EA0C0F93EA0C0F69D0A2EB0302E2
:1004FC0080EA010C49024FEA402037D04FF080537C
:10050C0043EA111143EA10130CF000408B4238BF40
:10051C005B0042F17D024FF4000C8B4224BF5B1A4E
:10052C0040EA0C00B3EB510F24BFA3EB510340EA9C
:10053C005C00B3EB910F24BFA3EB910340EA9C004A
:10054C00B3EBD10F24BFA3EBD10340EADC001B01BA
:10055C0018BF5FEA1C1CE0D1FD2A3FF650AF8B425E
:10056C0040EBC25008BF20F0010070470CF0004C6B
:10057C004CEA50207F32C2BFD2F1FF0340EAC25096
:10058C00704740F400004FF00003013A37E792F057
:10059C00000F00F0004C02BF400010F4000F013AB5
:1005AC00F9D040EA0C0093F0000F01F0004C02BFB0
:1005BC00490011F4000F013BF9D041EA0C0195E719
:1005CC000CEAD15392EA0C0F08D142027FF47DAFB2
:1005DC0093EA0C0F7FF470AF084676E793EA0C0FA2
:1005EC0004D14B023FF44CAF08466EE730F0004CA0
:1005FC0018BF31F0004CCAD130F000427FF45CAF30
:10060C0031F000437FF43CAF5FE700BF4FF0FF3C9D
:10061C0006E000BF4FF0010C02E000BF4FF0010CF0
:10062C004DF804CD4FEA40024FEA41037FEA226CB9
:10063C0018BF7FEA236C11D001B052EA530C18BFDB
:10064C0090EA010F58BFB2EB030088BFC81738BF40
:10065C006FEAE17018BF40F0010070477FEA226C2E
:10066C0002D15FEA402C05D17FEA236CE4D15FEA2A
:10067C00412CE1D05DF8040B704700BF844608465E
:10068C006146FFE70FB5FFF7C9FF002848BF10F11F
:10069C00000F0FBD4DF808EDFFF7F4FF0CBF012064
:1006AC0000205DF808FB00BF4DF808EDFFF7EAFFEE
:1006BC0034BF012000205DF808FB00BF4DF808EDA9
:1006CC00FFF7E0FF94BF012000205DF808FB00BF9E
:1006DC004DF808EDFFF7D2FF94BF012000205DF824
:1006EC0008FB00BF4DF808EDFFF7C8FF34BF012031
:1006FC0000205DF808FB00BF4FEA4002B2F1FE4F4C
:10070C000FD34FF09E03B3EB12620DD94FEA0023C7
:10071C0043F0004310F0004F23FA02F018BF4042A0
:10072C0070474FF00000704712F1610F01D1420287
:10073C0005D110F0004008BF6FF0004070474FF03B
:10074C000000704742000ED2B2F1FE4F0BD34FF0B7
:10075C009E03B3EB126209D44FEA002343F000432B
:10076C0023FA02F070474FF00000704712F1610F4E
:10077C0001D1420202D14FF0FF3070474FF0000020
:10078C00704700BF80B582B000AF0C4B5B690B4A61
:10079C0043F001035361094B5B6903F001037B6078
:1007AC007B6800220021102001F05DFC102001F07C
:1007BC0076FC00BF0837BD4680BD00BF001002406C
:1007CC0080B588B000AF07F1100300221A605A60A0
:1007DC009A60DA60454B9B69444A43F0100393617D
:1007EC00424B9B6903F01003FB60FB683F4B9B691A
:1007FC003E4A43F0200393613C4B9B6903F020037A
:10080C00BB60BB68394B9B69384A43F00803936162
:10081C00364B9B6903F008037B607B68334B9B6909
:10082C00324A43F004039361304B9B6903F0040399
:10083C003B603B6800224FF400512D4802F057F802
:10084C0000224FF484512B4802F051F800224FF44F
:10085C000041294802F04BF84FF400533B6101234F
:10086C007B610023BB610223FB6107F11003194676
:10087C001F4801F0A1FE4FF484533B6101237B61BF
:10088C000023BB610223FB6107F1100319461948D1
:10089C0001F092FE4FF400533B61184B7B61002337
:1008AC00BB6107F110031946124801F085FE4FF4A5
:1008BC0000433B6101237B610023BB610223FB618D
:1008CC0007F1100319460C4801F076FE40233B61FA
:1008DC0000237B610123BB6107F110031946054816
:1008EC0001F06AFE00BF2037BD4680BD00100240FB
:1008FC0000100140000C01400008014000003210C3
:10090C0080B500AF124B134A1A60114B124A5A6051
:10091C000F4B00229A600E4B0022DA600C4B4FF406
:10092C0080421A610A4B00225A61094B00229A61DB
:10093C00074B0022DA61064B00221A62044802F0CF
:10094C0007F80346002B01D000F0BAFA00BF80BDB7
:10095C00EC01002000540040A086010080B58AB054
:10096C0000AF786007F1140300221A605A609A6095
:10097C00DA607B681B68384A934268D1374B9B69B5
:10098C00364A43F008039361344B9B6903F0080328
:10099C003B613B694FF440737B611223BB610323C2
:1009AC003B6207F1140319462D4801F005FE2D4B4F
:1009BC005B687B627B6A43F0E0637B627B6A43F03B
:1009CC0002037B62274A7B6A5360244BDB69234A10
:1009DC0043F40013D361214BDB6903F40013FB6078
:1009EC00FB68214B214A1A601F4B10225A601E4B88
:1009FC0000229A601C4B8022DA601B4B00221A6189
:100A0C00194B00225A61184B00229A61164B002296
:100A1C00DA61154801F05EFB0346002B01D000F0B3
:100A2C004FFA7B68104A5A630F4A7B685362002264
:100A3C0000211F2001F017FB1F2001F030FB0022CA
:100A4C000021202001F00FFB202001F028FB00BF2B
:100A5C002837BD4680BD00BF005400400010024046
:100A6C00000C014000000140400200206C000240DC
:100A7C0080B582B000AF01F099F900F059F8FFF79A
:100A8C009FFEFFF77FFE00F07FFE01F0F3F80BF006
:100A9C00F1FDFFF735FF00F0C7FE00F01DFF1B4B0B
:100AAC009B691A4A43F001039361184B9B6903F04D
:100ABC0001033B603B68164B5B687B607B6823F0F3
:100ACC00E0637B607B6843F000737B60104A7B685B
:100ADC005360104806F0A8FD0F49104800F0F6F9D5
:100AEC000F4800F091FA00F045F90E4B1B78002BE3
:100AFC00FBD00D4B1B7819460C480BF07FFE0346C0
:100B0C00002BF2D1074B00221A70EEE700100240C6
:100B1C00000001404808002090080020D808002060
:100B2C00EC010020AD030020AC030020AC0200203F
:100B3C0080B594B000AF07F1280328220021184695
:100B4C000CF04AFA07F1140300221A605A609A60FA
:100B5C00DA601A613B1D00221A605A609A60DA60F2
:100B6C000123BB624FF48033FB6200233B63012300
:100B7C00BB6302237B644FF48033BB644FF4E013FC
:100B8C00FB6407F12803184606F038F80346002BDF
:100B9C0001D000F095F90F237B610223BB61002388
:100BAC00FB614FF480633B6200237B6207F114030B
:100BBC000221184606F0A4FA0346002B01D000F0DF
:100BCC007FF910237B6000233B613B1D184606F028
:100BDC0025FC0346002B01D000F072F900BF503702
:100BEC00BD4680BD80B500AF2C4B1B78032B45D880
:100BFC0001A252F823F000BF150C00082B0C0008C2
:100C0C00550C00086B0C00084021254801F058FEDB
:100C1C000346002B36D1214B01221A7032E04021C1
:100C2C001F4801F04DFE0346002B09D11B4B02223D
:100C3C001A701C4B1B780133DAB21A4B1A7024E071
:100C4C00164B00221A7020E04021154801F038FEA6
:100C5C000346002B18D0114B03221A7014E04021CC
:100C6C000F4801F02DFE0346002B03D00B4B002246
:100C7C001A700AE0094B02221A7006E0074B002298
:100C8C001A7002E000BF00E000BF064B1B78022B7D
:100C9C0002D1044B00221A7000BF80BD85020020D7
:100CAC00000C01408402002080B500AF104B1B7873
:100CBC000133DAB20E4B1A700D4B1B78082B14D97A
:100CCC000C4B1B681A460C490C480CF065F90B4888
:100CDC00FFF736FA03469AB24FF0FF33074908483C
:100CEC0007F0F4FB024B00221A7000BF80BD00BF5E
:100CFC00A8020020000000201CD900088802002057
:100D0C003409002080B582B000AF78607B681B6826
:100D1C000E4A934216D14FF400510D4801F0FFFDDD
:100D2C00FFF760FF0B4B1B78002B06D080210A4885
:100D3C0001F0F5FDFFF7B8FF04E000228021064822
:100D4C0001F0D5FD00BF0837BD4680BD002C014029
:100D5C000010014084020020000C014080B582B0DC
:100D6C0000AF7860786800F0B9F900BF0837BD466D
:100D7C0080BD000080B584B002AF00F025FF00F00C
:100D8C00D5F901232E4A00210A2000F0A1FA00F027
:100D9C008BF94FF47A7001F06BF800F037FF3C20C0
:100DAC0001F066F800F05CFF386000F0BFF9012339
:100DBC00234A00210A2000F08BFA012380220A2109
:100DCC00002000F0B9FB4FF000013868FFF78AFCF7
:100DDC000346002B26D001231A4A1E21002000F0C6
:100DEC0077FA0123009301233A681E21412000F079
:100DFC0009FB0123144A1E21692000F069FA3868A6
:100E0C00FFF7A0FC0346FB71FB79802B01D98023F3
:100E1C00FB71FA79012300930A233221002000F0A0
:100E2C00B2FB05E00123094A1E21002000F050FA14
:100E3C0000F03AF94FF4DC7001F01AF8ADE700BF9E
:100E4C0038D900084CD9000858D900085CD90008DA
:100E5C0080B485B000AF78603960164B55221A709B
:100E6C00144B53225A70134B42229A70114B20226E
:100E7C00DA700023FB600AE07A68FB681A44FB68AE
:100E8C00043311780B4AD154FB680133FB60FA68C8
:100E9C003B689A42F0D33B68DBB20433DAB2064BC0
:100EAC001A70064B01221A7000BF1437BD4680BC65
:100EBC00704700BFAC020020AC030020AD03002043
:100ECC0080B400AF72B600BF00BFFDE780B582B042
:100EDC0000AF78603960234A7B681360224A3B6814
:100EEC001360204B1B681B6800225A631D4B1B6848
:100EFC001B6800229A631C4B1B681B6800229A63B8
:100F0C0000224FF40041194801F0F1FC154B1B680D
:100F1C000021184606F02AFC124B1B6804211846C7
:100F2C0006F024FC104B1B680421184606F01EFC2E
:100F3C000C4B1B681B6800225A630A4B1B681B680E
:100F4C0000229A63084B1B681B6800229A63084BAB
:100F5C0000221A80064B00225A8000BF0837BD467B
:100F6C0080BD00BFB0030020B40300200008014086
:100F7C00B803002080B586B004AF0346FB71084B64
:100F8C0018680A23029301230193FB1D009301238C
:100F9C000022782101F034FE00BF0837BD4680BD29
:100FAC00BC03002080B584B002AF0346FB71FB7913
:100FBC00503BDBB21846FFF7DDFF0020FFF7DAFFEE
:100FCC001020FFF7D7FFFB79DB010C4A13440C4AC6
:100FDC001046194680231A460CF032F8094B186853
:100FEC0080230193064B009301234022782101F0CA
:100FFC0001FF00BF0837BD4680BD00BFC003002005
:10100C00C4070020BC03002080B588B004AF786012
:10101C00214A7B681360642000F02AFF0023FB73D5
:10102C0008E0FB7B1D4AD35C1846FFF7A3FFFB7B54
:10103C000133FB73FB7B172BF3D900F077F80023FC
:10104C00BB731EE0BB7B503BDBB21846FFF792FF35
:10105C000020FFF78FFF1020FFF78CFF0E4B186856
:10106C00BB7BDB010E4A1344642202928022019264
:10107C00009301234022782101F0C2FDBB7B013398
:10108C00BB73BB7B072BDDD9064B00221A700023E8
:10109C0018461037BD4680BDBC0300208CDB000811
:1010AC00C0030020C007002080B500AF094B1B789F
:1010BC00012B02D14FF0FF3309E0064B01221A70CD
:1010CC00054B00221A700020FFF76CFF0023184616
:1010DC0080BD00BFC0070020C107002080B582B0D2
:1010EC0000AF78600E4B1B687A689A4213D10D4B97
:1010FC001B780133DAB20B4B1A700A4B1B78072B97
:10110C0005D8084B1B781846FFF74CFF04E0064B3C
:10111C0000221A7000E000BF0837BD4680BD00BF3A
:10112C00BC030020C1070020C007002080B500AF21
:10113C004FF48062002102480BF04EFF00BF80BDCF
:10114C00C003002080B485B000AF0346FB710B4692
:10115C00BB7113467B7197F90730002B34DBBB79DD
:10116C003F2B31D8BB79DB08DBB2DB019AB2FB79C0
:10117C009BB21344FB817B79002B11D0FB89154A60
:10118C00D35C5AB2BB7903F00703012101FA03F3D4
:10119C005BB213435AB2FB89D1B20E4AD15414E05C
:1011AC00FB890C4AD35C5AB2BB7903F007030121CB
:1011BC0001FA03F35BB2DB435BB213405AB2FB8917
:1011CC00D1B2044AD15400E000BF1437BD4680BCF4
:1011DC00704700BFC003002090B585B000AF044637
:1011EC00084611461A462346FB710346BB710B4653
:1011FC007B7113463B717B791F2B02D97B797E2B3C
:10120C0001D93F237B717B79203B3B730023FB731C
:10121C003BE03A7BF97B2D4813469B001344034477
:10122C000B441B78FB720023BB7328E0FA7ABB7B60
:10123C0042FA03F303F00103002B0CD0FA79FB7B89
:10124C001344D8B2BA79BB7B1344DBB23A79194652
:10125C00FFF778FF10E0FA79FB7B1344D8B2BA7928
:10126C00BB7B1344D9B23B79002B0CBF0123002369
:10127C00DBB21A46FFF766FFBB7B0133BB73BB7B4C
:10128C00072BD3D9FB7B0133FB73FB7B042BC0D91E
:10129C0000237B7312E0FB790533D8B2BA797B7BE0
:1012AC001344D9B23B79002B0CBF01230023DBB2D2
:1012BC001A46FFF747FF7B7B01337B737B7B072B46
:1012CC00E9D900BF00BF1437BD4690BDB0D90008A6
:1012DC0080B582B000AF3A601A460346FB710B46EC
:1012EC00BB7113467B710FE0FB797A2B11D83B68ED
:1012FC001A787B79B979F879FFF76EFFFB790633A9
:10130C00FB713B6801333B603B681B78002BEBD1D6
:10131C0000E000BF00BF0837BD4680BD80B58CB073
:10132C0000AF3A601A460346FB710B46BB7113467D
:10133C007B710023FB623B68002B0ADAFB6A5A1CA8
:10134C00FA6230333B442D2203F8182C3B685B4285
:10135C003B600023BB623B68002B26D1BB6A5A1C46
:10136C00BA6230333B44302203F8242C20E03A6834
:10137C00234B83FB02139910D317C91A0B469B00FE
:10138C000B445B00D11ACAB2BB6A591CB962303229
:10139C00D2B230333B4403F8242C3B68184A82FB0E
:1013AC0003129210DB17D31A3B603B68002BDEDC78
:1013BC00BB6A013B7B620EE0FB6A5A1CFA6207F1C6
:1013CC000C017A6A0A44127830333B4403F8182C27
:1013DC007B6A013B7B627B6A002BEDDA07F118021A
:1013EC00FB6A134400221A707B7907F11802B97951
:1013FC00F879FFF76DFF00BF3037BD4680BD00BFE9
:10140C006766666680B588B000AF3A601A460346D8
:10141C00FB710B46BB7113467B714FF000013868B2
:10142C00FFF742F90346002B0DD097F82830B97915
:10143C00F8792D22FFF7D0FEFB790633FB713B6860
:10144C0083F000433B603868FFF756F90346FB60B6
:10145C0097F82830B979F879FA68FFF75FFFFB68DD
:10146C00FB61FB68002B0CBF01230023DBB2FB7676
:10147C000AE0FB7E0133FB76FB692D4A82FB0312EB
:10148C009210DB17D31AFB61FB69002BF1DCFB7E9E
:10149C001A46520013445B00DAB2FB791344FB7119
:1014AC007B79002B3FD097F82830B979F8792E2228
:1014BC00FFF792FEFB790633FB71F868FEF702FF2B
:1014CC00034619463868FEF747FE03467B61002346
:1014DC00FB7424E017497869FEF748FF03467B61EB
:1014EC007869FFF72FF90346FB72FB7A3033DAB2D7
:1014FC0097F82830B979F879FFF76EFEFB79063347
:10150C00FB71FB7A1846FEF7DDFE03461946786937
:10151C00FEF722FE03467B61FB7C0133FB74FA7CF5
:10152C007B799A42D6D300BF2037BD4680BD00BF21
:10153C00676666660000204190B585B000AF044632
:10154C00084611461A462346FB710346BB710B46EF
:10155C007B7113463B710023FB730BE0FA79FB7B29
:10156C001344DBB23A79B9791846FFF7EBFDFB7BF4
:10157C000133FB73FA7B7B799A42EFD300BF00BF38
:10158C001437BD4690BD90B585B000AF04460846F3
:10159C0011461A462346FB710346BB710B467B7101
:1015AC0013463B710023FB7319E00023BB730FE060
:1015BC00FA79BB7B1344D8B2BA79FB7B1344DBB208
:1015CC0097F820201946FFF7BDFDBB7B0133BB7399
:1015DC00BA7B7B799A42EBD3FB7B0133FB73FA7BAF
:1015EC003B799A42E1D300BF00BF1437BD4690BD92
:1015FC0080B485B000AF154B9B69144A43F00103CE
:10160C009361124B9B6903F00103BB60BB680F4BEA
:10161C00DB690E4A43F08053D3610C4BDB6903F05A
:10162C0080537B607B680A4B5B68FB60FB6823F034
:10163C00E063FB60FB6843F08063FB60044AFB687B
:10164C00536000BF1437BD4680BC70470010024089
:10165C000000014080B400AF00BFFDE780B400AFD4
:10166C0000BFFDE780B400AF00BFFDE780B400AF62
:10167C0000BFFDE780B400AF00BFFDE780B400AF52
:10168C0000BFBD4680BC704780B400AF00BFBD46F4
:10169C0080BC704780B400AF00BFBD4680BC7047B3
:1016AC0080B500AF00F0C8FB00BF80BD80B500AFB7
:1016BC00024800F041FE00BF80BD00BF4002002088
:1016CC0080B500AF024803F055FE00BF80BD00BFDF
:1016DC004816002080B500AF024806F0E9F800BFBC
:1016EC0080BD00BF4808002080B500AF024801F063
:1016FC00D7FC00BF80BD00BFEC01002080B500AF5F
:10170C00024801F020FE00BF80BD00BFEC010020AC
:10171C0080B586B000AF7860144A154BD31A7B6144
:10172C007B693B61134B1B68002B02D1114B124A96
:10173C001A60104B1A687B6813443A699A4207D2B4
:10174C000BF052FC03460C221A604FF0FF3309E0F9
:10175C00084B1B68FB60074B1A687B681344054AEF
:10176C001360FB6818461837BD4680BD005000203A
:10177C000004000044080020881C002080B400AF46
:10178C0000BFBD4680BC704780B586B000AF07F186
:10179C00080300221A605A609A60DA603B46002205
:1017AC001A605A601E4B1F4A1A601D4B77225A60F2
:1017BC001B4B00229A601A4B4EF65F22DA60184BD4
:1017CC0000221A61164B00225A61154B00229A61B5
:1017DC00134805F0D9FE0346002B01D0FFF770FB30
:1017EC004FF48053BB6007F1080319460C4806F010
:1017FC0011FA0346002B01D0FFF762FB00233B607C
:10180C0000237B603B461946054806F09FFD0346C6
:10181C00002B01D0FFF754FB00BF1837BD4680BD2D
:10182C0048080020002C014080B58AB000AF07F1B9
:10183C00200300221A605A603B1D00221A605A6075
:10184C009A60DA601A615A619A61224B4FF08042B9
:10185C001A60204B47225A601E4B00229A601D4B87
:10186C0042F20F72DA601B4B00221A61194B0022F4
:10187C009A61184805F02AFF0346002B01D0FFF7A8
:10188C001FFB00233B6200237B6207F120031946F8
:10189C00104806F05BFD0346002B01D0FFF710FB50
:1018AC0060237B600023BB600023FB6000237B6113
:1018BC003B1D04221946074806F0EAF80346002BA4
:1018CC0001D0FFF7FDFA034800F0C0F800BF28373D
:1018DC00BD4680BD9008002080B58AB000AF07F1EE
:1018EC00200300221A605A603B1D00221A605A60C5
:1018FC009A60DA601A615A619A61274B274A1A601A
:10190C00254B47225A60244B00229A60224B42F20C
:10191C000F72DA60204B00221A611F4B00229A6171
:10192C001D4805F0D3FE0346002B01D0FFF7C8FA83
:10193C0000233B6200237B6207F120031946164803
:10194C0006F004FD0346002B01D0FFF7B9FA602323
:10195C007B600023BB600023FB6000237B613B1D8D
:10196C00002219460C4806F093F80346002B01D0D0
:10197C00FFF7A6FA3B1D04221946074806F088F823
:10198C000346002B01D0FFF79BFA034800F05EF8EA
:10199C0000BF2837BD4680BDD80800200004004099
:1019AC0080B584B000AF78607B681B680D4A9342A9
:1019BC0013D10D4B9B690C4A43F4006393610A4BA2
:1019CC009B6903F40063FB60FB6800220021192073
:1019DC0000F049FB192000F062FB00BF1037BD4638
:1019EC0080BD00BF002C01400010024080B485B0C7
:1019FC0000AF78607B681B68B3F1804F0CD1114B42
:101A0C00DB69104A43F00103D3610E4BDB6903F031
:101A1C000103FB60FB6810E07B681B680A4A934279
:101A2C000BD1084BDB69074A43F00203D361054B2A
:101A3C00DB6903F00203BB60BB6800BF1437BD4613
:101A4C0080BC7047001002400004004080B58AB092
:101A5C0000AF786007F1100300221A605A609A6098
:101A6C00DA607B681B68B3F1804F2AD12E4B9B69DF
:101A7C002D4A43F0080393612B4B9B6903F0080339
:101A8C00FB60FB6808233B6102237B610223FB6143
:101A9C0007F110031946254800F08EFD244B5B68B6
:101AAC003B623B6A23F440733B623B6A43F0E06366
:101ABC003B623B6A43F480733B621D4A3B6A536052
:101ACC002EE07B681B681B4A934229D1164B9B69FD
:101ADC00154A43F008039361134B9B6903F0080309
:101AEC00BB60BB6830233B6102237B610223FB613B
:101AFC0007F1100319460D4800F05EFD0C4B5B68B6
:101B0C007B627B6A23F440637B627B6A43F0E06315
:101B1C007B627B6A43F400637B62054A7B6A536099
:101B2C0000BF2837BD4680BD00100240000C0140AC
:101B3C00000001400004004080B400AF094BDB689A
:101B4C00084A43F08073D360074B00225A60064B5F
:101B5C001B68054A43F00103136000BFBD4680BCFF
:101B6C00704700BFF0ED00E0001000E080B400AF63
:101B7C00024B5B681846BD4680BC7047001000E005
:101B8C0080B584B000AF7860FFF7F0FFF8600C4BC5
:101B9C001B680C4AA2FB03239A0C7B6802FB03F321
:101BAC00BB6000BFFFF7E2FF0246FB68D31ABA68BE
:101BBC009A42F7D800BF00BF1037BD4680BD00BFAA
:101BCC000400002083DE1B4380B500AFFFF7B4FF99
:101BDC000B4B00221A700A4B0A4A5A60084B00221F
:101BEC009A60074B0022DA60054B00221A7400221F
:101BFC004FF48051044800F07AFE00BF80BD00BF56
:101C0C0020090020000080BF000C014080B500AF0F
:101C1C00114B1B78002B07D00F4B1B78032B03D0D9
:101C2C000D4B1B78042B15D10B4B01221A700A4B50
:101C3C0000221A7401224FF48051084800F057FE1C
:101C4C000A20FFF79DFF00224FF48051034800F05B
:101C5C004EFE00E000BF80BD20090020000C0140BA
:101C6C0080B400AF024B5B681846BD4680BC704721
:101C7C002009002080B500AF114B124A1A60104B9E
:101C8C004FF4E1325A600E4B00229A600C4B00224A
:101C9C00DA600B4B00221A61094B0C225A61084B7B
:101CAC0000229A61064B0022DA61054806F0BEFB61
:101CBC000346002B01D0FFF703F900BF80BD00BF26
:101CCC00340900200038014080B588B000AF78603E
:101CDC0007F1100300221A605A609A60DA607B6880
:101CEC001B681C4A934231D11B4B9B691A4A43F423
:101CFC0080439361184B9B6903F48043FB60FB6842
:101D0C00154B9B69144A43F004039361124B9B6976
:101D1C0003F00403BB60BB684FF400733B61022308
:101D2C007B610323FB6107F1100319460B4800F09C
:101D3C0043FC4FF480633B6100237B610023BB6158
:101D4C0007F110031946054800F036FC00BF203798
:101D5C00BD4680BD00380140001002400008014023
:101D6C00FFF70CFD0B480C490C4A002302E0D45839
:101D7C00C4500433C4188C42F9D3094A094C0023CB
:101D8C0001E013600432A242FBD30BF033F9FEF7EF
:101D9C006FFE704700000020D001002014DC00080A
:101DAC00D0010020881C0020FEE7000080B500AFA9
:101DBC00084B1B68074A43F010031360032000F024
:101DCC0047F90F2000F008F8FFF712FC0023184623
:101DDC0080BD00BF0020024080B582B000AF7860AB
:101DEC00124B1A68124B1B7819464FF47A73B3FBDB
:101DFC00F1F3B2FBF3F3184600F05FF90346002B46
:101E0C0001D001230EE07B680F2B0AD800227968E1
:101E1C004FF0FF3000F027F9064A7B68136000236F
:101E2C0000E0012318460837BD4680BD04000020A1
:101E3C000C0000200800002080B400AF054B1B787C
:101E4C001A46054B1B681344034A136000BFBD467A
:101E5C0080BC70470C0000207C09002080B400AFCF
:101E6C00024B1B681846BD4680BC70477C0900209D
:101E7C0080B584B000AF7860FFF7F0FFB8607B6886
:101E8C00FB60FB68B3F1FF3F05D00A4B1B781A4689
:101E9C00FB681344FB6000BFFFF7E0FF0246BB6822
:101EAC00D31AFA689A42F7D800BF00BF1037BD4664
:101EBC0080BD00BF0C00002080B485B000AF7860FE
:101ECC007B6803F00703FB600C4BDB68BB60BA68F4
:101EDC004FF6FF031340BB60FB681A02BB68134349
:101EEC0043F0BF6343F40033BB60044ABB68D36068
:101EFC0000BF1437BD4680BC704700BF00ED00E04A
:101F0C0080B400AF044BDB681B0A03F007031846D0
:101F1C00BD4680BC704700BF00ED00E080B483B0CC
:101F2C0000AF0346FB7197F90730002B0BDBFB79F5
:101F3C0003F01F02064997F907305B09012000FAEC
:101F4C0002F241F8232000BF0C37BD4680BC70471D
:101F5C0000E100E080B483B000AF03463960FB7150
:101F6C0097F90730002B0ADB3B68DAB20C4997F97A
:101F7C0007301201D2B20B4483F800230AE03B680D
:101F8C00DAB20849FB7903F00F03043B1201D2B219
:101F9C000B441A7600BF0C37BD4680BC704700BF9F
:101FAC0000E100E000ED00E080B489B000AFF86023
:101FBC00B9607A60FB6803F00703FB61FB69C3F14E
:101FCC000703042B28BF0423BB61FB690433062BD6
:101FDC0002D9FB69033B00E000237B614FF0FF3229
:101FEC00BB6902FA03F3DA43BB681A407B699A4077
:101FFC004FF0FF317B6901FA03F3D9437B680B4047
:10200C00134318462437BD4680BC704780B582B058
:10201C0000AF78607B68013BB3F1807F01D3012373
:10202C000FE00A4A7B68013B53600F214FF0FF30F1
:10203C00FFF790FF054B00229A60044B07221A60B1
:10204C00002318460837BD4680BD00BF10E000E0F5
:10205C0080B582B000AF78607868FFF72DFF00BFC5
:10206C000837BD4680BD80B586B000AF0346B96069
:10207C007A60FB7300237B61FFF742FF78617A681B
:10208C00B9687869FFF790FF024697F90F3011464F
:10209C001846FFF75FFF00BF1837BD4680BD80B5FF
:1020AC0082B000AF0346FB7197F907301846FFF773
:1020BC0035FF00BF0837BD4680BD80B582B000AF8C
:1020CC0078607868FFF7A2FF034618460837BD46CC
:1020DC0080BD000080B485B000AF78600023FB6049
:1020EC007B68002B01D1012343E07B681B681A46F7
:1020FC00224B1344224AA2FB03231B099A007B6840
:10210C001A647B681F4ADA637B68022283F82120F9
:10211C007B681B681B68FB60FB6823F47F5323F010
:10212C003003FB607B685A687B689B681A437B684A
:10213C00DB681A437B681B691A437B685B691A432B
:10214C007B689B691A437B68DB691343FA6813430A
:10215C00FB607B681B68FA681A607B6800229A63D4
:10216C007B68012283F821207B68002283F82020E1
:10217C00002318461437BD4680BC7047F8FFFDBFDE
:10218C00CDCCCCCC0000024080B586B000AFF8605E
:10219C00B9607A603B600023FB75FB6893F82030D4
:1021AC00012B01D102234BE0FB68012283F8202094
:1021BC00FB6893F82130DBB2012B3AD1FB68022289
:1021CC0083F82120FB6800229A63FB681B681A685D
:1021DC00FB681B6822F001021A603B687A68B968D8
:1021EC00F86800F0BCF9FB68DB6A002B08D0FB68D0
:1021FC001B681A68FB681B6842F00E021A600FE03D
:10220C00FB681B681A68FB681B6822F004021A60E2
:10221C00FB681B681A68FB681B6842F00A021A60AC
:10222C00FB681B681A68FB681B6842F001021A60A5
:10223C0005E0FB68002283F820200223FB75FB7D60
:10224C0018461837BD4680BD80B584B000AF7860A5
:10225C000023FB737B6893F82130DBB2022B05D093
:10226C007B6804229A630123FB7351E07B681B6833
:10227C001A687B681B6822F00E021A607B681B6868
:10228C001A687B681B6822F001021A607B681B6865
:10229C00224A934229D07B681B68214A934222D060
:1022AC007B681B681F4A93421AD07B681B681E4AC6
:1022BC00934212D07B681B681C4A93420AD07B68FD
:1022CC001B681B4A934202D14FF480130EE04FF06F
:1022DC0080730BE04FF4803308E04FF4805305E03B
:1022EC004FF4807302E0102300E00123114A536085
:1022FC007B68012283F821207B68002283F8202050
:10230C007B685B6B002B03D07B685B6B78689847B2
:10231C00FB7B18461037BD4680BD00BF080002404D
:10232C001C000240300002404400024058000240B1
:10233C006C0002400000024080B584B000AF7860B1
:10234C007B68DB6B1B68FB607B681B681B68BB6076
:10235C007B681B6C04229A40FB681340002B4FD007
:10236C00BB6803F00403002B4AD07B681B681B6816
:10237C0003F02003002B07D17B681B681A687B686D
:10238C001B6822F004021A607B681B68664A934241
:10239C0029D07B681B68654A934222D07B681B68F6
:1023AC00634A93421AD07B681B68624A934212D0EC
:1023BC007B681B68604A93420AD07B681B685F4A43
:1023CC00934202D14FF480030EE04FF080630BE098
:1023DC004FF4802308E04FF4804305E04FF4806312
:1023EC0002E0402300E00423554A53607B68DB6A1B
:1023FC00002B00F094807B68DB6A786898478EE04D
:10240C007B681B6C02229A40FB681340002B56D051
:10241C00BB6803F00203002B51D07B681B681B6860
:10242C0003F02003002B0BD17B681B681A687B68B8
:10243C001B6822F00A021A607B68012283F82120B3
:10244C007B681B68384A934229D07B681B68374AE3
:10245C00934222D07B681B68354A93421AD07B6822
:10246C001B68344A934212D07B681B68324A9342F1
:10247C000AD07B681B68314A934202D14FF4001397
:10248C000EE04FF000730BE04FF4003308E04FF414
:10249C00005305E04FF4007302E0202300E0022318
:1024AC00274A53607B68002283F820207B689B6A54
:1024BC00002B34D07B689B6A786898472FE07B6848
:1024CC001B6C08229A40FB681340002B28D0BB6879
:1024DC0003F00803002B23D07B681B681A687B6809
:1024EC001B6822F00E021A607B681A6C7B68DB6B2F
:1024FC00012101FA02F25A607B6801229A637B681F
:10250C00012283F821207B68002283F820207B683D
:10251C001B6B002B04D07B681B6B7868984700BF43
:10252C0000BF1037BD4680BD080002401C000240B1
:10253C003000024044000240580002406C0002404F
:10254C000000024080B483B000AF78607B6893F8E1
:10255C002130DBB218460C37BD4680BC704780B4C6
:10256C0085B000AFF860B9607A603B60FB681A6CAC
:10257C00FB68DB6B012101FA02F25A60FB681B68F5
:10258C003A685A60FB685B68102B08D1FB681B68C3
:10259C007A689A60FB681B68BA68DA6007E0FB68C7
:1025AC001B68BA689A60FB681B687A68DA6000BFBF
:1025BC001437BD4680BC704780B48BB000AF7860D8
:1025CC00396000237B6200233B6269E101227B6A54
:1025DC0002FA03F3FB613B681B68FA691340BB61A9
:1025EC00BA69FB699A4240F058813B685B689A4A29
:1025FC0093425ED0984A934275D8984A934258D0E9
:10260C00964A93426FD8964A934252D0944A934238
:10261C0069D8944A93424CD0924A934263D8924AD6
:10262C00934246D0904A93425DD8122B2AD8122B53
:10263C0059D801A252F823F0BF26000899260008A9
:10264C00AB260008ED260008F3260008F326000848
:10265C00F3260008F3260008F3260008F3260008EA
:10266C00F3260008F3260008F3260008F3260008DA
:10267C00F3260008F3260008F3260008A12600081C
:10268C00B5260008794A934213D02CE03B68DB68EE
:10269C003B6229E03B68DB6804333B6224E03B6827
:1026AC00DB6808333B621FE03B68DB680C333B6242
:1026BC001AE03B689B68002B02D104233B6213E0B9
:1026CC003B689B68012B05D108233B627B68FA6948
:1026DC001A6109E008233B627B68FA695A6103E0DE
:1026EC0000233B6200E000BFBB69FF2B01D87B6875
:1026FC0001E07B6804337B61BB69FF2B02D87B6AEA
:10270C009B0002E07B6A083B9B003B617B691A687B
:10271C000F213B6901FA03F3DB431A40396A3B6929
:10272C0001FA03F31A437B691A603B685B6803F098
:10273C008053002B00F0B1804D4B9B694C4A43F009
:10274C00010393614A4B9B6903F00103BB60BB68B7
:10275C00484A7B6A9B08023352F82330FB607B6A41
:10276C0003F003039B000F2202FA03F3DB43FA6826
:10277C001340FB607B68404A934213D07B683F4A0E
:10278C0093420DD07B683E4A934207D07B683D4A0A
:10279C00934201D1032306E0042304E0022302E068
:1027AC00012300E000237A6A02F0030292009340B6
:1027BC00FA681343FB602F497B6A9B080233FA6863
:1027CC0041F823203B685B6803F48013002B06D090
:1027DC002D4B9A682C49BB6913438B6006E02A4B3E
:1027EC009A68BB69DB43284913408B603B685B6884
:1027FC0003F40013002B06D0234BDA682249BB6983
:10280C001343CB6006E0204BDA68BB69DB431E49FF
:10281C001340CB603B685B6803F40033002B06D09D
:10282C00194B5A681849BB6913434B6006E0164BA9
:10283C005A68BB69DB43144913404B603B685B68C7
:10284C0003F48033002B21D00F4B1A680E49BB695F
:10285C0013430B6021E000BF000032100000311068
:10286C0000002210000021100000121000001110B6
:10287C00001002400000014000080140000C014023
:10288C000010014000140140000401400B4B1A6879
:10289C00BB69DB43094913400B607B6A01337B62E4
:1028AC003B681A687B6A22FA03F3002B7FF48EAE26
:1028BC0000BF00BF2C37BD4680BC704700040140F0
:1028CC0080B485B000AF78600B467B807B689A68DB
:1028DC007B881340002B02D00123FB7301E0002303
:1028EC00FB73FB7B18461437BD4680BC704780B425
:1028FC0083B000AF78600B467B8013467B707B788F
:10290C00002B03D07A887B681A6103E07B881A0459
:10291C007B681A6100BF0C37BD4680BC704780B421
:10292C0085B000AF78600B467B807B68DB68FB6012
:10293C007A88FB6813401A04FB68D9437B880B40E8
:10294C001A437B681A6100BF1437BD4680BC7047C0
:10295C0080B584B000AF78607B68002B01D1012377
:10296C002BE17B6893F83D30DBB2002B06D17B6802
:10297C00002283F83C207868FDF7F0FF7B68242266
:10298C0083F83D207B681B681A687B681B6822F003
:10299C0001021A607B681B681A687B681B6842F42A
:1029AC0000421A607B681B681A687B681B6822F4FB
:1029BC0000421A6004F0ECFCF8607B685B68814AAA
:1029CC00934207D8FB68804A934294BF01230023AB
:1029DC00DBB206E0FB687D4A934294BF01230023DF
:1029EC00DBB2002B01D00123E7E0FB68784AA2FBA5
:1029FC0003239B0CBB607B681B685B6823F03F0167
:102A0C007B681B68BA680A435A607B681B681B6A40
:102A1C0023F03F017B685B686A4A934202D8BB682B
:102A2C00013309E0BB684FF4967202FB03F3694A69
:102A3C00A2FB03239B0901337A6812680B431362D0
:102A4C007B681B68DB6923F44F4222F0FF027B6832
:102A5C005B685C498B4219D8FB68591E7B685B68C4
:102A6C005B00B1FBF3F3591C40F6FC730B40002BDD
:102A7C000AD0FB68591E7B685B685B00B1FBF3F303
:102A8C000133C3F30B0351E004234FE07B689B68D5
:102A9C00002B11D1FB68581E7B6859680B465B00F4
:102AAC000B44B0FBF3F30133C3F30B03002B0CBF4C
:102ABC0001230023DBB212E0FB68581E7B685968C7
:102ACC000B469B000B4499000B44B0FBF3F3013312
:102ADC00C3F30B03002B0CBF01230023DBB2002B31
:102AEC0001D0012322E07B689B68002B0ED1FB6890
:102AFC00581E7B6859680B465B000B44B0FBF3F324
:102B0C000133C3F30B0343F400430FE0FB68581E7F
:102B1C007B6859680B469B000B4499000B44B0FB37
:102B2C00F3F30133C3F30B0343F4404379680968AF
:102B3C001343CB617B681B681B6823F0C0017B6867
:102B4C00DA697B681B6A1A437B681B680A431A6044
:102B5C007B681B689B6823F4034323F0FF037A68AC
:102B6C0011697A68D26811437A6812680B439360D2
:102B7C007B681B68DB6823F0FF017B685A697B6804
:102B8C009B691A437B681B680A43DA607B681B6885
:102B9C001A687B681B6842F001021A607B6800228D
:102BAC001A647B68202283F83D207B6800221A631C
:102BBC007B68002283F83E20002318461037BD4660
:102BCC0080BD00BFA08601007F841E00FF083D0071
:102BDC0083DE1B43D34D621080B483B000AF7860AA
:102BEC007B681B685B6903F08003802B03D17B68D7
:102BFC001B6800221A6100BF0C37BD4680BC7047B1
:102C0C0080B588B002AFF860084611461A460346F4
:102C1C007B810B463B811346FB80FFF71FF97861E4
:102C2C00FB6893F83D30DBB2202B40F0D9807B69F8
:102C3C000093192301226D49F86802F05BF80346F2
:102C4C00002B01D00223CCE0FB6893F83C30012B25
:102C5C0001D10223C5E0FB68012283F83C20FB680C
:102C6C001B681B6803F00103012B07D0FB681B6872
:102C7C001A68FB681B6842F001021A60FB681B684B
:102C8C001A68FB681B6822F400621A60FB68212238
:102C9C0083F83D20FB68402283F83E20FB6800222D
:102CAC001A64FB683A6A5A62FB68BA8C5A85FB68EC
:102CBC005B8D9AB2FB681A85FB684D4ADA62F8881C
:102CCC003A8979897B690193BB6A00930346F8685A
:102CDC0001F0BCFD0346002B52D0012381E07A6940
:102CEC00B96AF86802F020F90346002B0DD0FB6896
:102CFC001B6C042B07D1FB681B681A68FB681B68EC
:102D0C0042F400721A6001236BE0FB685B6A1A786C
:102D1C00FB681B681A61FB685B6A5A1CFB685A6289
:102D2C00FB681B8D013B9AB2FB681A85FB685B8DB7
:102D3C009BB2013B9AB2FB685A85FB681B685B69C6
:102D4C0003F00403042B1BD1FB681B8D002B17D045
:102D5C00FB685B6A1A78FB681B681A61FB685B6A24
:102D6C005A1CFB685A62FB681B8D013B9AB2FB68CC
:102D7C001A85FB685B8D9BB2013B9AB2FB685A8546
:102D8C00FB681B8D002BAAD17A69B96AF86802F02E
:102D9C0013F90346002B0DD0FB681B6C042B07D1D9
:102DAC00FB681B681A68FB681B6842F400721A60A7
:102DBC00012316E0FB681B681A68FB681B6842F469
:102DCC0000721A60FB68202283F83D20FB68002209
:102DDC0083F83E20FB68002283F83C20002300E0AF
:102DEC00022318461837BD4680BD00BF02001000F4
:102DFC000000FFFF80B58AB002AFF86008461146AC
:102E0C001A4603467B810B463B811346FB8000230D
:102E1C007B61FFF723F8F861FB6893F83D30DBB278
:102E2C00202B40F02E81994B1B68DB08984AA2FBA3
:102E3C0003231A0A13469B0013449A0013447B6124
:102E4C007B69013B7B617B69002B12D1FB68002203
:102E5C001A63FB68202283F83D20FB68002283F86C
:102E6C003E20FB681B6C43F02002FB681A640223B3
:102E7C0008E1FB681B689B6903F00203022BDFD09F
:102E8C00FB6893F83C30012B01D10223FAE0FB687C
:102E9C00012283F83C20FB681B681B6803F00103CC
:102EAC00012B07D0FB681B681A68FB681B6842F093
:102EBC0001021A60FB681B681A68FB681B6822F425
:102ECC0000621A60FB68212283F83D20FB684022D7
:102EDC0083F83E20FB6800221A64FB68BA6A5A62C7
:102EEC00FB68BA8D5A85FB685B8D9AB2FB681A85B4
:102EFC00FB68684ADA627A89FB685A643A89FB682B
:102F0C009A64FA88FB68DA64FB6800221A65FB682D
:102F1C001B8D002B00F0A180FB685B6B002B22D07B
:102F2C00FB685B6B5C4A9A62FB685B6B5B4A1A637F
:102F3C00FB685B6B0022DA62FB685B6B00225A63F6
:102F4C00FB68586BFB685B6A1946FB681B6810339F
:102F5C001A46FB681B8DFFF717F90346FB76FB7EC1
:102F6C00002B66D113E0FB68202283F83D20FB6820
:102F7C00002283F83E20FB681B6C43F08002FB6848
:102F8C001A64FB68002283F83C2001237AE0F8885D
:102F9C003A897989FB690193232300930346F868E6
:102FAC0001F054FC0346002B22D0FB685B6B1846E7
:102FBC00FFF74AF90346FB76FB685B6B00229A62CB
:102FCC00FB681B681A68FB681B6822F480621A6035
:102FDC00FB6800221A85FB6800225A85FB681B6877
:102FEC001A68FB681B6822F001021A60012349E091
:102FFC0000233B61FB681B685B693B61FB681B68DA
:10300C009B693B613B69FB68002283F83C20FB68B1
:10301C001B685A68FB681B6842F480725A60FB6834
:10302C001B685A68FB681B6842F400625A600023F4
:10303C0028E0FB68202283F83D20FB68002283F8FF
:10304C003E20FB681B6C43F01002FB681A64FB68A3
:10305C00002283F83C20012314E0FB68202283F833
:10306C003D20FB68002283F83E20FB681B6C43F07C
:10307C004002FB681A64FB68002283F83C200123A1
:10308C0000E0022318462037BD4680BD0400002016
:10309C0089B5F8140000FFFF85490008434B000870
:1030AC0080B588B000AF78600023BB617B681B687B
:1030BC005B687B617B68DB6A3B617B6893F83E30C5
:1030CC00FB737B6893F83D30BB73FB7B102B03D0F9
:1030DC00FB7B402B40F0B1807B681B689B69BB611C
:1030EC007B681B685B69FB61FB6903F00103002BC8
:1030FC000DD13B69B3F52A0F03D03B69B3F12A4FCD
:10310C0001D1012300E00023012B00F01481FB69A5
:10311C0003F00103002B0BD07B6903F40073002B2D
:10312C0006D0786801F0F0FF786800F06BFD83E062
:10313C00FB6903F00803002B08D07B6903F40073D0
:10314C00002B03D0786800F0E2FD75E0FB6903F01A
:10315C000203002B08D07B6903F40073002B03D00F
:10316C00786800F0FDFD67E0BB6903F00403002BF9
:10317C0036D07B681B685B6803F40063B3F5006FA3
:10318C0000F0DB80FB6903F08003002B0DD07B6922
:10319C0003F48063002B08D0FB6903F00403002BBD
:1031AC0003D1786800F0CBF946E0FB6903F0040327
:1031BC00002B00F0C2807B6903F40073002B00F03D
:1031CC00BC80BB7B212B03D1786800F054FAB4E0AF
:1031DC00FB7B402B40F0B180786800F0C2FAACE089
:1031EC007B681B685B6803F40063B3F5006F00F049
:1031FC00A480FB6903F04003002B0DD07B6903F422
:10320C008063002B08D0FB6903F00403002B03D16F
:10321C00786800F03EFB0FE0FB6903F00403002B21
:10322C0000F08B807B6903F40073002B00F0858029
:10323C00786800F0F6FB80E07FE07B681B6C002B6D
:10324C0004D07B681B685B69FB6107E07B681B68CB
:10325C009B69BB617B681B685B69FB61FB6903F065
:10326C000203002B11D07B6903F40073002B0CD0EC
:10327C007B681B6C002B03D07B681B689B69BB6154
:10328C00B969786800F0C3FF5AE0FB6903F01003DA
:10329C00002B08D07B6903F40073002B03D07868F3
:1032AC0000F0FEFF4CE0BB7B212B02D0BB7B292B1B
:1032BC0020D1FB6903F08003002B0DD07B6903F454
:1032CC008063002B08D0FB6903F00403002B03D1AF
:1032DC00786800F0E0FE32E0FB6903F00403002B99
:1032EC002DD07B6903F40073002B28D0786800F094
:1032FC000FFF24E0FB6903F04003002B0DD07B692A
:10330C0003F48063002B08D0FB6903F00403002B4B
:10331C0003D1786800F01CFF12E0FB6903F0040392
:10332C00002B0DD07B6903F40073002B08D0786858
:10333C0000F04CFF04E000BF02E000BF00E000BF63
:10334C002037BD4680BD80B58AB000AF78607B6801
:10335C001B685B693B627B681B685B68FB610023D5
:10336C007B627B6893F83E30FB763B6A03F4807398
:10337C00002B15D0FB6903F48073002B10D07B6AF3
:10338C0043F001037B627B681B686FF480725A61A7
:10339C007B681B681A687B681B6842F400421A60E1
:1033AC003B6A03F40073002B0DD0FB6903F48073AC
:1033BC00002B08D07B6A43F002037B627B681B689E
:1033CC006FF400725A613B6A03F48063002B3ED0A9
:1033DC00FB6903F48073002B39D0FB7EBB767B68D2
:1033EC005B8D9BB27B617B6893F83D30FB747B6893
:1033FC001B6BFB60BB7E202B12D17B69002B0FD18A
:10340C00FB7C212B08D0FB7C292B05D0FB7C282BAB
:10341C0006D1FB68212B03D1786801F071F816E016
:10342C007B681B686FF480625A617B6A43F004030B
:10343C007B62FB7E102B02D0FB7E402B07D17B687E
:10344C001B681A687B681B6842F400721A603B6A3E
:10345C0003F40063002B0DD0FB6903F48073002B85
:10346C0008D07B6A43F008037B627B681B686FF4AF
:10347C0000625A617B6A002B08D07B681A6C7B6AED
:10348C001A437B681A64786801F0AEF800BF2837DD
:10349C00BD4680BD80B483B000AF786000BF0C37F0
:1034AC00BD4680BC704780B483B000AF786000BF6D
:1034BC000C37BD4680BC704780B483B000AF7860D9
:1034CC0000BF0C37BD4680BC704780B483B000AFE2
:1034DC00786000BF0C37BD4680BC704780B483B0A9
:1034EC0000AF78600B46FB7013463B8000BF0C3777
:1034FC00BD4680BC704780B483B000AF786000BF1D
:10350C000C37BD4680BC704780B483B000AF786088
:10351C0000BF0C37BD4680BC704780B483B000AF91
:10352C00786000BF0C37BD4680BC704780B483B058
:10353C0000AF786000BF0C37BD4680BC704780B5CB
:10354C0084B000AF78607B6893F83D30FB737B6888
:10355C0093F83E30BB737B68DB6ABB607B681B8D6A
:10356C00002B50D1FB7B212B4DD1BB68082B1DD0E0
:10357C00BB68202B1AD0BB6813F5803F16D07B6834
:10358C001B685A687B681B6822F4E0625A607B688F
:10359C0011221A637B68002283F83E207B6820226C
:1035AC0083F83D207868FFF775FF60E07B681B6847
:1035BC005A687B681B6822F4E0625A607B681B685F
:1035CC001A687B681B6842F400721A607B680022E0
:1035DC001A637B68202283F83D207B6893F83E3089
:1035EC00DBB2402B07D17B68002283F83E20786841
:1035FC00FDF7B4FB3BE07B68002283F83E20786843
:10360C00FFF748FF33E0FB7B212B05D0BB7B402B26
:10361C002DD1FB7B222B2AD17B685B8D9BB2002B9F
:10362C0008D17B681B685A687B681B6822F480622F
:10363C005A601CE07B6893F83E30DBB2402B03D120
:10364C00786800F08EF812E07B685B6A1A787B6809
:10365C001B681A617B685B6A5A1C7B685A627B68C0
:10366C005B8D9BB2013B9AB27B685A85FFE700BF2A
:10367C001037BD4680BD80B584B000AF78607B68E4
:10368C00DB6AFB607B6893F83D30DBB2212B64D1A5
:10369C007B685B8D9BB2002B12D07B685B6A1A78BF
:1036AC007B681B681A617B685B6A5A1C7B685A6270
:1036BC007B685B8D9BB2013B9AB27B685A854CE070
:1036CC00FB68082B1DD0FB68202B1AD0FB6813F568
:1036DC00803F16D07B681B685A687B681B6822F495
:1036EC00E0625A607B6811221A637B68002283F8BF
:1036FC003E207B68202283F83D207868FFF7CAFEC5
:10370C002BE07B681B685A687B681B6822F4E062BC
:10371C005A607B681B681A687B681B6842F40072ED
:10372C001A607B6800221A637B68202283F83D2094
:10373C007B6893F83E30DBB2402B07D17B680022CC
:10374C0083F83E207868FDF709FB06E07B680022D1
:10375C0083F83E207868FFF79DFE00BF1037BD460A
:10376C0080BD80B584B000AF78607B6893F83D3045
:10377C00FB737B681B6D002B1DD17B68DB6C012BF5
:10378C000BD17B689B6CDAB27B681B681A617B6817
:10379C001B6D9A1C7B681A6577E07B689B6C9BB2EF
:1037AC001B12DAB27B681B681A617B681B6D5A1C92
:1037BC007B681A6569E07B681B6D012B0BD17B68FC
:1037CC009B6CDAB27B681B681A617B681B6D5A1C98
:1037DC007B681A6559E07B681B6D022B52D1FB7B11
:1037EC00222B0DD17B681B681A687B681B6842F41E
:1037FC0080721A607B681B6D5A1C7B681A6544E0EA
:10380C007B685B8D9BB2002B15D0FB7B212B12D1DF
:10381C007B685B6A1A787B681B681A617B685B6AD9
:10382C005A1C7B685A627B685B8D9BB2013B9AB2D7
:10383C007B685A8529E07B685B8D9BB2002B24D179
:10384C00FB7B212B21D17B681B685A687B681B682A
:10385C0022F4E0625A607B681B681A687B681B68FC
:10386C0042F400721A607B6800221A637B68202283
:10387C0083F83D207B68002283F83E207868FDF7B2
:10388C006DFA02E07868FFF7A7F900BF1037BD4664
:10389C0080BD80B584B000AF78607B6893F83D3014
:1038AC00DBB2222B40F0B9807B68DB6AFB607B6863
:1038BC005B8D9BB2BB60BB68032B21D97B681B68FB
:1038CC001A697B685B6AD2B21A707B685B6A5A1C95
:1038DC007B685A627B685B8D9BB2013B9AB27B68BA
:1038EC005A857B685B8D9BB2032B40F096807B687E
:1038FC001B685A687B681B6822F480625A608CE0F3
:10390C007B68DB6A022B7FD0BB68012B02D0BB68C3
:10391C00002B79D1786801F097FB0346002B4CD132
:10392C007B681B681A687B681B6822F480621A60CB
:10393C007B681B685A687B681B6822F4E0625A60DB
:10394C007B681B681A697B685B6AD2B21A707B68E9
:10395C005B6A5A1C7B685A627B685B8D9BB2013B2D
:10396C009AB27B685A857B68202283F83D207B685D
:10397C0093F83E30DBB2402B0AD17B68002283F8EF
:10398C003E207B6800221A637868FFF7BDFD44E097
:10399C007B68002283F83E20FB68082B02D0FB6872
:1039AC00202B03D17B6800221A6302E07B68122271
:1039BC001A637868FFF777FD2FE07B681B685A68FD
:1039CC007B681B6822F4E0625A607B681B681A698A
:1039DC007B685B6AD2B21A707B685B6A5A1C7B6824
:1039EC005A627B685B8D9BB2013B9AB27B685A85AD
:1039FC007B68202283F83D207B68002283F83E20E0
:103A0C007868FFF78AFD08E07B681B685A687B685A
:103A1C001B6822F480625A60FFE700BF1037BD4676
:103A2C0080BD80B584B000AF78607B68DB6AFB60DA
:103A3C007B685B8D9BB2042B1BD17B681B685A681F
:103A4C007B681B6822F480625A607B681B681A6969
:103A5C007B685B6AD2B21A707B685B6A5A1C7B68A3
:103A6C005A627B685B8D9BB2013B9AB27B685A852C
:103A7C00C4E07B685B8D9BB2032B29D17B681B68F0
:103A8C005A687B681B6822F480625A60FB68042BBE
:103A9C000AD0FB68022B07D07B681B681A687B680E
:103AAC001B6822F480621A607B681B681A697B6849
:103ABC005B6AD2B21A707B685B6A5A1C7B685A626A
:103ACC007B685B8D9BB2013B9AB27B685A8595E013
:103ADC007B685B8D9BB2022B7DD1FB68012B02D0E6
:103AEC00FB68102B08D17B681B681A687B681B6805
:103AFC0022F480621A6016E0FB68042B02D0FB688B
:103B0C00022B08D17B681B681A687B681B6842F41F
:103B1C0080621A6007E07B681B681A687B681B6808
:103B2C0042F400721A607B681B681A697B685B6AD6
:103B3C00D2B21A707B685B6A5A1C7B685A627B68CB
:103B4C005B8D9BB2013B9AB27B685A857B681B6884
:103B5C001A697B685B6AD2B21A707B685B6A5A1C02
:103B6C007B685A627B685B8D9BB2013B9AB27B6827
:103B7C005A857B681B685A687B681B6822F4407204
:103B8C005A607B68202283F83D207B6893F83E3096
:103B9C00DBB2402B0AD17B68002283F83E207B6885
:103BAC0000221A637868FFF7AFFC27E07B680022DD
:103BBC0083F83E20FB68082B02D0FB68202B03D136
:103BCC007B6800221A6302E07B6812221A63786811
:103BDC00FFF769FC12E07B681B681A697B685B6AFB
:103BEC00D2B21A707B685B6A5A1C7B685A627B681B
:103BFC005B8D9BB2013B9AB27B685A8500BF103734
:103C0C00BD4680BD80B483B000AF78607B6893F80C
:103C1C003E30DBB2402B17D17B681B6D002B09D1DA
:103C2C007B685B6CDBB21A467B681B6802F0FE0299
:103C3C001A6167E07B685B6CDBB243F00103DAB2BC
:103C4C007B681B681A615DE07B681B69B3F5804F6C
:103C5C0033D17B6893F83D30DBB2212B09D17B68E3
:103C6C005B6CDBB21A467B681B6802F0FE021A61C1
:103C7C0008E07B685B6CDBB243F00103DAB27B6873
:103C8C001B681A617B685B6B002B04D07B685B6BD9
:103C9C009B6A002B08D17B689B6B002B32D07B6816
:103CAC009B6B9B6A002B2DD07B681B685A687B68CA
:103CBC001B6842F400625A6024E07B681B6D002B89
:103CCC000ED17B685B6C9BB2DB11DBB203F006039D
:103CDC00DBB263F00F03DAB27B681B681A6111E088
:103CEC007B681B6D012B0DD17B685B6C9BB2DB1170
:103CFC00DBB203F00603DBB263F00E03DAB27B68CF
:103D0C001B681A6100BF0C37BD4680BC704780B47D
:103D1C0083B000AF78607B685B6CDAB27B681B6841
:103D2C001A617B685B6B002B04D07B685B6B9B6AB6
:103D3C00002B08D17B689B6B002B0CD07B689B6B9A
:103D4C009B6A002B07D07B681B685A687B681B68D2
:103D5C0042F400625A6000BF0C37BD4680BC70470D
:103D6C0080B491B000AF78607B6893F83E3087F8F0
:103D7C003F307B68DB6ABB637B681B6B7B637B6858
:103D8C0093F83D30DBB2222B40F074817B681B6DC5
:103D9C00002B0FD197F83F30402B0BD100233B6306
:103DAC007B681B685B693B637B681B689B693B6337
:103DBC003B6B6BE17B681B6D002B1DD17B681B691A
:103DCC00B3F5404F18D10023FB627B681B685B691D
:103DDC00FB627B681B689B69FB62FB6A7B681B68E8
:103DEC001A687B681B6842F480721A607B681B6DD2
:103DFC005A1C7B681A6549E17B685B8D9BB2002B72
:103E0C0013D10023BB627B681B685B69BB627B6858
:103E1C001B689B69BB62BB6A7B681B681A687B6802
:103E2C001B6842F400721A6020E17B685B8D9BB2C8
:103E3C00012B40F08A80BB6B13F5803F37D17B6838
:103E4C001B681A687B681B6822F480621A607B68A6
:103E5C001B685B6803F40063B3F5006F13D17B68D8
:103E6C001B681A687B681B6822F480621A60002346
:103E7C007B627B681B685B697B627B681B689B69E8
:103E8C007B627B6AF2E000233B627B681B685B69A8
:103E9C003B627B681B689B693B623B6A7B681B6867
:103EAC001A687B681B6842F400721A60DEE0BB6B18
:103EBC00082B2ED0BB6B202B2BD07B6B122B02D163
:103ECC00BB6B012B25D1BB6B042B0ED0BB6B022B18
:103EDC000BD0BB6B102B08D07B681B681A687B68F7
:103EEC001B6822F480621A6007E07B681B681A6802
:103EFC007B681B6842F480621A600023FB617B685C
:103F0C001B685B69FB617B681B689B69FB61FB69D8
:103F1C00ACE07B681B681A687B681B6822F48062C3
:103F2C001A600023BB617B681B685B69BB617B68A3
:103F3C001B689B69BB61BB697B681B681A687B68E3
:103F4C001B6842F400721A6090E07B685B8D9BB238
:103F5C00022B58D1BB6B042B21D0BB6B022B1ED078
:103F6C00BB6B102B1BD07B681B681A687B681B68AB
:103F7C0042F400621A6000237B617B681B685B69FA
:103F8C007B617B681B689B697B617B697B681B68B9
:103F9C001A687B681B6822F480621A6012E07B68E6
:103FAC001B681A687B681B6842F480621A600023E5
:103FBC003B617B681B685B693B617B681B689B6929
:103FCC003B613B697B681B685B6803F40063B3F57A
:103FDC00006F4BD1BB6B13F5803F0BD0BB6B012B30
:103FEC0008D0BB6B082B05D0BB6B102B02D0BB6B66
:103FFC00202B3BD17B681B685A687B681B6842F49A
:10400C0080525A6032E07B681B681A687B681B68B8
:10401C0042F480621A607B681B685B6803F400637F
:10402C00B3F5006F17D1BB6B13F5803F0BD0BB6B97
:10403C00012B08D0BB6B082B05D0BB6B102B02D00F
:10404C00BB6B202B07D17B681B685A687B681B688D
:10405C0042F480525A600023FB607B681B685B69EA
:10406C00FB607B681B689B69FB60FB687B680022BC
:10407C001A650BE00023BB607B681B685B69BB6047
:10408C007B681B689B69BB60BB68FFE700BF44375C
:10409C00BD4680BC704780B584B000AF78607B684B
:1040AC0093F83D30FB737B685B8D9BB2002B2BD060
:1040BC007B685B6A1A787B681B681A617B685B6A31
:1040CC005A1C7B685A627B685B8D9BB2013B9AB22F
:1040DC007B685A857B685B8D9BB2002B14D1FB7B74
:1040EC00292B11D17B681B685A687B681B6822F4EA
:1040FC0080625A607B6821221A637B68282283F8CD
:10410C003D207868FFF7D8F900BF1037BD4680BD59
:10411C0080B483B000AF78607B685B8D9BB2002B62
:10412C0011D07B685B6A1A787B681B681A617B68A4
:10413C005B6A5A1C7B685A627B685B8D9BB2013B45
:10414C009AB27B685A8500BF0C37BD4680BC70475D
:10415C0080B584B000AF78607B6893F83D30FB731A
:10416C007B685B8D9BB2002B2CD07B681B681A691B
:10417C007B685B6AD2B21A707B685B6A5A1C7B687C
:10418C005A627B685B8D9BB2013B9AB27B685A8505
:10419C007B685B8D9BB2002B14D1FB7B2A2B11D13E
:1041AC007B681B685A687B681B6822F480625A60C3
:1041BC007B6822221A637B68282283F83D2078686A
:1041CC00FFF783F900BF1037BD4680BD80B483B0C4
:1041DC0000AF78607B685B8D9BB2002B12D07B6844
:1041EC001B681A697B685B6AD2B21A707B685B6A5F
:1041FC005A1C7B685A627B685B8D9BB2013B9AB2FE
:10420C007B685A8500BF0C37BD4680BC704780B5B3
:10421C0084B000AF786039600023FB737B6893F83F
:10422C003D30DBB203F02803282B25D17B681B68BB
:10423C005A687B681B6822F480625A603B6803F002
:10424C000403002B01D10123FB733B6803F08003B3
:10425C00002B03D17B68DB68BB8102E07B689B6928
:10426C00BB817B68002283F83C20BA89FB7B194612
:10427C007868FFF733F90EE00023BB607B681B689E
:10428C005B69BB607B681B689B69BB60BB687B68B8
:10429C00002283F83C2000BF1037BD4680BD0000D3
:1042AC0080B584B000AF78607B6893F83D30FB73C9
:1042BC007B681B685A687B681B6822F4E0625A6052
:1042CC000023BB607B681B685B69BB607B681B68F9
:1042DC001A687B681B6842F001021A60BB687B6835
:1042EC001B681A687B681B6822F480621A607B6802
:1042FC001B685B6803F40063B3F5006F72D1FB7B42
:10430C00222B02D0FB7B2A2B35D17B689B6B1B6845
:10431C005B689AB27B685A857B685B8D9BB2002B7D
:10432C0005D07B681B6C43F004027B681A647B68C5
:10433C001B685A687B681B6822F400625A607B68B1
:10434C009B6B1846FEF7FEF80346012B49D07B68A1
:10435C009B6B694A5A637B689B6B1846FDF774FF2D
:10436C000346002B3DD07B689B6B5B6B7A68926B32
:10437C001046984735E07B685B6B1B685B689AB2AC
:10438C007B685A857B685B8D9BB2002B05D07B6864
:10439C001B6C43F004027B681A647B681B685A68C8
:1043AC007B681B6822F400625A607B685B6B184662
:1043BC00FEF7C8F80346012B14D07B685B6B4E4AA2
:1043CC005A637B685B6B1846FDF73EFF0346002B78
:1043DC0008D07B685B6B5B6B7A68526B10469847B6
:1043EC0000E000BF7B685B8D9BB2002B3ED07B68EE
:1043FC001B685B6903F00403042B12D17B681B68F8
:10440C001A697B685B6AD2B21A707B685B6A5A1C49
:10441C007B685A627B685B8D9BB2013B9AB27B686E
:10442C005A857B681B685B6903F04003402B12D1F3
:10443C007B681B681A697B685B6AD2B21A707B68EE
:10444C005B6A5A1C7B685A627B685B8D9BB2013B32
:10445C009AB27B685A857B685B8D9BB2002B05D02A
:10446C007B681B6C43F004027B681A647B681B6CD2
:10447C00002B03D0786800F0B7F839E0FB7B2A2BCF
:10448C0009D17B6800221A637B68282283F83D20BF
:10449C007868FFF71AF87B6893F83D30DBB2282B6D
:1044AC0011D17B68154ADA627B6800221A637B683B
:1044BC00202283F83D207B68002283F83E20786818
:1044CC00FFF719F814E07B681B6B222B02D0FB7BE7
:1044DC00222B0DD17B6800221A637B68202283F883
:1044EC003D207B68002283F83E207868FEF7EDFFC4
:1044FC0000BF1037BD4680BDB14B00080000FFFF68
:10450C0080B584B000AF78607B6893F83D30FB7366
:10451C007B68DB6ABB60BB68082B02D0BB68202BB6
:10452C0029D1FB7B282B26D17B682E4ADA627B684B
:10453C001B685A687B681B6822F4E0625A607B68CF
:10454C001B686FF480625A617B681B681A687B6811
:10455C001B6822F480621A607B6800221A637B68F5
:10456C00202283F83D207B68002283F83E20786867
:10457C00FEF7C1FF31E0FB7B212B29D17B68194A67
:10458C00DA627B6821221A637B68202283F83D2043
:10459C007B68002283F83E207B681B685A687B6826
:1045AC001B6822F4E0625A607B681B686FF48062BF
:1045BC005A617B681B681A687B681B6822F48062EE
:1045CC001A607868FEF708FB7868FEF775FF04E060
:1045DC007B681B686FF480625A6100BF1037BD4660
:1045EC0080BD00BF0000FFFF80B584B000AF7860D5
:1045FC007B6893F83D30FB737B6893F83E30BB735C
:10460C00BB7B102B02D0BB7B402B0AD1FB7B222B1C
:10461C0007D17B681B681A687B681B6822F40062F0
:10462C001A60FB7B03F02803282B07D17B68002240
:10463C001A637B68282283F83D2015E07B681B6891
:10464C005B6803F40063B3F5006F0AD0FB7B602B4F
:10465C0007D07B68202283F83D207B68002283F8FA
:10466C003E207B6800221A637B681B685B6803F43E
:10467C000063B3F5006F62D17B681B685A687B6876
:10468C001B6822F400625A607B685B6B93F82130E4
:10469C00DBB2012B20D07B685B6B6A4A5A637B6868
:1046AC005B6B1846FDF7D0FD0346002B00F08980AC
:1046BC007B681B681A687B681B6822F001021A6011
:1046CC007B68202283F83D207B685B6B5B6B7A6890
:1046DC00526B1046984774E07B689B6B594A5A633F
:1046EC007B689B6B1846FDF7AFFD0346002B68D02B
:1046FC007B681B685B6903F04003402B0BD17B6824
:10470C001B681A697B685B6AD2B21A707B685B6A39
:10471C005A1C7B685A627B681B681A687B681B682A
:10472C0022F001021A607B68202283F83D207B680E
:10473C009B6B5B6B7A68926B1046984741E07B6889
:10474C0093F83D30DBB2602B25D17B68202283F8B7
:10475C003D207B6800221A647B681B685B6903F050
:10476C004003402B0BD17B681B681A697B685B6A22
:10477C00D2B21A707B685B6A5A1C7B685A627B687F
:10478C001B681A687B681B6822F001021A60786843
:10479C00FEF7CCFE15E07B681B685B6903F04003F9
:1047AC00402B0BD17B681B681A697B685B6AD2B2A1
:1047BC001A707B685B6A5A1C7B685A627868FEF7D1
:1047CC00ACFE7B681B6CBB60BB6803F00103002B69
:1047DC000ED1BB6803F00203002B09D1BB6803F0B8
:1047EC000403002B04D1BB6803F00803002B07D093
:1047FC007B681B685A687B681B6822F4E0625A600D
:10480C007B6893F83D30FB737B681B6C03F00403EF
:10481C00042B13D1FB7B282B10D17B680A4ADA625C
:10482C007B6800221A637B68202283F83D207B681A
:10483C00002283F83E207868FEF75DFE00BF10373B
:10484C00BD4680BDB14B00080000FFFF80B588B0AD
:10485C0002AFF860084611461A4603467B810B46A8
:10486C003B811346FB80FB681B681A68FB681B685E
:10487C0042F480721A607B6A00933B6A00224FF00C
:10488C000111F86800F036FA0346002B0DD0FB68D6
:10489C001B681B6803F48073B3F5807F03D1FB683E
:1048AC004FF400721A6403235FE07B89DBB21A4673
:1048BC00FB681B6802F0FE021A617B6A3A6A2D499A
:1048CC00F86800F091FA0346002B01D001234CE06C
:1048DC0000237B61FB681B685B697B61FB681B6861
:1048EC009B697B617B697A6A396AF86800F01CFB0A
:1048FC000346002B0DD0FB681B6C042B07D1FB6807
:10490C001B681A68FB681B6842F400721A6001236A
:10491C002BE0FB88012B05D13B89DAB2FB681B68C5
:10492C001A6121E03B891B0A9BB2DAB2FB681B6857
:10493C001A617A6A396AF86800F0F6FA0346002BB5
:10494C000DD0FB681B6C042B07D1FB681B681A6825
:10495C00FB681B6842F400721A60012305E03B8976
:10496C00DAB2FB681B681A61002318461837BD467B
:10497C0080BD00BF0200010080B586B000AF78603A
:10498C007B685B6A7B617B6993F83D30FB747B6968
:10499C0093F83E30BB747B69DB6AFB607B691B68F8
:1049AC005A687B691B6822F440725A607B695B6BA6
:1049BC00002B03D07B695B6B00229A627B699B6B3B
:1049CC00002B03D07B699B6B00229A62FB7C03F06B
:1049DC002103212B07D0FB7C03F02203222B31D1A6
:1049EC00BB7C202B2ED17B691B685A687B691B68AA
:1049FC0022F400625A607B6900225A85FB7C292BC9
:104A0C000AD17B6921221A637B69282283F83D2015
:104A1C007869FEF751FD0CE0FB7C2A2B09D17B69F0
:104A2C0022221A637B69282283F83D207869FEF7DD
:104A3C004CFD7B691B685A687B691B6842F44072A9
:104A4C005A6074E07B6993F83E30DBB2002B6ED079
:104A5C007B695B8D9BB2012B07D17B691B681A6844
:104A6C007B691B6822F480621A607B691B685A6838
:104A7C007B691B6822F440725A60FB6813F5803F17
:104A8C0009D0FB68082B06D0FB68B3F12A4F02D083
:104A9C00FB68202B07D17B691B681A687B691B6834
:104AAC0042F400721A607B691B685A687B691B6848
:104ABC0022F480525A607B691B685A687B691B68B8
:104ACC0022F400625A607B6900225A857B691B6C58
:104ADC00002B03D07869FEF720FD28E07B692022AB
:104AEC0083F83D207B6993F83E30DBB2402B0AD132
:104AFC007B69002283F83E207B6900221A63786967
:104B0C00FEF702FD13E07B69002283F83E20FB6870
:104B1C00082B02D0FB68202B03D17B6900221A637F
:104B2C0002E07B6912221A637869FEF7BCFC00BFB5
:104B3C001837BD4680BD80B584B000AF78607B6807
:104B4C005B6AFB60FB685B6B002B03D0FB685B6BE9
:104B5C0000229A62FB689B6B002B03D0FB689B6B5B
:104B6C0000229A62FB681B681A68FB681B6822F4B7
:104B7C0080621A60FB6800225A85FB68202283F849
:104B8C003D20FB68002283F83E20FB681B6C43F041
:104B9C001002FB681A64F868FEF7BFFC00BF103700
:104BAC00BD4680BD80B586B000AF78600023FB6049
:104BBC007B685B6A7B617B6993F83D30FB744B4B84
:104BCC001B68DB084A4AA2FB03231A0A13469B0004
:104BDC001344DA00D31AFB60FB68002B06D17B6907
:104BEC001B6C43F020027B691A640AE0FB68013BF2
:104BFC00FB607B691B681B6803F40073B3F5007FD3
:104C0C00EAD07B695B6B002B03D07B695B6B00226A
:104C1C009A627B699B6B002B03D07B699B6B002298
:104C2C009A627B691B681A687B691B6822F4806234
:104C3C001A607B6900225A857B695B6B002B03D061
:104C4C007B695B6B00225A637B699B6B002B03D0E7
:104C5C007B699B6B00225A637B691B681A687B69B2
:104C6C001B6822F001021A607B6993F83D30DBB2BD
:104C7C00602B0ED17B69202283F83D207B690022BA
:104C8C0083F83E207B6900221A647869FEF74EFC9B
:104C9C0027E0FB7C03F02803282B17D17B691B68CA
:104CAC001A687B691B6842F001021A607B691B68F9
:104CBC001A687B691B6842F480621A607B69002267
:104CCC001A637B69282283F83D2007E07B69202248
:104CDC0083F83D207B69002283F83E207869FEF73B
:104CEC001CFC00BF1837BD4680BD00BF040000206F
:104CFC0089B5F81480B584B000AFF860B9603B603A
:104D0C001346FB7148E03B68B3F1FF3F44D0FDF71D
:104D1C00A5F80246BB69D31A3A689A4202D33B689B
:104D2C00002B39D1BB681B0CDBB2012B0DD1FB68FE
:104D3C001B685B69DA43BB6813409BB2002B0CBF4A
:104D4C0001230023DBB21A460CE0FB681B689B694D
:104D5C00DA43BB6813409BB2002B0CBF012300232A
:104D6C00DBB21A46FB799A4216D1FB6800221A6311
:104D7C00FB68202283F83D20FB68002283F83E204C
:104D8C00FB681B6C43F02002FB681A64FB68002272
:104D9C0083F83C20012323E0BB681B0CDBB2012B06
:104DAC000DD1FB681B685B69DA43BB6813409BB28F
:104DBC00002B0CBF01230023DBB21A460CE0FB686E
:104DCC001B689B69DA43BB6813409BB2002B0CBF7A
:104DDC0001230023DBB21A46FB799A4293D00023BD
:104DEC0018461037BD4680BD80B584B000AFF86062
:104DFC00B9607A603B6071E0FB681B685B6903F427
:104E0C008063B3F5806F23D1FB681B681A68FB685D
:104E1C001B6842F400721A60FB681B686FF48062B6
:104E2C005A61FB6800221A63FB68202283F83D203C
:104E3C00FB68002283F83E20FB681B6C43F00402E5
:104E4C00FB681A64FB68002283F83C20012367E0AE
:104E5C007B68B3F1FF3F41D0FDF700F802463B6899
:104E6C00D31A7A689A4202D37B68002B36D1BB687E
:104E7C001B0CDBB2012B0CD1FB681B685B69DA43A2
:104E8C00BB6813409BB2002B14BF01230023DBB281
:104E9C000BE0FB681B689B69DA43BB6813409BB251
:104EAC00002B14BF01230023DBB2002B16D0FB68B0
:104EBC0000221A63FB68202283F83D20FB68002245
:104ECC0083F83E20FB681B6C43F02002FB681A64DD
:104EDC00FB68002283F83C20012321E0BB681B0CFB
:104EEC00DBB2012B0CD1FB681B685B69DA43BB6836
:104EFC0013409BB2002B14BF01230023DBB20BE049
:104F0C00FB681B689B69DA43BB6813409BB2002BA0
:104F1C0014BF01230023DBB2002B7FF46DAF002301
:104F2C0018461037BD4680BD80B584B000AFF86020
:104F3C00B9607A6034E0F86800F0B8F80346002BEA
:104F4C0001D0012334E0BB68B3F1FF3F28D0FCF75C
:104F5C0085FF02467B68D31ABA689A4202D3BB68B3
:104F6C00002B1DD1FB681B685B6903F08003802B51
:104F7C0016D0FB6800221A63FB68202283F83D20C0
:104F8C00FB68002283F83E20FB681B6C43F0200278
:104F9C00FB681A64FB68002283F83C20012307E0BD
:104FAC00FB681B685B6903F08003802BC3D1002373
:104FBC0018461037BD4680BD80B584B000AFF86090
:104FCC00B9607A6034E0F86800F070F80346002BA2
:104FDC0001D0012334E0BB68B3F1FF3F28D0FCF7CC
:104FEC003DFF02467B68D31ABA689A4202D3BB686B
:104FFC00002B1DD1FB681B685B6903F00403042BB9
:10500C0016D0FB6800221A63FB68202283F83D202F
:10501C00FB68002283F83E20FB681B6C43F02002E7
:10502C00FB681A64FB68002283F83C20012307E02C
:10503C00FB681B685B6903F00403042BC3D10023DA
:10504C0018461037BD4680BD80B485B000AF78607F
:10505C000023FB60134B1B68DB08134AA2FB0323E2
:10506C001A0A13469B001344FB60FB68013BFB6070
:10507C00FB68002B07D17B681B6C43F020027B681C
:10508C001A64012308E07B681B681B6803F4007337
:10509C00B3F5007FE9D0002318461437BD4680BC19
:1050AC00704700BF0400002089B5F81480B483B0A9
:1050BC0000AF78607B681B685B6903F48063B3F5B1
:1050CC00806F1BD17B681B686FF480625A617B68B0
:1050DC0000221A637B68202283F83D207B68002223
:1050EC0083F83E207B681B6C43F004027B681A64D7
:1050FC007B68002283F83C20012300E00023184643
:10510C000C37BD4680BC704780B483B000AF78606C
:10511C007B68DB6AB3F52A0F03D17B680122DA6264
:10512C0007E07B68DB6AB3F12A4F02D17B68082267
:10513C00DA6200BF0C37BD4680BC704780B584B0C6
:10514C0000AF78607B68002B01D10123E8E07B681D
:10515C0093F89132DBB2002B06D17B68002283F8E6
:10516C009022786807F06EFC7B68032283F891220A
:10517C007B6800225A717B681B68184603F09DFB04
:10518C007B6818687B6804330ECB03F073FB034613
:10519C00002B05D07B68022283F891220123BFE00B
:1051AC007B681B680021184603F0A1FB0346002B0B
:1051BC0005D07B68022283F891220123B0E0002302
:1051CC00FB733EE0FA7B796813469B001344DB00CB
:1051DC000B44113301221A70FA7B796813469B0039
:1051EC001344DB000B441033FA7B1A70FA7B79689A
:1051FC0013469B001344DB000B44133300221A703C
:10520C00FA7B796813469B001344DB000B44203374
:10521C0000221A60FA7B796813469B001344DB006A
:10522C000B44243300221A60FB7B79685A1C13460A
:10523C009B001344DB000B4400221A60FB7B013300
:10524C00FB737B681B79FA7B9A42BBD30023FB73FD
:10525C0044E0FA7B796813469B001344DB000B4453
:10526C0003F2511300221A70FA7B796813469B00E3
:10527C001344DB000B4403F5A873FA7B1A70FA7B1A
:10528C00796813469B001344DB000B4403F2531361
:10529C0000221A70FA7B796813469B001344DB00DA
:1052AC000B4403F5B07300221A60FA7B796813463D
:1052BC009B001344DB000B4403F5B27300221A600D
:1052CC00FA7B796813469B001344DB000B4403F50F
:1052DC00B47300221A60FB7B0133FB737B681B7970
:1052EC00FA7B9A42B5D37B6818687B6804330ECB83
:1052FC0003F009FB0346002B05D07B68022283F8E0
:10530C00912201230CE07B6800225A737B680122F6
:10531C0083F891227B681B68184605F088FD0023F2
:10532C0018461037BD4680BD80B582B000AF78609E
:10533C007B6893F89032012B01D1022316E07B6835
:10534C00012283F890227B681B68184603F09FFAB1
:10535C000121786807F0E9FD7B681B68184605F0A9
:10536C005CFD7B68002283F89022002318460837E6
:10537C00BD4680BD80B588B000AF78607B681B6887
:10538C00184605F05EFDB861BB6903F40043002BC1
:10539C0003D0786800F01AFB19E1BB6903F4806351
:1053AC00002B13D07B681B68B3F844309AB27B682F
:1053BC001B6822F4806292B2A3F84420786807F04C
:1053CC00BCFB0021786800F005F900E1BB6903F42F
:1053DC008043002B0CD07B681B68B3F844309AB226
:1053EC007B681B6822F4804292B2A3F84420EEE062
:1053FC00BB6903F40053002B0CD07B681B68B3F81B
:10540C0044309AB27B681B6822F4005292B2A3F823
:10541C004420DCE0BB6903F48053002B27D07B686D
:10542C001B68B3F840309AB27B681B6822F0040208
:10543C0092B2A3F840207B681B68B3F840309AB254
:10544C007B681B6822F0080292B2A3F840207868AF
:10545C0007F0ACFB7B681B68B3F844309AB27B68EE
:10546C001B6822F4805292B2A3F84420AFE0BB69CF
:10547C0003F40063002B00F083800023FB7710E023
:10548C007B681B681A46FB7F9B001A44FB7F1288C3
:10549C0092B25B0020333B4423F8182CFB7F013382
:1054AC00FB77FB7F072BEBD97B681B68B3F840308D
:1054BC009AB27B681B6842F0010292B2A3F84020BA
:1054CC007B681B68B3F840309AB27B681B6822F08B
:1054DC00010292B2A3F8402000BF7B681B68B3F8AE
:1054EC0044309BB203F48063002BF6D07B681B68BE
:1054FC00B3F844309AB27B681B6822F4806292B293
:10550C00A3F844200023FB770FE0FB7F7A68126836
:10551C001146FA7F92000A445B0020333B4433F877
:10552C00183C1380FB7F0133FB77FB7F072BECD9F7
:10553C007B681B68B3F840309AB27B681B6842F0FA
:10554C00080292B2A3F840207B681B68B3F8443081
:10555C009AB27B681B6822F4006292B2A3F84420D2
:10556C007B681B68B3F840309AB27B681B6842F0CA
:10557C00040292B2A3F84020786807F0FDFA26E006
:10558C00BB6903F40073002B0FD07B681B68B3F866
:10559C0044309AB27B681B6822F4007292B2A3F872
:1055AC004420786807F0BBFA11E0BB6903F4807300
:1055BC00002B0CD07B681B68B3F844309AB27B6824
:1055CC001B6822F4807292B2A3F8442000BF2037EB
:1055DC00BD4680BD80B582B000AF78600B46FB70D5
:1055EC007B6893F89032012B01D1022312E07B6887
:1055FC00012283F890227B68FA785A737B681B68C7
:10560C00FA781146184605F0F5FB7B68002283F802
:10561C009022002318460837BD4680BD80B584B063
:10562C0000AF7860084611461A460346FB700B46DD
:10563C003B801346BB700023FB7297F90330002BA1
:10564C000EDAFB7803F0070213469B001344DB00D1
:10565C0010337A681344FB60FB6801225A700EE029
:10566C00FB7803F0070213469B001344DB0003F5A1
:10567C00A8737A681344FB60FB6800225A70FB78AD
:10568C0003F00703DAB2FB681A703A88FB681A61F8
:10569C00FB68BA78DA70BB78022B02D1FB68002267
:1056AC001A717B6893F89032012B01D102230EE022
:1056BC007B68012283F890227B681B68F968184686
:1056CC0003F03EF97B68002283F89022FB7A18469F
:1056DC001037BD4680BD80B584B000AF78600B46F6
:1056EC00FB7097F90330002B0EDAFB7803F00702FE
:1056FC0013469B001344DB0010337A681344FB60A1
:10570C00FB6801225A700EE0FB7803F00702134687
:10571C009B001344DB0003F5A8737A681344FB6009
:10572C00FB6800225A70FB7803F00703DAB2FB68BF
:10573C001A707B6893F89032012B01D102230EE092
:10574C007B68012283F890227B681B68F9681846F5
:10575C0003F0B6FC7B68002283F8902200231846E5
:10576C001037BD4680BD80B586B000AFF8607A605A
:10577C003B600B46FB72FB7A03F0070213469B005F
:10578C001344DB0003F5A873FA6813447B617B694F
:10579C007A685A617B693A689A617B690022DA619E
:1057AC007B6900225A70FB7A03F00703DAB27B693B
:1057BC001A70FB681B687969184603F06DFE0023AC
:1057CC0018461837BD4680BD80B483B000AF7860F2
:1057DC000B46FB70FB7803F00702796813469B00BD
:1057EC001344DB000B4403F5B6731B6818460C37E7
:1057FC00BD4680BC704780B586B000AFF8607A605B
:10580C003B600B46FB72FB7A03F0070213469B00CE
:10581C001344DB001033FA6813447B617B697A68AC
:10582C005A617B693A689A617B69012283F824206A
:10583C007B693A681A627B690022DA617B69012212
:10584C005A70FB7A03F00703DAB27B691A70FB68B3
:10585C001B687969184603F01FFE00231846183799
:10586C00BD4680BD80B584B000AF78600B46FB7040
:10587C00FB7803F007037A681279934201D901236C
:10588C004CE097F90330002B0EDAFB7803F007029B
:10589C0013469B001344DB0010337A681344FB60FF
:1058AC00FB6801225A700CE0FA7813469B001344F3
:1058BC00DB0003F5A8737A681344FB60FB680022D5
:1058CC005A70FB6801229A70FB7803F00703DAB276
:1058DC00FB681A707B6893F89032012B01D102237C
:1058EC001CE07B68012283F890227B681B68F968B6
:1058FC00184605F082F9FB7803F00703002B08D15A
:10590C007B681A687B6803F526731946104605F008
:10591C00A7FA7B68002283F89022002318461037E0
:10592C00BD4680BD80B584B000AF78600B46FB707F
:10593C00FB7803F00F037A681279934201D90123A3
:10594C0040E097F90330002B0EDAFB7803F00702E6
:10595C0013469B001344DB0010337A681344FB603E
:10596C00FB6801225A700EE0FB7803F00702134625
:10597C009B001344DB0003F5A8737A681344FB60A7
:10598C00FB6800225A70FB6800229A70FB7803F0C7
:10599C000703DAB2FB681A707B6893F89032012B1C
:1059AC0001D102230EE07B68012283F890227B68F0
:1059BC001B68F968184605F070F97B68002283F8BB
:1059CC009022002318461037BD4680BD80B596B096
:1059DC0000AF7860BBE37B681B68B3F84430A7F872
:1059EC004E30B7F84E30DBB203F00F0387F84D3072
:1059FC0097F84D30002B40F07581B7F84E3003F01E
:105A0C001003002B4ED17B681B681B889BB223F4C0
:105A1C00E14323F07003FB817B681A68FB896FEA12
:105A2C0043436FEA53439BB213807B6810337B650F
:105A3C007B681B68B3F850309BB21A467B6D1B78A1
:105A4C00DB00134402335B007A681268134403F5DD
:105A5C0080631B88C3F309027B6DDA617B6D5A6925
:105A6C007B6DDB691A447B6D5A610021786807F005
:105A7C003CF87B685B7BDBB2002B00F068837B6DB2
:105A8C009B69002B40F063837B685B7BDBB263F02C
:105A9C007F03DAB27B681B68A3F84C207B6800227A
:105AAC005A7354E37B6803F5A8737B657B681B68AA
:105ABC001B88A7F84A30B7F84A3003F40063002B70
:105ACC0034D07B681B68B3F850309BB21A467B6DA0
