:020000040800F2
:1000000000500020552B0008B1210008B92100083C
:10001000C1210008C9210008D1210008000000000A
:10002000000000000000000000000000D9210008CE
:10003000E521000800000000F1210008FD21000872
:100040009D2B00089D2B00089D2B00089D2B000870
:100050009D2B00089D2B00089D2B00089D2B000860
:100060009D2B00089D2B00089D2B00089D2B000850
:100070009D2B00089D2B00089D2B00089D2B000840
:10008000092200089D2B00089D2B00089D2B0008CD
:100090001D2200089D2B00089D2B00089D2B0008A9
:1000A0009D2B0008312200089D2B00089D2B000885
:1000B0009D2B00089D2B00084522000859220008AE
:1000C0006D2200089D2B00089D2B00089D2B000829
:1000D0009D2B00089D2B00089D2B00088122000805
:1000E000952200089D2B00089D2B000800000000B1
:1000F0000000000000000000000000000000000000
:0C01000000000000000000005FF808F1A3
:10010C0010B5054C237833B9044B13B10448AFF345
:10011C0000800123237010BDD401002000000000DA
:10012C00A4F1000808B5034B1BB103490348AFF316
:10013C00008008BD00000000D8010020A4F10008D8
:10014C00034613F8012B002AFBD1181A013870470B
:10015C0080F0004002E000BF81F0004142001FBF70
:10016C005FEA410392EA030F7FEA226C7FEA236C79
:10017C006AD04FEA1262D2EB1363C1BFD21841406E
:10018C0048404140B8BF5B42192B88BF704710F004
:10019C00004F40F4000020F07F4018BF404211F0A7
:1001AC00004F41F4000121F07F4118BF494292EA0F
:1001BC00030F3FD0A2F1010241FA03FC10EB0C003B
:1001CC00C3F1200301FA03F100F0004302D54942C8
:1001DC0060EB4000B0F5000F13D3B0F1807F06D375
:1001EC0040084FEA310102F10102FE2A51D2B1F16D
:1001FC00004F40EBC25008BF20F0010040EA030062
:10020C007047490040EB0000013A28BFB0F5000FE1
:10021C00EDD2B0FA80FCACF1080CB2EB0C0200FA97
:10022C000CF0AABF00EBC25052421843BCBFD040E6
:10023C001843704792F0000F81F4000106BF80F460
:10024C0000000132013BB5E74FEA41037FEA226C23
:10025C0018BF7FEA236C21D092EA030F04D092F0EE
:10026C00000F08BF0846704790EA010F1CBF002022
:10027C00704712F07F4F04D1400028BF40F000407F
:10028C00704712F100723CBF00F50000704700F09F
:10029C00004343F0FE4040F4000070477FEA2262C6
:1002AC0016BF08467FEA23630146420206BF5FEA97
:1002BC00412390EA010F40F4800070474FF0000397
:1002CC0004E000BF10F0004348BF40425FEA000C5E
:1002DC0008BF704743F0964301464FF000001CE006
:1002EC0050EA010208BF70474FF000030AE000BF5C
:1002FC0050EA010208BF704711F0004302D540429A
:10030C0061EB41015FEA010C02BF8446014600200B
:10031C0043F0B64308BFA3F18053A3F50003BCFA26
:10032C008CF2083AA3EBC25310DB01FA02FC6344D3
:10033C0000FA02FCC2F12002BCF1004F20FA02F2DA
:10034C0043EB020008BF20F00100704702F12002CD
:10035C0001FA02FCC2F1200250EA4C0021FA02F22E
:10036C0043EB020008BF20EADC7070474FF0FF0C33
:10037C001CEAD0521EBF1CEAD15392EA0C0F93EA2E
:10038C000C0F6FD01A4480EA010C400218BF5FEAD0
:10039C0041211ED04FF0006343EA501043EA511143
:1003AC00A0FB01310CF00040B1F5000F3EBF49003D
:1003BC0041EAD3715B0040EA010062F17F02FD2A41
:1003CC001DD8B3F1004F40EBC25008BF20F0010024
:1003DC00704790F0000F0CF0004C08BF49024CEA3B
:1003EC00502040EA51207F3AC2BFD2F1FF0340EACD
:1003FC00C250704740F400004FF00003013A5DDC3E
:10040C0012F1190FDCBF00F000407047C2F100027E
:10041C00410021FA02F1C2F1200200FA02FC5FEA6B
:10042C00310040F1000053EA4C0308BF20EADC70B5
:10043C00704792F0000F00F0004C02BF400010F427
:10044C00000F013AF9D040EA0C0093F0000F01F0D4
:10045C00004C02BF490011F4000F013BF9D041EAF6
:10046C000C018FE70CEAD15392EA0C0F18BF93EAF8
:10047C000C0F0AD030F0004C18BF31F0004CD8D122
:10048C0080EA010000F00040704790F0000F17BFA9
:10049C0090F0004F084691F0000F91F0004F14D0EF
:1004AC0092EA0C0F01D142020FD193EA0C0F03D147
:1004BC004B0218BF084608D180EA010000F000404A
:1004CC0040F0FE4040F40000704740F0FE4040F425
:1004DC00400070474FF0FF0C1CEAD0521EBF1CEAC4
:1004EC00D15392EA0C0F93EA0C0F69D0A2EB0302E2
:1004FC0080EA010C49024FEA402037D04FF080537C
:10050C0043EA111143EA10130CF000408B4238BF40
:10051C005B0042F17D024FF4000C8B4224BF5B1A4E
:10052C0040EA0C00B3EB510F24BFA3EB510340EA9C
:10053C005C00B3EB910F24BFA3EB910340EA9C004A
:10054C00B3EBD10F24BFA3EBD10340EADC001B01BA
:10055C0018BF5FEA1C1CE0D1FD2A3FF650AF8B425E
:10056C0040EBC25008BF20F0010070470CF0004C6B
:10057C004CEA50207F32C2BFD2F1FF0340EAC25096
:10058C00704740F400004FF00003013A37E792F057
:10059C00000F00F0004C02BF400010F4000F013AB5
:1005AC00F9D040EA0C0093F0000F01F0004C02BFB0
:1005BC00490011F4000F013BF9D041EA0C0195E719
:1005CC000CEAD15392EA0C0F08D142027FF47DAFB2
:1005DC0093EA0C0F7FF470AF084676E793EA0C0FA2
:1005EC0004D14B023FF44CAF08466EE730F0004CA0
:1005FC0018BF31F0004CCAD130F000427FF45CAF30
:10060C0031F000437FF43CAF5FE700BF4FF0FF3C9D
:10061C0006E000BF4FF0010C02E000BF4FF0010CF0
:10062C004DF804CD4FEA40024FEA41037FEA226CB9
:10063C0018BF7FEA236C11D001B052EA530C18BFDB
:10064C0090EA010F58BFB2EB030088BFC81738BF40
:10065C006FEAE17018BF40F0010070477FEA226C2E
:10066C0002D15FEA402C05D17FEA236CE4D15FEA2A
:10067C00412CE1D05DF8040B704700BF844608465E
:10068C006146FFE70FB5FFF7C9FF002848BF10F11F
:10069C00000F0FBD4DF808EDFFF7F4FF0CBF012064
:1006AC0000205DF808FB00BF4DF808EDFFF7EAFFEE
:1006BC0034BF012000205DF808FB00BF4DF808EDA9
:1006CC00FFF7E0FF94BF012000205DF808FB00BF9E
:1006DC004DF808EDFFF7D2FF94BF012000205DF824
:1006EC0008FB00BF4DF808EDFFF7C8FF34BF012031
:1006FC0000205DF808FB00BF80B582B000AF7860C9
:10070C003960124B00221A70114B00221A704022D1
:10071C00796810480EF0A4F80E4B002283F83F20A5
:10072C00202239680C480EF09BF80B4B0022DA772C
:10073C000A4B32221A60054B0D221A70084B00220C
:10074C001A7000BF0837BD4680BD00BFF001002005
:10075C00F40100200C0200204C020020F8010020C3
:10076C002804002080B582B000AF78600B467B80F7
:10077C0013463B801D4B5B68002B02D14FF0FF33BF
:10078C002FE03B88002B02D147F230533B80184BB3
:10079C00184A1A600F22796817480EF061F8164B48
:1007AC000022DA737B880A22144918460DF0ECFFFC
:1007BC003B880A22124918460DF0E6FF114B1B78B4
:1007CC00002B01D101230CE00F4B1B7803F002032B
:1007DC00DBB2002B01D1002303E00C4B09221A7071
:1007EC00062318460837BD4680BD00BF2C040020E8
:1007FC0000000020554450006C0200207C020020B8
:10080C00940200200C020020F4010020F0010020D2
:10081C0080B400AF0A4B5B68002B02D14FF0FF3362
:10082C0009E0084B1B7803F00203DBB2002B01D06C
:10083C00032300E000231846BD4680BC704700BF70
:10084C002C040020F401002080B483B000AF0346D8
:10085C00FB710B4B1B885A1C91B2094A118019462B
:10086C00084AFB795354064B1B88802B02D1044B4E
:10087C0000221A8000BF0C37BD4680BC704700BFF9
:10088C0020040020A002002080B582B000AF786068
:10089C000C22796810480EF023F8104B00221A70C5
:1008AC000F4B00221A700F4B00221A800E4B0022A5
:1008BC001A800E4B00221A800D4B00221A800D4B11
:1008CC0000221A700C4B00221A600C4B00221A608A
:1008DC0000BF0837BD4680BD2C040020F00100206D
:1008EC009A02002024040020260400202204002068
:1008FC0020040020F4010020040200200802002043
:10090C0080B400AF124B1B68002B04D0104B1B683B
:10091C00013B0F4A13600F4B1B68002B0BD00D4B88
:10092C001B68013B0B4A13600A4B1B68002B02D15E
:10093C00094B00221A70094B1B68002B04D0074B83
:10094C001B68013B054A136000BFBD4680BC704765
:10095C00F8010020FC0100209A0200200002002077
:10096C0080B500AF084B1A88084B1B889A4201D0FF
:10097C0000F010F8064B1B68002B01D100F0C0FBF7
:10098C0000F0C8FD00BF80BD220400202004002020
:10099C00F801002080B582B000AF7F4B1B780D2B87
:1009AC0007D07D4B1B780E2B03D07B4B1B780F2B6A
:1009BC0004D17A4B1A887A4B1A8081E3774B1B88C7
:1009CC00FB80784B02221A6074E3754B1B881A4625
:1009DC00754B9B5C7B71754B1B780C2B00F24B831E
:1009EC0001A252F823F000BF290A0008190B0008D5
:1009FC00FB0C00088310000883100008F30E00089D
:100A0C00390F00084F0F00087B0F000883100008F7
:100A1C00C70F0008EF0F000845100008644B0022B8
:100A2C001A70644B04221A703EE0614B1B781A4614
:100A3C00614B53F822305F4A127813441B787A7951
:100A4C009A422BD15A4B1B781A465B4B53F82230E7
:100A5C001B78303B9AB2594B1A80584B1B881A465C
:100A6C00920013445B009AB2544B1A80504B1B7883
:100A7C001A46514B53F8223001331B781A464F4B10
:100A8C001B8813449BB2303B9AB24C4B1A804B4B95
:100A9C001B88013B9AB2494B1A800DE0444B1B78E2
:100AAC000133DAB2424B1A70414B1B781A46424B57
:100ABC0053F82230002BB8D13D4B1B781A463E4BD5
:100ACC0053F82230002B09D0384B01221A70394BC5
:100ADC001B780133DAB2374B1A70D3E2314B002258
:100AEC001A60374B1B7803F00103DBB2002B00F0CC
:100AFC00C9827B793E2B40F0C582314A13786FF363
:100B0C00000313702F4B00221A60BBE2284B1B789A
:100B1C001A46294B53F82230264A127813441B7874
:100B2C007A799A4233D1254B1B88013B9AB2234BDD
:100B3C001A80224B1B88002B03D07B790D2B40F0A5
:100B4C00CF801B4B1B781A461B4B53F822300233B9
:100B5C001B78303BDAB2154B1A70144B1B781A46C3
:100B6C00920013445B00DAB2104B1A70104B1B78D6
:100B7C001A46114B53F8223003331A780B4B1B785F
:100B8C001344DBB2303BDAB2084B1A7085E2084BE7
:100B9C0000221A7088E000BFF00100202004002021
:100BAC0022040020FC010020A00200209A02002058
:100BBC00380400203904002044F500089C02002071
:100BCC00F401002000020020A44B1B781A46A44B11
:100BDC0053F822301B78303B9AB2A24B1A80A14BAF
:100BEC001B881A46920013445B009AB29D4B1A80E4
:100BFC009A4B1B781A469A4B53F8223001331B78C8
:100C0C001A46984B1B8813449BB2303B9AB2954BB7
:100C1C001A80944B1B88944A12789B1A9BB203330C
:100C2C009AB2904B1A808F4B1B887F2B36D88B4BEC
:100C3C001B781A468A4B53F822308B4A127813448D
:100C4C001B787A799A4229D1864B1B88002B34D198
:100C5C00824B1B781A46824B53F8223002331B7896
:100C6C00303BDAB2814B1A70804B1B781A469200DB
:100C7C0013445B00DAB27D4B1A70784B1B781A4622
:100C8C00774B53F8223003331A78784B1B78134484
:100C9C00DBB2303BDAB2754B1A700EE06F4B1B783F
:100CAC000133DAB26D4B1A706C4B1B781A466C4BD5
:100CBC0053F82230002B87D100E000BF674B1B7824
:100CCC001A46674B53F82230002B09D1674B002290
:100CDC001A70674B1B88013B9AB2654B1A80DCE19A
:100CEC00614B1B780133DAB25F4B1A70D5E17B791B
:100CFC000A2B40F0C9815D4B00221A70574B1B78B0
:100D0C00112B00F2C18101A252F823F0D70E00087A
:100D1C00D70E0008610D00087D0D0008AB0D000812
:100D2C00D70E0008E10D0008E10D0008150E0008B3
:100D3C00210E00083D0E0008990E000895100008C1
:100D4C00A50E000895100008BB0E0008D70E000871
:100D5C00D70E0008474B1B78022B40F0B880464B4F
:100D6C0000221A60454A137843F020031370AEE05A
:100D7C00424B1B7803F00803DBB2002B00F0A98078
:100D8C003E4A13786FF3C30313703C4A13786FF326
:100D9C00861313703A4B1A883A4B1A8099E0364BEB
:100DAC0000221A60334B1B78062B04D1334A13787C
:100DBC0043F020031370314A137843F0020313708D
:100DCC00314B1B68002B00F086802F4B1B680320D7
:100DDC00984780E0294A13786FF386131370274ADB
:100DEC0013786FF341031370274B1B68002B03D050
:100DFC00254B1B68002098471E4B1B78062B6CD08C
:100E0C001C4B0F221A706DE01C4A13786FF386137B
:100E1C00137067E0194A13786FF3C30313701A4BFE
:100E2C001B68002B5BD0184B1B680A20984756E0B8
:100E3C00114B00221A60114A137843F020031370EF
:100E4C000E4A137843F0400313700F4B1B68002BB2
:100E5C0047D00D4B1B680720984742E03804002010
:100E6C0044F500089C020020390400209A0200205E
:100E7C0022040020F0010020F8010020F4010020E1
:100E8C002604002024040020040200208E4A13783B
:100E9C006FF38613137025E08B4A13786FF3861368
:100EAC001370894A13786FF3410313701AE0864A62
:100EBC0013786FF386131370834A13786FF341031F
:100ECC001370824B0F221A700CE000BFDCE000BFE5
:100EDC00DAE000BFD8E000BFD6E000BFD4E000BF2E
:100EEC00D2E000BFD0E07B792C2B0CD1784B0622C2
:100EFC001A70784B1B68002B00F0C880754B1B6870
:100F0C0075489847C2E0724B00221A70734B1B88CD
:100F1C00013B9AB2714B1A806E4B1B68002B00F090
:100F2C00B5806C4B1B686E489847AFE07B79222BE1
:100F3C0040F0AE80664B07221A706A4B00221A8072
:100F4C00A6E07B79222B03D0664B1B88102B03D198
:100F5C005F4B08221A70A0E0624B1B885A1C91B29E
:100F6C00604A11801946604A7B79535495E07B792D
:100F7C000A2B40F08F80564B00221A70594B1B885D
:100F8C000F2B0ED8574B1B881A46574B00219954E0
:100F9C004D4A137843F020031370544B00221A600F
:100FAC0002E0514B00221A70514B1B68002B71D080
:100FBC004F4B1B68042098476CE07B792C2B06D197
:100FCC00434B0B221A70474B00221A8065E0404BB2
:100FDC0000221A70414B1B88013B9AB23F4B1A807E
:100FEC005BE07B793A2B03D1394B0C221A7054E01D
:100FFC007B792F2B02D97B79392B09D9344B0022E1
:10100C001A70364B1B88013B9AB2344B1A8044E061
:10101C00344B1B881A46920013445B009AB2314B36
:10102C001A807B799AB22F4B1B8813449BB2303BAE
:10103C009AB22C4B1A8030E02E4B9B68002B04D0BC
:10104C002C4B9B687A7910469847264B1B88013BA2
:10105C009AB2244B1A80234B1B88002B1CD11C4B9F
:10106C0000221A701B4B1B68002B15D0194B1B68E8
:10107C002148984710E0164B00221A701F4B002293
:10108C001A600AE000BF08E000BF06E000BF04E001
:10109C0000BF02E000BF00E000BF104B1B88013313
:1010AC009AB20E4B1A800D4B1B88802B02D10B4B26
:1010BC0000221A80094B1B88FA889A427FF485AC6F
:1010CC000837BD4680BD00BFF4010020F0010020B0
:1010DC009A02002008020020F0F1000822040020EF
:1010EC0008F200089C02002084020020F801002075
:1010FC00040200202C0400201CF20008FC0100203B
:10110C0080B500AF9C4B64221A609C4B1B780F2B54
:10111C0000F2E58101A252F823F000BF691100082A
:10112C00C7110008191200083712000855120008E0
:10113C0073120008F91200081D1300084B13000865
:10114C00D91300080114000893140008B114000806
:10115C007111000891110008B9110008864B00228A
:10116C001A60BCE1864B1B6800209847854B1B68B6
:10117C00002B03D0834B1B68834898477F4B0E2270
:10118C001A70ACE17E4B1B68012098477D4B1B68A5
:10119C00002B03D07B4B1B687C489847774B0F2266
:1011AC001A70754B4FF4FA721A6098E1734B012266
:1011BC001A70774B00221A7091E1754B1B78002B3B
:1011CC000DD0734B1B78013BDAB2714B1A70704B1C
:1011DC001B78002B06D1694B0D221A707FE16C4BEA
:1011EC0004221A706B4A13786FF3451313706A4814
:1011FC0000F00CFA634B1B68002B03D0614B1B688F
:10120C00664898475D4B02221A7068E1614B1B7867
:10121C0003F02003DBB2002B03D0584B03221A70CF
:10122C005DE1564B01221A7059E15D4800F0EEF970
:10123C00544B1B68002B03D0524B1B6859489847E2
:10124C004E4B04221A704AE1574800F0DFF94D4B1F
:10125C001B68002B03D04B4B1B6854489847474BDB
:10126C0005221A703BE14B4B1B7803F00203DBB2F7
:10127C00002B03D0414B07221A7030E14C4B1B78EA
:10128C00002B00F029814B4800F0C0F9222000F01F
:10129C00EDF9474800F0BAF9222000F0E7F92C20CC
:1012AC0000F0E4F9222000F0E1F9434800F0AEF937
:1012BC00222000F0DBF90D2000F0D8F90A2000F014
:1012CC00D5F9304B1B68002B03D02E4B1B683B48C9
:1012DC009847304A13786FF345131370274B062247
:1012EC001A70254B40F2DC521A60F8E0294B1B783F
:1012FC0003F02003DBB2002B06D0204B07221A7020
:10130C00234B04221A70EAE01C4B01221A70E6E00F
:10131C002B4B00221A702B4800F078F9194B1B68E4
:10132C00002B03D0174B1B6827489847194A137892
:10133C006FF345131370114B08221A70CFE0154B45
:10134C001B7803F02003DBB2002B03D00B4B0922DC
:10135C001A70C4E00E4B1B78013BDAB20C4B1A70BE
:10136C000B4B1B78002B03D1044B01221A70B6E0F7
:10137C00024B07221A70B2E0F8010020F0010020A5
:10138C002C0400200802002030F2000848F200086B
:10139C0028040020F4010020CCF3000860F20008BF
:1013AC00E4F3000870F20008D4F3000884F200089B
:1013BC000C020020F4F300084C02002098F2000804
:1013CC008402002000F40008ACF20008454B1B78A6
:1013DC00002B00F08380444800F018F9434B1B6845
:1013EC00002B03D0414B1B6841489847414B0A22C4
:1013FC001A7074E0404800F009F9222000F036F928
:10140C003E4800F003F9222000F030F92C2000F0C7
:10141C002DF9222000F02AF9324800F0F7F82220AA
:10142C0000F024F92C2000F021F9354800F0EEF8FA
:10143C002C2000F01BF9334800F0E8F82C2000F0C9
:10144C0015F9302000F012F90D2000F00FF90A20E8
:10145C0000F00CF9254B1B68002B03D0234B1B68A9
:10146C0029489847294A13786FF345131370274A74
:10147C0013786FF3861313701E4B0B221A70244BC8
:10148C00C8221A602BE0214B1B7803F02003DBB23F
:10149C00002B03D0174B0C221A7020E0154B0122A5
:1014AC001A701CE0194B1B7803F00203DBB2002B03
:1014BC0003D1104B01221A7011E0144B1B7803F06E
:1014CC004003DBB2002B03D10A4B09221A7006E051
:1014DC000F4B00221A6002E000BF00E000BF00BF0B
:1014EC0080BD00BF6C0200201CF400080802002024
:1014FC00C0F20008F00100200CF4000800000020ED
:10150C007C02002094020020D8F20008F401002094
:10151C00F801002080B582B000AF344B1B7803F08B
:10152C000103DBB2002B13D0314B1B68002B59D1BC
:10153C00304B1A88304B1A802C4A13786FF3000307
:10154C0013702E4B01221A702D4B0A221A6049E09F
:10155C00294B1A88274B1B889A4244D0264B1B8850
:10156C001A46284B9B5CFB71204B1B7803F0040341
:10157C00DBB2002B04D0FB793E2B01D10A23FB718B
:10158C00214B5B68FA79104698470346002B2AD00A
:10159C00164B1B7803F00403DBB2002B13D0164B55
:1015AC001B881A46174B9B5C3E2B0CD10F4A1378A9
:1015BC006FF3820313700D4A137843F00103137019
:1015CC000B4B05221A600C4B1B8801339AB20A4B49
:1015DC001A80094B1B88B3F5807F04D1064B00227F
:1015EC001A8000E000BF0837BD4680BDF401002022
:1015FC00000200202604002024040020F00100201A
:10160C00F8010020200300202C04002080B485B0B9
:10161C0000AF78600023FB6017E0FB687A681A441F
:10162C00104B1B88591C88B20E4908801946127839
:10163C000D4B5A540B4B1B88B3F5807F02D1094BD1
:10164C0000221A80FB680133FB60FB687A68134444
:10165C001B78002BE1D100BF00BF1437BD4680BC06
:10166C00704700BF260400202003002080B483B004
:10167C0000AF0346FB710B4B1B885A1C91B2094AF5
:10168C0011801946084AFB795354064B1B88B3F555
:10169C00807F02D1034B00221A8000BF0C37BD465D
:1016AC0080BC7047260400202003002080B582B047
:1016BC0000AF0C4B5B690B4A43F001035361094BC0
:1016CC005B6903F001037B607B6800220021102022
:1016DC0001F0BDFB102001F0D6FB00BF0837BD4662
:1016EC0080BD00BF0010024080B588B000AF07F18C
:1016FC00100300221A605A609A60DA60494B9B69A9
:10170C00484A43F010039361464B9B6903F0100366
:10171C00FB60FB68434B9B69424A43F02003936197
:10172C00404B9B6903F02003BB60BB683D4B9B693E
:10173C003C4A43F0080393613A4B9B6903F008035E
:10174C007B607B68374B9B69364A43F0040393619B
:10175C00344B9B6903F004033B603B6800224FF45D
:10176C000051314801F0F3FF002241F282012F4871
:10177C0001F0EDFF00224FF400412D4801F0E7FF8E
:10178C004FF400533B6101237B610023BB610223B7
:10179C00FB6107F110031946234801F03DFE41F2AD
:1017AC0082033B6101237B610023BB610223FB614C
:1017BC0007F1100319461D4801F02EFE4FF400539B
:1017CC003B611C4B7B610023BB6107F11003194685
:1017DC00164801F021FE4FF400433B6101237B616D
:1017EC000023BB610223FB6107F11003194610486B
:1017FC0001F012FE40233B6100237B610123BB619E
:10180C0007F110031946094801F006FE00220021D9
:10181C00282001F01CFB282001F035FB00BF2037ED
:10182C00BD4680BD0010024000100140000C01407C
:10183C00000801400000311080B500AF124B134A74
:10184C001A60114B124A5A600F4B00229A600E4BD1
:10185C000022DA600C4B4FF480421A610A4B0022D2
:10186C005A61094B00229A61074B0022DA61064B40
:10187C0000221A62044801F0B3FF0346002B01D08A
:10188C0000F036FB00BF80BD3C040020005400403B
:10189C00A086010080B58AB000AF786007F1140310
:1018AC0000221A605A609A60DA607B681B68384ABA
:1018BC00934268D1374B9B69364A43F008039361D6
:1018CC00344B9B6903F008033B613B694FF4407355
:1018DC007B611223BB6103233B6207F1140319469E
:1018EC002D4801F099FD2D4B5B687B627B6A43F0C0
:1018FC00E0637B627B6A43F002037B62274A7B6A6C
:10190C005360244BDB69234A43F40013D361214B0E
:10191C00DB6903F40013FB60FB68214B214A1A605E
:10192C001F4B10225A601E4B00229A601C4B8022C7
:10193C00DA601B4B00221A61194B00225A61184BBA
:10194C0000229A61164B0022DA61154801F0B6FAB2
:10195C000346002B01D000F0CBFA7B68104A5A6387
:10196C000F4A7B685362002200211F2001F06FFA9E
:10197C001F2001F088FA00220021202001F067FAD4
:10198C00202001F080FA00BF2837BD4680BD00BF83
:10199C000054004000100240000C014000000140C7
:1019AC00900400206C00024080B582B000AF01F0C2
:1019BC00F1F800F0A3F8FFF797FEFFF777FE00F0C1
:1019CC00A7FC00F0DDFF0CF035FAFFF735FF00F057
:1019DC003FFD00F095FD00F0F7FD00F0FBFF334BF1
:1019EC009B69324A43F001039361304B9B6903F0CE
:1019FC0001033B603B682E4B5B687B607B6823F08C
:101A0C00E0637B607B6843F000737B60284A7B68F3
:101A1C005360284806F050FD0021264806F0EEFDE4
:101A2C00254806F049FD2549254800F067FA254868
:101A3C0000F002FB244B254A5A60234B244A1A60BF
:101A4C00214B244A9A602048FEF71EFF2249234866
:101A5C00FEF752FE01222249224807F05BFDFEF7F9
:101A6C007FFFFEF7D5FE0346032B0DD11E4B1B78D3
:101A7C00002B09D147F2305247F230511B48FEF788
:101A8C0071FE194B01221A70194B1B78002BE6D0F2
:101A9C00184B1B78194618480CF090FA0346002B8B
:101AAC00DDD1134B00221A70D9E700BF00100240A1
:101ABC0000000140AC0A0020840B0020F40A002036
:101ACC003C0B00203C04002004060020A91D00084B
:101ADC00D91D00080D1E0008F0F20008FCF20008E9
:101AEC0002060020280C0020100600200CF3000831
:101AFC0001060020000600200005002080B594B0EF
:101B0C0000AF07F128032822002118460CF0A0FE94
:101B1C0007F1140300221A605A609A60DA601A61A5
:101B2C003B1D00221A605A609A60DA600123BB6286
:101B3C004FF48033FB6200233B630123BB6302231E
:101B4C007B644FF48033BB644FF4E013FB6407F108
:101B5C002803184605F09AFF0346002B01D000F02D
:101B6C00C7F90F237B610223BB610023FB614FF498
:101B7C0080633B6200237B6207F114030221184649
:101B8C0006F006FA0346002B01D000F0B1F9102341
:101B9C007B6000233B613B1D184606F087FB034628
:101BAC00002B01D000F0A4F900BF5037BD4680BD1A
:101BBC0080B500AF2C4B1B78032B45D801A252F8F3
:101BCC0023F000BFE11B0008F71B0008211C0008D4
:101BDC00371C00084021254801F0A2FD0346002BCC
:101BEC0036D1214B01221A7032E040211F4801F0FE
:101BFC0097FD0346002B09D11B4B02221A701C4B7C
:101C0C001B780133DAB21A4B1A7024E0164B0022FF
:101C1C001A7020E04021154801F082FD0346002B8C
:101C2C0018D0114B03221A7014E040210F4801F018
:101C3C0077FD0346002B03D00B4B00221A700AE0F1
:101C4C00094B02221A7006E0074B00221A7002E0C0
:101C5C0000BF00E000BF064B1B78022B02D1044BE7
:101C6C0000221A7000BF80BDD5040020000C01407A
:101C7C00D404002080B500AF104B1B780133DAB2CE
:101C8C000E4B1A700D4B1B78082B14D90C4B1B6880
:101C9C001A460C490C480CF0BBFD0B48FEF750FAE9
:101CAC0003469AB24FF0FF330749084807F0A7FBE9
:101CBC00024B00221A7000BF80BD00BFFC04002044
:101CCC00040000201CF30008DC040020E00B0020C2
:101CDC0080B582B000AF78607B681B68184A93426D
:101CEC0023D1FFF765FF174B1B780133DAB2154B85
:101CFC001A70144B1B78042B17D94FF4005112484F
:101D0C0001F03DFD114B1B78002B06D080211048B3
:101D1C0001F035FDFFF7AEFF04E0002280210C48F6
:101D2C0001F015FD074B00221A707B681B68094AED
:101D3C00934201D1FEF7E4FD00BF0837BD4680BDDC
:101D4C00002C01401106002000100140D40400209A
:101D5C00000C01400008004080B582B000AF7860F4
:101D6C00786800F0B9F900BF0837BD4680BD0000A7
:101D7C0080B582B000AF0346FB80FB88B3F5005FF3
:101D8C0006D1054B1B680133034A136000F080FD3C
:101D9C0000BF0837BD4680BDD804002080B582B096
:101DAC0000AF0346FB71F91D02230122064807F020
:101DBC0026FB0346002B01D1012300E0002318462B
:101DCC000837BD4680BD00BF280C002080B582B00E
:101DDC0000AF0346FB71FB79002B05D001220221D9
:101DEC00064801F0B4FC04E000220221034801F093
:101DFC00AEFC00BF0837BD4680BD00BF000C0140E3
:101E0C0080B586B000AF0346FB71FA7907F1080381
:101E1C000A4918460CF0FCFC07F108031846FEF7BB
:101E2C008FF903469AB207F108010A23044807F018
:101E3C00E6FA00BF1837BD4680BD00BF78F3000836
:101E4C00E00B002080B582B000AF78607B681B6827
:101E5C00084A934209D1084B1B781846FEF7F4FC4C
:101E6C0001220549054807F055FB00BF0837BD4660
:101E7C0080BD00BF0048004002060020280C002056
:101E8C0080B485B000AF78603960164B55221A705B
:101E9C00144B53225A70134B42229A70114B20222E
:101EAC00DA700023FB600AE07A68FB681A44FB686E
:101EBC00043311780B4AD154FB680133FB60FA6888
:101ECC003B689A42F0D33B68DBB20433DAB2064B80
:101EDC001A70064B01221A7000BF1437BD4680BC25
:101EEC00704700BF000500200006002001060020FE
:101EFC0080B400AF72B600BF00BFFDE780B582B002
:101F0C0000AF78603960234A7B681360224A3B68D3
:101F1C001360204B1B681B6800225A631D4B1B6807
:101F2C001B6800229A631C4B1B681B6800229A6377
:101F3C0000224FF40041194801F009FC154B1B68B5
:101F4C000021184606F05AFB124B1B680421184658
:101F5C0006F054FB104B1B680421184606F04EFB90
:101F6C000C4B1B681B6800225A630A4B1B681B68CE
:101F7C0000229A63084B1B681B6800229A63084B6B
:101F8C0000221A80064B00225A8000BF0837BD463B
:101F9C0080BD00BF14060020180600200008014078
:101FAC001C06002080B586B004AF0346FB71084BBD
:101FBC0018680A23029301230193FB1D009301234C
:101FCC000022782101F064FD00BF0837BD4680BDBA
:101FDC002006002080B584B002AF0346FB71FB796C
:101FEC00503BDBB21846FFF7DDFF0020FFF7DAFFAE
:101FFC001020FFF7D7FFFB79DB010C4A13440C4A86
:10200C001046194680231A460CF06AFC094B1868D6
:10201C0080230193064B009301234022782101F089
:10202C0031FE00BF0837BD4680BD00BF240600202E
:10203C00280A00202006002080B588B004AF786004
:10204C00214A7B681360642000F006FE0023FB73BA
:10205C0008E0FB7B1D4AD35C1846FFF7A3FFFB7B14
:10206C000133FB73FB7B172BF3D900F05DF80023D6
:10207C00BB731EE0BB7B503BDBB21846FFF792FFF5
:10208C000020FFF78FFF1020FFF78CFF0E4B186816
:10209C00BB7BDB010E4A1344642202928022019224
:1020AC00009301234022782101F0F2FCBB7B013329
:1020BC00BB73BB7B072BDDD9064B00221A700023A8
:1020CC0018461037BD4680BD2006002090F500084C
:1020DC0024060020240A002080B582B000AF78606E
:1020EC000E4B1B687A689A4213D10D4B1B78013347
:1020FC00DAB20B4B1A700A4B1B78072B05D8084B1E
:10210C001B781846FFF766FF04E0064B00221A7096
:10211C0000E000BF0837BD4680BD00BF2006002090
:10212C00250A0020240A002080B500AF4FF48062FD
:10213C00002102480CF08CFB00BF80BD240600205F
:10214C0080B485B000AF154B9B69144A43F0010372
:10215C009361124B9B6903F00103BB60BB680F4B8F
:10216C00DB690E4A43F08053D3610C4BDB6903F0FF
:10217C0080537B607B680A4B5B68FB60FB6823F0D9
:10218C00E063FB60FB6843F08063FB60044AFB6820
:10219C00536000BF1437BD4680BC7047001002402E
:1021AC000000014080B400AF00BFFDE780B400AF79
:1021BC0000BFFDE780B400AF00BFFDE780B400AF07
:1021CC0000BFFDE780B400AF00BFFDE780B400AFF7
:1021DC0000BFBD4680BC704780B400AF00BFBD4699
:1021EC0080BC704780B400AF00BFBD4680BC704758
:1021FC0080B500AF00F014FD00BF80BD80B500AF0E
:10220C00024800F0C9FF00BF80BD00BF9004002051
:10221C0080B500AF024803F0F5FF00BF80BD00BFE2
:10222C003C19002080B500AF024806F089FA00BFC7
:10223C0080BD00BFAC0A002080B500AF024806F09C
:10224C007FFA00BF80BD00BF840B002080B500AFBB
:10225C00024801F06DFE00BF80BD00BF3C040020B1
:10226C0080B500AF024801F0B6FF00BF80BD00BFD3
:10227C003C04002080B500AF024807F071F900BFA4
:10228C0080BD00BF280C002080B500AF4FF400507B
:10229C0001F08EFA00BF80BD80B586B000AF7860CB
:1022AC00144A154BD31A7B617B693B61134B1B683A
:1022BC00002B02D1114B124A1A60104B1A687B6822
:1022CC0013443A699A4207D20CF0DEFA03460C2208
:1022DC001A604FF0FF3309E0084B1B68FB60074B9B
:1022EC001A687B681344054A1360FB681846183754
:1022FC00BD4680BD0050002000040000A80A00204C
:10230C00801F002080B400AF00BFBD4680BC70476A
:10231C0080B596B000AF07F1480300221A605A60EE
:10232C009A60DA6007F1400300221A605A6007F1E4
:10233C00240300221A605A609A60DA601A615A61AA
:10234C009A613B1D2022002118460CF081FA3E4B6D
:10235C003E4A1A603C4B47225A603B4B00229A6023
:10236C00394B44F61F62DA60374B00221A61364B48
:10237C0000225A61344B00229A61334806F04CF823
:10238C000346002B01D0FFF7B3FD4FF48053BB6421
:10239C0007F1480319462C4806F084FB0346002B32
:1023AC0001D0FFF7A5FD284806F0D8F80346002B0E
:1023BC0001D0FFF79DFD00233B6400237B6407F1F4
:1023CC0040031946204806F009FF0346002B01D0B4
:1023DC00FFF78EFD60237B620023BB620023FB6250
:1023EC0000233B6300237B630023BB630023FB635D
:1023FC0007F1240300221946134806F091FA03460C
:10240C00002B01D0FFF774FD00237B600023BB6021
:10241C000023FB6000233B6100237B614FF40053DE
:10242C00BB6100233B623B1D1946074806F034FF95
:10243C000346002B01D0FFF75BFD034800F084F945
:10244C0000BF5837BD4680BDAC0A0020002C0140AF
:10245C0080B58AB000AF07F1200300221A605A60E1
:10246C003B1D00221A605A609A60DA601A615A6148
:10247C009A61224B4FF080421A60204B47225A60DF
:10248C001E4B00229A601D4B42F20F72DA601B4BFE
:10249C0000221A61194B00229A61184806F05EF866
:1024AC000346002B01D0FFF723FD00233B620023E2
:1024BC007B6207F120031946104806F08FFE034695
:1024CC00002B01D0FFF714FD60237B600023BB6061
:1024DC000023FB6000237B613B1D04221946074847
:1024EC0006F01EFA0346002B01D0FFF701FD03484E
:1024FC0000F02AF900BF2837BD4680BDF40A002041
:10250C0080B58AB000AF07F1200300221A605A6030
:10251C003B1D00221A605A609A60DA601A615A6197
:10252C009A61274B274A1A60254B47225A60244B45
:10253C0000229A60224B42F20F72DA60204B00228A
:10254C001A611F4B00229A611D4806F007F80346DA
:10255C00002B01D0FFF7CCFC00233B6200237B62F5
:10256C0007F120031946164806F038FE0346002BE7
:10257C0001D0FFF7BDFC60237B600023BB60002310
:10258C00FB6000237B613B1D002219460C4806F0C2
:10259C00C7F90346002B01D0FFF7AAFC3B1D042210
:1025AC001946074806F0BCF90346002B01D0FFF78B
:1025BC009FFC034800F0C8F800BF2837BD4680BD1B
:1025CC003C0B00200004004080B586B000AF07F142
:1025DC00080300221A605A609A60DA603B460022B7
:1025EC001A605A601D4B1E4A1A601C4B48225A60D6
:1025FC001A4B00229A60194B42F20F72DA60174B99
:10260C0000221A61154B80229A61144805F004FFD0
:10261C000346002B01D0FFF76BFC4FF48053BB60DB
:10262C0007F1080319460D4806F03CFA0346002B47
:10263C0001D0FFF75DFC00233B6000237B603B4631
:10264C001946064806F0CAFD0346002B01D0FFF7D9
:10265C004FFC00BF1837BD4680BD00BF840B002067
:10266C000008004080B584B000AF78607B681B68C0
:10267C001A4A934214D11A4B9B69194A43F40063CA
:10268C009361174B9B6903F40063FB60FB680022AA
:10269C000021192000F0DBFB192000F0F4FB18E0FE
:1026AC007B681B680F4A934213D10D4BDB690C4AB4
:1026BC0043F00403D3610A4BDB6903F00403BB60F2
:1026CC00BB68002200211E2000F0C1FB1E2000F080
:1026DC00DAFB00BF1037BD4680BD00BF002C0140A7
:1026EC00001002400008004080B485B000AF786054
:1026FC007B681B68B3F1804F0CD1114BDB69104A1E
:10270C0043F00103D3610E4BDB6903F00103FB6063
:10271C00FB6810E07B681B680A4A93420BD1084B9C
:10272C00DB69074A43F00203D361054BDB6903F015
:10273C000203BB60BB6800BF1437BD4680BC70474A
:10274C00001002400004004080B58CB000AF7860EF
:10275C0007F1180300221A605A609A60DA607B68ED
:10276C001B68404A934219D13F4B9B693E4A43F048
:10277C00040393613C4B9B6903F004037B617B690D
:10278C004FF48073BB610223FB6102237B6207F170
:10279C0018031946354800F03FFE5EE07B681B6865
:1027AC00B3F1804F2AD1304B9B692F4A43F0080379
:1027BC0093612D4B9B6903F008033B613B69082334
:1027CC00BB610223FB6102237B6207F118031946EC
:1027DC00274800F021FE274B5B68BB62BB6A23F4E1
:1027EC004073BB62BB6A43F0E063BB62BB6A43F4F9
:1027FC008073BB621F4ABB6A53602EE07B681B6808
:10280C001D4A934229D1184B9B69174A43F0080380
:10281C009361154B9B6903F00803FB60FB68302345
:10282C00BB610223FB6102237B6207F1180319468B
:10283C000F4800F0F1FD0F4B5B68FB62FB6A23F461
:10284C004063FB62FB6A43F0E063FB62FB6A43F4A8
:10285C000063FB62074AFB6A536000BF3037BD461A
:10286C0080BD00BF002C0140001002400008014058
:10287C00000C0140000001400004004080B400AF97
:10288C00024B5B681846BD4680BC7047001000E0E8
:10289C0080B582B000AF4FF40051324800F040FFD9
:1028AC000346012B08D1FFF7E9FF03462E4A93603C
:1028BC002D4B02221A7050E02B4B1B78022B4CD163
:1028CC00FFF7DCFF0346284AD360274BDA68264B18
:1028DC009B68D31A7B60254B1B68254AA2FB0323FC
:1028EC009B0C7A68B2FBF3F33B603B6846F2A71291
:1028FC0093422CD83868FDF7E1FC03461D49184675
:10290C00FDF7E8FD03461A46174B5A60164B5B68F9
:10291C004FF080411846FDF7C7FE0346002B03D04D
:10292C00114B4FF080425A600F4B5B6812491846AE
:10293C00FDF7D8FE0346002B02D00B4B0E4A5A6013
:10294C00094B03221A70084B01221A7405E0064B3E
:10295C000A4A5A60044B04221A7000BF0837BD465D
:10296C0080BD00BF000C0140CC0B002008000020F3
:10297C0083DE1B43000068420000C843000080BF98
:10298C0080B500AF114B124A1A60104B4FF4E13274
:10299C005A600E4B00229A600C4B0022DA600B4BF3
:1029AC0000221A61094B0C225A61084B00229A61D1
:1029BC00064B0022DA61054806F0D1FC0346002BD9
:1029CC0001D0FFF795FA00BF80BD00BFE00B0020DF
:1029DC000038014080B500AF114B124A1A60104B01
:1029EC004FF4E1325A600E4B00229A600C4B0022DD
:1029FC00DA600B4B00221A61094B0C225A61084B0E
:102A0C0000229A61064B0022DA61054806F0A7FC09
:102A1C000346002B01D0FFF76BFA00BF80BD00BF4F
:102A2C00280C00200048004080B58AB000AF7860C8
:102A3C0007F1180300221A605A609A60DA607B680A
:102A4C001B683C4A934232D13B4B9B693A4A43F454
:102A5C0080439361384B9B6903F480437B617B69B2
:102A6C00354B9B69344A43F004039361324B9B69A9
:102A7C0003F004033B613B694FF40073BB61022319
:102A8C00FB6103237B6207F1180319462B4800F006
:102A9C00C3FC4FF48063BB610023FB6100233B62EA
:102AAC0007F118031946254800F0B6FC3EE07B6898
:102ABC001B68234A934239D11F4BDB691E4A43F4EE
:102ACC008023D3611C4BDB6903F48023FB60FB6820
:102ADC00194B9B69184A43F008039361164B9B6989
:102AEC0003F00803BB60BB684FF48063BB61022337
:102AFC00FB6103237B6207F118031946114800F0B0
:102B0C008BFC4FF40063BB610023FB6100233B6231
:102B1C0007F1180319460B4800F07EFC0022002137
:102B2C00272000F094F9272000F0ADF900BF2837DA
:102B3C00BD4680BD00380140001002400008014035
:102B4C0000480040000C0140FFF7DCFB0B480C492F
:102B5C000C4A002302E0D458C4500433C4188C42ED
:102B6C00F9D3094A094C002301E013600432A24254
:102B7C00FBD30BF08FFEFEF717FF70470000002011
:102B8C00D40100203CF60008D40100207C1F00205A
:102B9C00FEE7000080B500AF084B1B68074A43F006
:102BAC0010031360032000F047F90F2000F008F821
:102BBC00FFF7C6FA0023184680BD00BF0020024074
:102BCC0080B582B000AF7860124B1A68124B1B783C
:102BDC0019464FF47A73B3FBF1F3B2FBF3F31846D7
:102BEC0000F05FF90346002B01D001230EE07B6857
:102BFC000F2B0AD8002279684FF0FF3000F027F92C
:102C0C00064A7B681360002300E00123184608374E
:102C1C00BD4680BD08000020100000200C000020E4
:102C2C0080B400AF054B1B781A46054B1B68134448
:102C3C00034A136000BFBD4680BC704710000020E3
:102C4C00700C002080B400AF024B1B681846BD46C8
:102C5C0080BC7047700C002080B584B000AF7860E9
:102C6C00FFF7F0FFB8607B68FB60FB68B3F1FF3FD8
:102C7C0005D00A4B1B781A46FB681344FB6000BF57
:102C8C00FFF7E0FF0246BB68D31AFA689A42F7D8FE
:102C9C0000BF00BF1037BD4680BD00BF1000002034
:102CAC0080B485B000AF78607B6803F00703FB60ED
:102CBC000C4BDB68BB60BA684FF6FF031340BB607C
:102CCC00FB681A02BB68134343F0BF6343F4003341
:102CDC00BB60044ABB68D36000BF1437BD4680BCE0
:102CEC00704700BF00ED00E080B400AF044BDB6820
:102CFC001B0A03F007031846BD4680BC704700BF93
:102D0C0000ED00E080B483B000AF0346FB7197F98F
:102D1C000730002B0BDBFB7903F01F02064997F9F8
:102D2C0007305B09012000FA02F241F8232000BFB2
:102D3C000C37BD4680BC704700E100E080B483B026
:102D4C0000AF03463960FB7197F90730002B0ADBA3
:102D5C003B68DAB20C4997F907301201D2B20B4436
:102D6C0083F800230AE03B68DAB20849FB7903F0E8
:102D7C000F03043B1201D2B20B441A7600BF0C377E
:102D8C00BD4680BC704700BF00E100E000ED00E0F4
:102D9C0080B489B000AFF860B9607A60FB6803F06A
:102DAC000703FB61FB69C3F10703042B28BF042352
:102DBC00BB61FB690433062B02D9FB69033B00E0C2
:102DCC0000237B614FF0FF32BB6902FA03F3DA4355
:102DDC00BB681A407B699A404FF0FF317B6901FA5E
:102DEC0003F3D9437B680B40134318462437BD4685
:102DFC0080BC704780B582B000AF78607B68013BC7
:102E0C00B3F1807F01D301230FE00A4A7B68013BB9
:102E1C0053600F214FF0FF30FFF790FF054B00225E
:102E2C009A60044B07221A60002318460837BD46E7
:102E3C0080BD00BF10E000E080B582B000AF7860CC
:102E4C007868FFF72DFF00BF0837BD4680BD80B501
:102E5C0086B000AF0346B9607A60FB7300237B61D8
:102E6C00FFF742FF78617A68B9687869FFF790FFDD
:102E7C00024697F90F3011461846FFF75FFF00BF67
:102E8C001837BD4680BD80B582B000AF0346FB71DC
:102E9C0097F907301846FFF735FF00BF0837BD46D6
:102EAC0080BD80B582B000AF78607868FFF7A2FF74
:102EBC00034618460837BD4680BD000080B485B077
:102ECC0000AF78600023FB607B68002B01D10123ED
:102EDC0043E07B681B681A46224B1344224AA2FB30
:102EEC0003231B099A007B681A647B681F4ADA6308
:102EFC007B68022283F821207B681B681B68FB60BF
:102F0C00FB6823F47F5323F03003FB607B685A6823
:102F1C007B689B681A437B68DB681A437B681B6978
:102F2C001A437B685B691A437B689B691A437B680D
:102F3C00DB691343FA681343FB607B681B68FA6810
:102F4C001A607B6800229A637B68012283F8212037
:102F5C007B68002283F82020002318461437BD46D6
:102F6C0080BC7047F8FFFDBFCDCCCCCC000002403C
:102F7C0080B586B000AFF860B9607A603B60002322
:102F8C00FB75FB6893F82030012B01D102234BE039
:102F9C00FB68012283F82020FB6893F82130DBB218
:102FAC00012B3AD1FB68022283F82120FB68002216
:102FBC009A63FB681B681A68FB681B6822F00102A5
:102FCC001A603B687A68B968F86800F0F8F9FB6831
:102FDC00DB6A002B08D0FB681B681A68FB681B684F
:102FEC0042F00E021A600FE0FB681B681A68FB685F
:102FFC001B6822F004021A60FB681B681A68FB68E5
:10300C001B6842F00A021A60FB681B681A68FB68AE
:10301C001B6842F001021A6005E0FB68002283F88D
:10302C0020200223FB75FB7D18461837BD4680BD5A
:10303C0080B485B000AF78600023FB737B6893F895
:10304C002130DBB2022B08D07B6804229A637B68A8
:10305C00002283F82020012320E07B681B681A687B
:10306C007B681B6822F00E021A607B681B681A686A
:10307C007B681B6822F001021A607B681A6C7B6803
:10308C00DB6B012101FA02F25A607B68012283F8A2
:10309C0021207B68002283F82020FB7B1846143704
:1030AC00BD4680BC7047000080B584B000AF78602E
:1030BC000023FB737B6893F82130DBB2022B05D025
:1030CC007B6804229A630123FB7351E07B681B68C5
:1030DC001A687B681B6822F00E021A607B681B68FA
:1030EC001A687B681B6822F001021A607B681B68F7
:1030FC00224A934229D07B681B68214A934222D0F2
:10310C007B681B681F4A93421AD07B681B681E4A57
:10311C00934212D07B681B681C4A93420AD07B688E
:10312C001B681B4A934202D14FF480130EE04FF000
:10313C0080730BE04FF4803308E04FF4805305E0CC
:10314C004FF4807302E0102300E00123114A536016
:10315C007B68012283F821207B68002283F82020E1
:10316C007B685B6B002B03D07B685B6B7868984744
:10317C00FB7B18461037BD4680BD00BF08000240DF
:10318C001C00024030000240440002405800024043
:10319C006C0002400000024080B584B000AF786043
:1031AC007B68DB6B1B68FB607B681B681B68BB6008
:1031BC007B681B6C04229A40FB681340002B4FD099
:1031CC00BB6803F00403002B4AD07B681B681B68A8
:1031DC0003F02003002B07D17B681B681A687B68FF
:1031EC001B6822F004021A607B681B68664A9342D3
:1031FC0029D07B681B68654A934222D07B681B6888
:10320C00634A93421AD07B681B68624A934212D07D
:10321C007B681B68604A93420AD07B681B685F4AD4
:10322C00934202D14FF480030EE04FF080630BE029
:10323C004FF4802308E04FF4804305E04FF48063A3
:10324C0002E0402300E00423554A53607B68DB6AAC
:10325C00002B00F094807B68DB6A786898478EE0DE
:10326C007B681B6C02229A40FB681340002B56D0E3
:10327C00BB6803F00203002B51D07B681B681B68F2
:10328C0003F02003002B0BD17B681B681A687B684A
:10329C001B6822F00A021A607B68012283F8212045
:1032AC007B681B68384A934229D07B681B68374A75
:1032BC00934222D07B681B68354A93421AD07B68B4
:1032CC001B68344A934212D07B681B68324A934283
:1032DC000AD07B681B68314A934202D14FF4001329
:1032EC000EE04FF000730BE04FF4003308E04FF4A6
:1032FC00005305E04FF4007302E0202300E00223AA
:10330C00274A53607B68002283F820207B689B6AE5
:10331C00002B34D07B689B6A786898472FE07B68D9
:10332C001B6C08229A40FB681340002B28D0BB680A
:10333C0003F00803002B23D07B681B681A687B689A
:10334C001B6822F00E021A607B681A6C7B68DB6BC0
:10335C00012101FA02F25A607B6801229A637B68B0
:10336C00012283F821207B68002283F820207B68CF
:10337C001B6B002B04D07B681B6B7868984700BFD5
:10338C0000BF1037BD4680BD080002401C00024043
:10339C003000024044000240580002406C000240E1
:1033AC000000024080B483B000AF78607B6893F873
:1033BC002130DBB218460C37BD4680BC704780B458
:1033CC0085B000AFF860B9607A603B60FB681A6C3E
:1033DC00FB68DB6B012101FA02F25A60FB681B6887
:1033EC003A685A60FB685B68102B08D1FB681B6855
:1033FC007A689A60FB681B68BA68DA6007E0FB6859
:10340C001B68BA689A60FB681B687A68DA6000BF50
:10341C001437BD4680BC704780B48BB000AF786069
:10342C00396000237B6200233B6269E101227B6AE5
:10343C0002FA03F3FB613B681B68FA691340BB613A
:10344C00BA69FB699A4240F058813B685B689A4ABA
:10345C0093425ED0984A934275D8984A934258D07A
:10346C00964A93426FD8964A934252D0944A9342CA
:10347C0069D8944A93424CD0924A934263D8924A68
:10348C00934246D0904A93425DD8122B2AD8122BE5
:10349C0059D801A252F823F01F350008F93400085E
:1034AC000B3500084D35000853350008533500081E
:1034BC0053350008533500085335000853350008C0
:1034CC0053350008533500085335000853350008B0
:1034DC0053350008533500085335000801350008F2
:1034EC0015350008794A934213D02CE03B68DB6811
:1034FC003B6229E03B68DB6804333B6224E03B68B9
:10350C00DB6808333B621FE03B68DB680C333B62D3
:10351C001AE03B689B68002B02D104233B6213E04A
:10352C003B689B68012B05D108233B627B68FA69D9
:10353C001A6109E008233B627B68FA695A6103E06F
:10354C0000233B6200E000BFBB69FF2B01D87B6806
:10355C0001E07B6804337B61BB69FF2B02D87B6A7B
:10356C009B0002E07B6A083B9B003B617B691A680D
:10357C000F213B6901FA03F3DB431A40396A3B69BB
:10358C0001FA03F31A437B691A603B685B6803F02A
:10359C008053002B00F0B1804D4B9B694C4A43F09B
:1035AC00010393614A4B9B6903F00103BB60BB6849
:1035BC00484A7B6A9B08023352F82330FB607B6AD3
:1035CC0003F003039B000F2202FA03F3DB43FA68B8
:1035DC001340FB607B68404A934213D07B683F4AA0
:1035EC0093420DD07B683E4A934207D07B683D4A9C
:1035FC00934201D1032306E0042304E0022302E0FA
:10360C00012300E000237A6A02F003029200934047
:10361C00FA681343FB602F497B6A9B080233FA68F4
:10362C0041F823203B685B6803F48013002B06D021
:10363C002D4B9A682C49BB6913438B6006E02A4BCF
:10364C009A68BB69DB43284913408B603B685B6815
:10365C0003F40013002B06D0234BDA682249BB6914
:10366C001343CB6006E0204BDA68BB69DB431E4991
:10367C001340CB603B685B6803F40033002B06D02F
:10368C00194B5A681849BB6913434B6006E0164B3B
:10369C005A68BB69DB43144913404B603B685B6859
:1036AC0003F48033002B21D00F4B1A680E49BB69F1
:1036BC0013430B6021E000BF0000321000003110FA
:1036CC000000221000002110000012100000111048
:1036DC00001002400000014000080140000C0140B5
:1036EC000010014000140140000401400B4B1A680B
:1036FC00BB69DB43094913400B607B6A01337B6276
:10370C003B681A687B6A22FA03F3002B7FF48EAEB7
:10371C0000BF00BF2C37BD4680BC70470004014081
:10372C0080B485B000AF78600B467B807B689A686C
:10373C007B881340002B02D00123FB7301E0002394
:10374C00FB73FB7B18461437BD4680BC704780B4B6
:10375C0083B000AF78600B467B8013467B707B7820
:10376C00002B03D07A887B681A6103E07B881A04EB
:10377C007B681A6100BF0C37BD4680BC704780B4B3
:10378C0085B000AF78600B467B807B68DB68FB60A4
:10379C007A88FB6813401A04FB68D9437B880B407A
:1037AC001A437B681A6100BF1437BD4680BC704752
:1037BC0080B582B000AF0346FB80084B5A69FB888A
:1037CC001340002B06D0054AFB885361FB88184632
:1037DC00FEF7CEFA00BF0837BD4680BD000401409D
:1037EC0080B584B000AF78607B68002B01D10123D9
:1037FC002BE17B6893F83D30DBB2002B06D17B6864
:10380C00002283F83C207868FEF744F87B68242279
:10381C0083F83D207B681B681A687B681B6822F064
:10382C0001021A607B681B681A687B681B6842F48B
:10383C0000421A607B681B681A687B681B6822F45C
:10384C0000421A6004F0ECFCF8607B685B68814A0B
:10385C00934207D8FB68804A934294BF012300230C
:10386C00DBB206E0FB687D4A934294BF0123002340
:10387C00DBB2002B01D00123E7E0FB68784AA2FB06
:10388C0003239B0CBB607B681B685B6823F03F01C8
:10389C007B681B68BA680A435A607B681B681B6AA2
:1038AC0023F03F017B685B686A4A934202D8BB688D
:1038BC00013309E0BB684FF4967202FB03F3694ACB
:1038CC00A2FB03239B0901337A6812680B43136232
:1038DC007B681B68DB6923F44F4222F0FF027B6894
:1038EC005B685C498B4219D8FB68591E7B685B6826
:1038FC005B00B1FBF3F3591C40F6FC730B40002B3F
:10390C000AD0FB68591E7B685B685B00B1FBF3F364
:10391C000133C3F30B0351E004234FE07B689B6836
:10392C00002B11D1FB68581E7B6859680B465B0055
:10393C000B44B0FBF3F30133C3F30B03002B0CBFAD
:10394C0001230023DBB212E0FB68581E7B68596828
:10395C000B469B000B4499000B44B0FBF3F3013373
:10396C00C3F30B03002B0CBF01230023DBB2002B92
:10397C0001D0012322E07B689B68002B0ED1FB68F1
:10398C00581E7B6859680B465B000B44B0FBF3F385
:10399C000133C3F30B0343F400430FE0FB68581EE1
:1039AC007B6859680B469B000B4499000B44B0FB99
:1039BC00F3F30133C3F30B0343F440437968096811
:1039CC001343CB617B681B681B6823F0C0017B68C9
:1039DC00DA697B681B6A1A437B681B680A431A60A6
:1039EC007B681B689B6823F4034323F0FF037A680E
:1039FC0011697A68D26811437A6812680B43936034
:103A0C007B681B68DB6823F0FF017B685A697B6865
:103A1C009B691A437B681B680A43DA607B681B68E6
:103A2C001A687B681B6842F001021A607B680022EE
:103A3C001A647B68202283F83D207B6800221A637D
:103A4C007B68002283F83E20002318461037BD46C1
:103A5C0080BD00BFA08601007F841E00FF083D00D2
:103A6C0083DE1B43D34D621080B483B000AF78600B
:103A7C007B681B685B6903F08003802B03D17B6838
:103A8C001B6800221A6100BF0C37BD4680BC704712
:103A9C0080B588B002AFF860084611461A46034656
:103AAC007B810B463B811346FB80FFF7CBF878619B
:103ABC00FB6893F83D30DBB2202B40F0D9807B695A
:103ACC000093192301226D49F86802F05BF8034654
:103ADC00002B01D00223CCE0FB6893F83C30012B87
:103AEC0001D10223C5E0FB68012283F83C20FB686E
:103AFC001B681B6803F00103012B07D0FB681B68D4
:103B0C001A68FB681B6842F001021A60FB681B68AC
:103B1C001A68FB681B6822F400621A60FB68212299
:103B2C0083F83D20FB68402283F83E20FB6800228E
:103B3C001A64FB683A6A5A62FB68BA8C5A85FB684D
:103B4C005B8D9AB2FB681A85FB684D4ADA62F8887D
:103B5C003A8979897B690193BB6A00930346F868BB
:103B6C0001F0BCFD0346002B52D0012381E07A69A1
:103B7C00B96AF86802F020F90346002B0DD0FB68F7
:103B8C001B6C042B07D1FB681B681A68FB681B684D
:103B9C0042F400721A6001236BE0FB685B6A1A78CE
:103BAC00FB681B681A61FB685B6A5A1CFB685A62EB
:103BBC00FB681B8D013B9AB2FB681A85FB685B8D19
:103BCC009BB2013B9AB2FB685A85FB681B685B6928
:103BDC0003F00403042B1BD1FB681B8D002B17D0A7
:103BEC00FB685B6A1A78FB681B681A61FB685B6A86
:103BFC005A1CFB685A62FB681B8D013B9AB2FB682E
:103C0C001A85FB685B8D9BB2013B9AB2FB685A85A7
:103C1C00FB681B8D002BAAD17A69B96AF86802F08F
:103C2C0013F90346002B0DD0FB681B6C042B07D13A
:103C3C00FB681B681A68FB681B6842F400721A6008
:103C4C00012316E0FB681B681A68FB681B6842F4CA
:103C5C0000721A60FB68202283F83D20FB6800226A
:103C6C0083F83E20FB68002283F83C20002300E010
:103C7C00022318461837BD4680BD00BF0200100055
:103C8C000000FFFF80B58AB002AFF860084611460D
:103C9C001A4603467B810B463B811346FB8000236F
:103CAC007B61FEF7CFFFF861FB6893F83D30DBB228
:103CBC00202B40F02E81994B1B68DB08984AA2FB05
:103CCC0003231A0A13469B0013449A0013447B6186
:103CDC007B69013B7B617B69002B12D1FB68002265
:103CEC001A63FB68202283F83D20FB68002283F8CE
:103CFC003E20FB681B6C43F02002FB681A64022315
:103D0C0008E1FB681B689B6903F00203022BDFD000
:103D1C00FB6893F83C30012B01D10223FAE0FB68DD
:103D2C00012283F83C20FB681B681B6803F001032D
:103D3C00012B07D0FB681B681A68FB681B6842F0F4
:103D4C0001021A60FB681B681A68FB681B6822F486
:103D5C0000621A60FB68212283F83D20FB68402238
:103D6C0083F83E20FB6800221A64FB68BA6A5A6228
:103D7C00FB68BA8D5A85FB685B8D9AB2FB681A8515
:103D8C00FB68684ADA627A89FB685A643A89FB688C
:103D9C009A64FA88FB68DA64FB6800221A65FB688F
:103DAC001B8D002B00F0A180FB685B6B002B22D0DD
:103DBC00FB685B6B5C4A9A62FB685B6B5B4A1A63E1
:103DCC00FB685B6B0022DA62FB685B6B00225A6358
:103DDC00FB68586BFB685B6A1946FB681B68103301
:103DEC001A46FB681B8DFFF7C3F80346FB76FB7E78
:103DFC00002B66D113E0FB68202283F83D20FB6882
:103E0C00002283F83E20FB681B6C43F08002FB68A9
:103E1C001A64FB68002283F83C2001237AE0F888BE
:103E2C003A897989FB690193232300930346F86847
:103E3C0001F054FC0346002B22D0FB685B6B184648
:103E4C00FFF732F90346FB76FB685B6B00229A6244
:103E5C00FB681B681A68FB681B6822F480621A6096
:103E6C00FB6800221A85FB6800225A85FB681B68D8
:103E7C001A68FB681B6822F001021A60012349E0F2
:103E8C0000233B61FB681B685B693B61FB681B683B
:103E9C009B693B613B69FB68002283F83C20FB6813
:103EAC001B685A68FB681B6842F480725A60FB6896
:103EBC001B685A68FB681B6842F400625A60002356
:103ECC0028E0FB68202283F83D20FB68002283F861
:103EDC003E20FB681B6C43F01002FB681A64FB6805
:103EEC00002283F83C20012314E0FB68202283F895
:103EFC003D20FB68002283F83E20FB681B6C43F0DE
:103F0C004002FB681A64FB68002283F83C20012302
:103F1C0000E0022318462037BD4680BD0800002073
:103F2C0089B5F8140000FFFF15580008D359000894
:103F3C0080B588B000AF78600023BB617B681B68DC
:103F4C005B687B617B68DB6A3B617B6893F83E3026
:103F5C00FB737B6893F83D30BB73FB7B102B03D05A
:103F6C00FB7B402B40F0B1807B681B689B69BB617D
:103F7C007B681B685B69FB61FB6903F00103002B29
:103F8C000DD13B69B3F52A0F03D03B69B3F12A4F2E
:103F9C0001D1012300E00023012B00F01481FB6907
:103FAC0003F00103002B0BD07B6903F40073002B8F
:103FBC0006D0786801F0F0FF786800F06BFD83E0C4
:103FCC00FB6903F00803002B08D07B6903F4007332
:103FDC00002B03D0786800F0E2FD75E0FB6903F07C
:103FEC000203002B08D07B6903F40073002B03D071
:103FFC00786800F0FDFD67E0BB6903F00403002B5B
:10400C0036D07B681B685B6803F40063B3F5006F04
:10401C0000F0DB80FB6903F08003002B0DD07B6983
:10402C0003F48063002B08D0FB6903F00403002B1E
:10403C0003D1786800F0CBF946E0FB6903F0040388
:10404C00002B00F0C2807B6903F40073002B00F09E
:10405C00BC80BB7B212B03D1786800F054FAB4E010
:10406C00FB7B402B40F0B180786800F0C2FAACE0EA
:10407C007B681B685B6803F40063B3F5006F00F0AA
:10408C00A480FB6903F04003002B0DD07B6903F483
:10409C008063002B08D0FB6903F00403002B03D1D1
:1040AC00786800F03EFB0FE0FB6903F00403002B83
:1040BC0000F08B807B6903F40073002B00F085808B
:1040CC00786800F0F6FB80E07FE07B681B6C002BCF
:1040DC0004D07B681B685B69FB6107E07B681B682D
:1040EC009B69BB617B681B685B69FB61FB6903F0C7
:1040FC000203002B11D07B6903F40073002B0CD04E
:10410C007B681B6C002B03D07B681B689B69BB61B5
:10411C00B969786800F0C3FF5AE0FB6903F010033B
:10412C00002B08D07B6903F40073002B03D0786854
:10413C0000F0FEFF4CE0BB7B212B02D0BB7B292B7C
:10414C0020D1FB6903F08003002B0DD07B6903F4B5
:10415C008063002B08D0FB6903F00403002B03D110
:10416C00786800F0E0FE32E0FB6903F00403002BFA
:10417C002DD07B6903F40073002B28D0786800F0F5
:10418C000FFF24E0FB6903F04003002B0DD07B698B
:10419C0003F48063002B08D0FB6903F00403002BAD
:1041AC0003D1786800F01CFF12E0FB6903F00403F4
:1041BC00002B0DD07B6903F40073002B08D07868BA
:1041CC0000F04CFF04E000BF02E000BF00E000BFC5
:1041DC002037BD4680BD80B58AB000AF78607B6863
:1041EC001B685B693B627B681B685B68FB61002337
:1041FC007B627B6893F83E30FB763B6A03F48073FA
:10420C00002B15D0FB6903F48073002B10D07B6A54
:10421C0043F001037B627B681B686FF480725A6108
:10422C007B681B681A687B681B6842F400421A6042
:10423C003B6A03F40073002B0DD0FB6903F480730D
:10424C00002B08D07B6A43F002037B627B681B68FF
:10425C006FF400725A613B6A03F48063002B3ED00A
:10426C00FB6903F48073002B39D0FB7EBB767B6833
:10427C005B8D9BB27B617B6893F83D30FB747B68F4
:10428C001B6BFB60BB7E202B12D17B69002B0FD1EB
:10429C00FB7C212B08D0FB7C292B05D0FB7C282B0D
:1042AC0006D1FB68212B03D1786801F071F816E078
:1042BC007B681B686FF480625A617B6A43F004036D
:1042CC007B62FB7E102B02D0FB7E402B07D17B68E0
:1042DC001B681A687B681B6842F400721A603B6AA0
:1042EC0003F40063002B0DD0FB6903F48073002BE7
:1042FC0008D07B6A43F008037B627B681B686FF411
:10430C0000625A617B6A002B08D07B681A6C7B6A4E
:10431C001A437B681A64786801F0AEF800BF28373E
:10432C00BD4680BD80B483B000AF786000BF0C3751
:10433C00BD4680BC704780B483B000AF786000BFCE
:10434C000C37BD4680BC704780B483B000AF78603A
:10435C0000BF0C37BD4680BC704780B483B000AF43
:10436C00786000BF0C37BD4680BC704780B483B00A
:10437C0000AF78600B46FB7013463B8000BF0C37D8
:10438C00BD4680BC704780B483B000AF786000BF7E
:10439C000C37BD4680BC704780B483B000AF7860EA
:1043AC0000BF0C37BD4680BC704780B483B000AFF3
:1043BC00786000BF0C37BD4680BC704780B483B0BA
:1043CC0000AF786000BF0C37BD4680BC704780B52D
:1043DC0084B000AF78607B6893F83D30FB737B68EA
:1043EC0093F83E30BB737B68DB6ABB607B681B8DCC
:1043FC00002B50D1FB7B212B4DD1BB68082B1DD042
:10440C00BB68202B1AD0BB6813F5803F16D07B6895
:10441C001B685A687B681B6822F4E0625A607B68F0
:10442C0011221A637B68002283F83E207B682022CD
:10443C0083F83D207868FFF775FF60E07B681B68A8
:10444C005A687B681B6822F4E0625A607B681B68C0
:10445C001A687B681B6842F400721A607B68002241
:10446C001A637B68202283F83D207B6893F83E30EA
:10447C00DBB2402B07D17B68002283F83E207868A2
:10448C00FDF76AFC3BE07B68002283F83E207868ED
:10449C00FFF748FF33E0FB7B212B05D0BB7B402B88
:1044AC002DD1FB7B222B2AD17B685B8D9BB2002B01
:1044BC0008D17B681B685A687B681B6822F4806291
:1044CC005A601CE07B6893F83E30DBB2402B03D182
:1044DC00786800F08EF812E07B685B6A1A787B686B
:1044EC001B681A617B685B6A5A1C7B685A627B6822
:1044FC005B8D9BB2013B9AB27B685A85FFE700BF8C
:10450C001037BD4680BD80B584B000AF78607B6845
:10451C00DB6AFB607B6893F83D30DBB2212B64D106
:10452C007B685B8D9BB2002B12D07B685B6A1A7820
:10453C007B681B681A617B685B6A5A1C7B685A62D1
:10454C007B685B8D9BB2013B9AB27B685A854CE0D1
:10455C00FB68082B1DD0FB68202B1AD0FB6813F5C9
:10456C00803F16D07B681B685A687B681B6822F4F6
:10457C00E0625A607B6811221A637B68002283F820
:10458C003E207B68202283F83D207868FFF7CAFE26
:10459C002BE07B681B685A687B681B6822F4E0621E
:1045AC005A607B681B681A687B681B6842F400724F
:1045BC001A607B6800221A637B68202283F83D20F6
:1045CC007B6893F83E30DBB2402B07D17B6800222E
:1045DC0083F83E207868FDF7BFFB06E07B6800227D
:1045EC0083F83E207868FFF79DFE00BF1037BD466C
:1045FC0080BD80B584B000AF78607B6893F83D30A7
:10460C00FB737B681B6D002B1DD17B68DB6C012B56
:10461C000BD17B689B6CDAB27B681B681A617B6878
:10462C001B6D9A1C7B681A6577E07B689B6C9BB250
:10463C001B12DAB27B681B681A617B681B6D5A1CF3
:10464C007B681A6569E07B681B6D012B0BD17B685D
:10465C009B6CDAB27B681B681A617B681B6D5A1CF9
:10466C007B681A6559E07B681B6D022B52D1FB7B72
:10467C00222B0DD17B681B681A687B681B6842F47F
:10468C0080721A607B681B6D5A1C7B681A6544E04B
:10469C007B685B8D9BB2002B15D0FB7B212B12D141
:1046AC007B685B6A1A787B681B681A617B685B6A3B
:1046BC005A1C7B685A627B685B8D9BB2013B9AB239
:1046CC007B685A8529E07B685B8D9BB2002B24D1DB
:1046DC00FB7B212B21D17B681B685A687B681B688C
:1046EC0022F4E0625A607B681B681A687B681B685E
:1046FC0042F400721A607B6800221A637B682022E5
:10470C0083F83D207B68002283F83E207868FDF713
:10471C0023FB02E07868FFF7A7F900BF1037BD460E
:10472C0080BD80B584B000AF78607B6893F83D3075
:10473C00DBB2222B40F0B9807B68DB6AFB607B68C4
:10474C005B8D9BB2BB60BB68032B21D97B681B685C
:10475C001A697B685B6AD2B21A707B685B6A5A1CF6
:10476C007B685A627B685B8D9BB2013B9AB27B681B
:10477C005A857B685B8D9BB2032B40F096807B68DF
:10478C001B685A687B681B6822F480625A608CE054
:10479C007B68DB6A022B7FD0BB68012B02D0BB6825
:1047AC00002B79D1786801F097FB0346002B4CD194
:1047BC007B681B681A687B681B6822F480621A602D
:1047CC007B681B685A687B681B6822F4E0625A603D
:1047DC007B681B681A697B685B6AD2B21A707B684B
:1047EC005B6A5A1C7B685A627B685B8D9BB2013B8F
:1047FC009AB27B685A857B68202283F83D207B68BF
:10480C0093F83E30DBB2402B0AD17B68002283F850
:10481C003E207B6800221A637868FFF7BDFD44E0F8
:10482C007B68002283F83E20FB68082B02D0FB68D3
:10483C00202B03D17B6800221A6302E07B681222D2
:10484C001A637868FFF777FD2FE07B681B685A685E
:10485C007B681B6822F4E0625A607B681B681A69EB
:10486C007B685B6AD2B21A707B685B6A5A1C7B6885
:10487C005A627B685B8D9BB2013B9AB27B685A850E
:10488C007B68202283F83D207B68002283F83E2041
:10489C007868FFF78AFD08E07B681B685A687B68BC
:1048AC001B6822F480625A60FFE700BF1037BD46D8
:1048BC0080BD80B584B000AF78607B68DB6AFB603C
:1048CC007B685B8D9BB2042B1BD17B681B685A6881
:1048DC007B681B6822F480625A607B681B681A69CB
:1048EC007B685B6AD2B21A707B685B6A5A1C7B6805
:1048FC005A627B685B8D9BB2013B9AB27B685A858E
:10490C00C4E07B685B8D9BB2032B29D17B681B6851
:10491C005A687B681B6822F480625A60FB68042B1F
:10492C000AD0FB68022B07D07B681B681A687B686F
:10493C001B6822F480621A607B681B681A697B68AA
:10494C005B6AD2B21A707B685B6A5A1C7B685A62CB
:10495C007B685B8D9BB2013B9AB27B685A8595E074
:10496C007B685B8D9BB2022B7DD1FB68012B02D047
:10497C00FB68102B08D17B681B681A687B681B6866
:10498C0022F480621A6016E0FB68042B02D0FB68EC
:10499C00022B08D17B681B681A687B681B6842F481
:1049AC0080621A6007E07B681B681A687B681B686A
:1049BC0042F400721A607B681B681A697B685B6A38
:1049CC00D2B21A707B685B6A5A1C7B685A627B682D
:1049DC005B8D9BB2013B9AB27B685A857B681B68E6
:1049EC001A697B685B6AD2B21A707B685B6A5A1C64
:1049FC007B685A627B685B8D9BB2013B9AB27B6889
:104A0C005A857B681B685A687B681B6822F4407265
:104A1C005A607B68202283F83D207B6893F83E30F7
:104A2C00DBB2402B0AD17B68002283F83E207B68E6
:104A3C0000221A637868FFF7AFFC27E07B6800223E
:104A4C0083F83E20FB68082B02D0FB68202B03D197
:104A5C007B6800221A6302E07B6812221A63786872
:104A6C00FFF769FC12E07B681B681A697B685B6A5C
:104A7C00D2B21A707B685B6A5A1C7B685A627B687C
:104A8C005B8D9BB2013B9AB27B685A8500BF103795
:104A9C00BD4680BD80B483B000AF78607B6893F86E
:104AAC003E30DBB2402B17D17B681B6D002B09D13C
:104ABC007B685B6CDBB21A467B681B6802F0FE02FB
:104ACC001A6167E07B685B6CDBB243F00103DAB21E
:104ADC007B681B681A615DE07B681B69B3F5804FCE
:104AEC0033D17B6893F83D30DBB2212B09D17B6845
:104AFC005B6CDBB21A467B681B6802F0FE021A6123
:104B0C0008E07B685B6CDBB243F00103DAB27B68D4
:104B1C001B681A617B685B6B002B04D07B685B6B3A
:104B2C009B6A002B08D17B689B6B002B32D07B6877
:104B3C009B6B9B6A002B2DD07B681B685A687B682B
:104B4C001B6842F400625A6024E07B681B6D002BEA
:104B5C000ED17B685B6C9BB2DB11DBB203F00603FE
:104B6C00DBB263F00F03DAB27B681B681A6111E0E9
:104B7C007B681B6D012B0DD17B685B6C9BB2DB11D1
:104B8C00DBB203F00603DBB263F00E03DAB27B6830
:104B9C001B681A6100BF0C37BD4680BC704780B4DF
:104BAC0083B000AF78607B685B6CDAB27B681B68A3
:104BBC001A617B685B6B002B04D07B685B6B9B6A18
:104BCC00002B08D17B689B6B002B0CD07B689B6BFC
:104BDC009B6A002B07D07B681B685A687B681B6834
:104BEC0042F400625A6000BF0C37BD4680BC70476F
:104BFC0080B491B000AF78607B6893F83E3087F852
:104C0C003F307B68DB6ABB637B681B6B7B637B68B9
:104C1C0093F83D30DBB2222B40F074817B681B6D26
:104C2C00002B0FD197F83F30402B0BD100233B6367
:104C3C007B681B685B693B637B681B689B693B6398
:104C4C003B6B6BE17B681B6D002B1DD17B681B697B
:104C5C00B3F5404F18D10023FB627B681B685B697E
:104C6C00FB627B681B689B69FB62FB6A7B681B6849
:104C7C001A687B681B6842F480721A607B681B6D33
:104C8C005A1C7B681A6549E17B685B8D9BB2002BD3
:104C9C0013D10023BB627B681B685B69BB627B68BA
:104CAC001B689B69BB62BB6A7B681B681A687B6864
:104CBC001B6842F400721A6020E17B685B8D9BB22A
:104CCC00012B40F08A80BB6B13F5803F37D17B689A
:104CDC001B681A687B681B6822F480621A607B6808
:104CEC001B685B6803F40063B3F5006F13D17B683A
:104CFC001B681A687B681B6822F480621A600023A8
:104D0C007B627B681B685B697B627B681B689B6949
:104D1C007B627B6AF2E000233B627B681B685B6909
:104D2C003B627B681B689B693B623B6A7B681B68C8
:104D3C001A687B681B6842F400721A60DEE0BB6B79
:104D4C00082B2ED0BB6B202B2BD07B6B122B02D1C4
:104D5C00BB6B012B25D1BB6B042B0ED0BB6B022B79
:104D6C000BD0BB6B102B08D07B681B681A687B6858
:104D7C001B6822F480621A6007E07B681B681A6863
:104D8C007B681B6842F480621A600023FB617B68BD
:104D9C001B685B69FB617B681B689B69FB61FB693A
:104DAC00ACE07B681B681A687B681B6822F4806225
:104DBC001A600023BB617B681B685B69BB617B6805
:104DCC001B689B69BB61BB697B681B681A687B6845
:104DDC001B6842F400721A6090E07B685B8D9BB29A
:104DEC00022B58D1BB6B042B21D0BB6B022B1ED0DA
:104DFC00BB6B102B1BD07B681B681A687B681B680D
:104E0C0042F400621A6000237B617B681B685B695B
:104E1C007B617B681B689B697B617B697B681B681A
:104E2C001A687B681B6822F480621A6012E07B6847
:104E3C001B681A687B681B6842F480621A60002346
:104E4C003B617B681B685B693B617B681B689B698A
:104E5C003B613B697B681B685B6803F40063B3F5DB
:104E6C00006F4BD1BB6B13F5803F0BD0BB6B012B91
:104E7C0008D0BB6B082B05D0BB6B102B02D0BB6BC7
:104E8C00202B3BD17B681B685A687B681B6842F4FB
:104E9C0080525A6032E07B681B681A687B681B681A
:104EAC0042F480621A607B681B685B6803F40063E1
:104EBC00B3F5006F17D1BB6B13F5803F0BD0BB6BF9
:104ECC00012B08D0BB6B082B05D0BB6B102B02D071
:104EDC00BB6B202B07D17B681B685A687B681B68EF
:104EEC0042F480525A600023FB607B681B685B694C
:104EFC00FB607B681B689B69FB60FB687B6800221E
:104F0C001A650BE00023BB607B681B685B69BB60A8
:104F1C007B681B689B69BB60BB68FFE700BF4437BD
:104F2C00BD4680BC704780B584B000AF78607B68AC
:104F3C0093F83D30FB737B685B8D9BB2002B2BD0C1
:104F4C007B685B6A1A787B681B681A617B685B6A92
:104F5C005A1C7B685A627B685B8D9BB2013B9AB290
:104F6C007B685A857B685B8D9BB2002B14D1FB7BD5
:104F7C00292B11D17B681B685A687B681B6822F44B
:104F8C0080625A607B6821221A637B68282283F82E
:104F9C003D207868FFF7D8F900BF1037BD4680BDBB
:104FAC0080B483B000AF78607B685B8D9BB2002BC4
:104FBC0011D07B685B6A1A787B681B681A617B6806
:104FCC005B6A5A1C7B685A627B685B8D9BB2013BA7
:104FDC009AB27B685A8500BF0C37BD4680BC7047BF
:104FEC0080B584B000AF78607B6893F83D30FB737C
:104FFC007B685B8D9BB2002B2CD07B681B681A697D
:10500C007B685B6AD2B21A707B685B6A5A1C7B68DD
:10501C005A627B685B8D9BB2013B9AB27B685A8566
:10502C007B685B8D9BB2002B14D1FB7B2A2B11D19F
:10503C007B681B685A687B681B6822F480625A6024
:10504C007B6822221A637B68282283F83D207868CB
:10505C00FFF783F900BF1037BD4680BD80B483B025
:10506C0000AF78607B685B8D9BB2002B12D07B68A5
:10507C001B681A697B685B6AD2B21A707B685B6AC0
:10508C005A1C7B685A627B685B8D9BB2013B9AB25F
:10509C007B685A8500BF0C37BD4680BC704780B515
:1050AC0084B000AF786039600023FB737B6893F8A1
:1050BC003D30DBB203F02803282B25D17B681B681D
:1050CC005A687B681B6822F480625A603B6803F064
:1050DC000403002B01D10123FB733B6803F0800315
:1050EC00002B03D17B68DB68BB8102E07B689B698A
:1050FC00BB817B68002283F83C20BA89FB7B194674
:10510C007868FFF733F90EE00023BB607B681B68FF
:10511C005B69BB607B681B689B69BB60BB687B6819
:10512C00002283F83C2000BF1037BD4680BD000034
:10513C0080B584B000AF78607B6893F83D30FB732A
:10514C007B681B685A687B681B6822F4E0625A60B3
:10515C000023BB607B681B685B69BB607B681B685A
:10516C001A687B681B6842F001021A60BB687B6896
:10517C001B681A687B681B6822F480621A607B6863
:10518C001B685B6803F40063B3F5006F72D1FB7BA3
:10519C00222B02D0FB7B2A2B35D17B689B6B1B68A7
:1051AC005B689AB27B685A857B685B8D9BB2002BDF
:1051BC0005D07B681B6C43F004027B681A647B6827
:1051CC001B685A687B681B6822F400625A607B6813
:1051DC009B6B1846FEF7E6F80346012B49D07B681B
:1051EC009B6B694A5A637B689B6B1846FDF75CFFA7
:1051FC000346002B3DD07B689B6B5B6B7A68926B94
:10520C001046984735E07B685B6B1B685B689AB20D
:10521C007B685A857B685B8D9BB2002B05D07B68C5
:10522C001B6C43F004027B681A647B681B685A6829
:10523C007B681B6822F400625A607B685B6B1846C3
:10524C00FEF7B0F80346012B14D07B685B6B4E4A1B
:10525C005A637B685B6B1846FDF726FF0346002BF1
:10526C0008D07B685B6B5B6B7A68526B1046984717
:10527C0000E000BF7B685B8D9BB2002B3ED07B684F
:10528C001B685B6903F00403042B12D17B681B6859
:10529C001A697B685B6AD2B21A707B685B6A5A1CAB
:1052AC007B685A627B685B8D9BB2013B9AB27B68D0
:1052BC005A857B681B685B6903F04003402B12D155
:1052CC007B681B681A697B685B6AD2B21A707B6850
:1052DC005B6A5A1C7B685A627B685B8D9BB2013B94
:1052EC009AB27B685A857B685B8D9BB2002B05D08C
:1052FC007B681B6C43F004027B681A647B681B6C34
:10530C00002B03D0786800F0B7F839E0FB7B2A2B30
:10531C0009D17B6800221A637B68282283F83D2020
:10532C007868FFF71AF87B6893F83D30DBB2282BCE
:10533C0011D17B68154ADA627B6800221A637B689C
:10534C00202283F83D207B68002283F83E20786879
:10535C00FFF719F814E07B681B6B222B02D0FB7B48
:10536C00222B0DD17B6800221A637B68202283F8E4
:10537C003D207B68002283F83E207868FEF7EDFF25
:10538C0000BF1037BD4680BD415A00080000FFFF2A
:10539C0080B584B000AF78607B6893F83D30FB73C8
:1053AC007B68DB6ABB60BB68082B02D0BB68202B18
:1053BC0029D1FB7B282B26D17B682E4ADA627B68AD
:1053CC001B685A687B681B6822F4E0625A607B6831
:1053DC001B686FF480625A617B681B681A687B6873
:1053EC001B6822F480621A607B6800221A637B6857
:1053FC00202283F83D207B68002283F83E207868C9
:10540C00FEF7C1FF31E0FB7B212B29D17B68194AC8
:10541C00DA627B6821221A637B68202283F83D20A4
:10542C007B68002283F83E207B681B685A687B6887
:10543C001B6822F4E0625A607B681B686FF4806220
:10544C005A617B681B681A687B681B6822F480624F
:10545C001A607868FEF708FB7868FEF775FF04E0C1
:10546C007B681B686FF480625A6100BF1037BD46C1
:10547C0080BD00BF0000FFFF80B584B000AF786036
:10548C007B6893F83D30FB737B6893F83E30BB73BD
:10549C00BB7B102B02D0BB7B402B0AD1FB7B222B7E
:1054AC0007D17B681B681A687B681B6822F4006252
:1054BC001A60FB7B03F02803282B07D17B680022A2
:1054CC001A637B68282283F83D2015E07B681B68F3
:1054DC005B6803F40063B3F5006F0AD0FB7B602BB1
:1054EC0007D07B68202283F83D207B68002283F85C
:1054FC003E207B6800221A637B681B685B6803F4A0
:10550C000063B3F5006F62D17B681B685A687B68D7
:10551C001B6822F400625A607B685B6B93F8213045
:10552C00DBB2012B20D07B685B6B6A4A5A637B68C9
:10553C005B6B1846FDF7B8FD0346002B00F0898025
:10554C007B681B681A687B681B6822F001021A6072
:10555C007B68202283F83D207B685B6B5B6B7A68F1
:10556C00526B1046984774E07B689B6B594A5A63A0
:10557C007B689B6B1846FDF797FD0346002B68D0A4
:10558C007B681B685B6903F04003402B0BD17B6885
:10559C001B681A697B685B6AD2B21A707B685B6A9B
:1055AC005A1C7B685A627B681B681A687B681B688C
:1055BC0022F001021A607B68202283F83D207B6870
:1055CC009B6B5B6B7A68926B1046984741E07B68EB
:1055DC0093F83D30DBB2602B25D17B68202283F819
:1055EC003D207B6800221A647B681B685B6903F0B2
:1055FC004003402B0BD17B681B681A697B685B6A84
:10560C00D2B21A707B685B6A5A1C7B685A627B68E0
:10561C001B681A687B681B6822F001021A607868A4
:10562C00FEF7CCFE15E07B681B685B6903F040035A
:10563C00402B0BD17B681B681A697B685B6AD2B202
:10564C001A707B685B6A5A1C7B685A627868FEF732
:10565C00ACFE7B681B6CBB60BB6803F00103002BCA
:10566C000ED1BB6803F00203002B09D1BB6803F019
:10567C000403002B04D1BB6803F00803002B07D0F4
:10568C007B681B685A687B681B6822F4E0625A606E
:10569C007B6893F83D30FB737B681B6C03F0040351
:1056AC00042B13D1FB7B282B10D17B680A4ADA62BE
:1056BC007B6800221A637B68202283F83D207B687C
:1056CC00002283F83E207868FEF75DFE00BF10379D
:1056DC00BD4680BD415A00080000FFFF80B588B070
:1056EC0002AFF860084611461A4603467B810B460A
:1056FC003B811346FB80FB681B681A68FB681B68C0
:10570C0042F480721A607B6A00933B6A00224FF06D
:10571C000111F86800F036FA0346002B0DD0FB6837
:10572C001B681B6803F48073B3F5807F03D1FB689F
:10573C004FF400721A6403235FE07B89DBB21A46D4
:10574C00FB681B6802F0FE021A617B6A3A6A2D49FB
:10575C00F86800F091FA0346002B01D001234CE0CD
:10576C0000237B61FB681B685B697B61FB681B68C2
:10577C009B697B617B697A6A396AF86800F01CFB6B
:10578C000346002B0DD0FB681B6C042B07D1FB6868
:10579C001B681A68FB681B6842F400721A600123CC
:1057AC002BE0FB88012B05D13B89DAB2FB681B6827
:1057BC001A6121E03B891B0A9BB2DAB2FB681B68B9
:1057CC001A617A6A396AF86800F0F6FA0346002B17
:1057DC000DD0FB681B6C042B07D1FB681B681A6887
:1057EC00FB681B6842F400721A60012305E03B89D8
:1057FC00DAB2FB681B681A61002318461837BD46DD
:10580C0080BD00BF0200010080B586B000AF78609B
:10581C007B685B6A7B617B6993F83D30FB747B69C9
:10582C0093F83E30BB747B69DB6AFB607B691B6859
:10583C005A687B691B6822F440725A607B695B6B07
:10584C00002B03D07B695B6B00229A627B699B6B9C
:10585C00002B03D07B699B6B00229A62FB7C03F0CC
:10586C002103212B07D0FB7C03F02203222B31D107
:10587C00BB7C202B2ED17B691B685A687B691B680B
:10588C0022F400625A607B6900225A85FB7C292B2A
:10589C000AD17B6921221A637B69282283F83D2077
:1058AC007869FEF751FD0CE0FB7C2A2B09D17B6952
:1058BC0022221A637B69282283F83D207869FEF73F
:1058CC004CFD7B691B685A687B691B6842F440720B
:1058DC005A6074E07B6993F83E30DBB2002B6ED0DB
:1058EC007B695B8D9BB2012B07D17B691B681A68A6
:1058FC007B691B6822F480621A607B691B685A689A
:10590C007B691B6822F440725A60FB6813F5803F78
:10591C0009D0FB68082B06D0FB68B3F12A4F02D0E4
:10592C00FB68202B07D17B691B681A687B691B6895
:10593C0042F400721A607B691B685A687B691B68A9
:10594C0022F480525A607B691B685A687B691B6819
:10595C0022F400625A607B6900225A857B691B6CB9
:10596C00002B03D07869FEF720FD28E07B6920220C
:10597C0083F83D207B6993F83E30DBB2402B0AD193
:10598C007B69002283F83E207B6900221A637869C8
:10599C00FEF702FD13E07B69002283F83E20FB68D2
:1059AC00082B02D0FB68202B03D17B6900221A63E1
:1059BC0002E07B6912221A637869FEF7BCFC00BF17
:1059CC001837BD4680BD80B584B000AF78607B6869
:1059DC005B6AFB60FB685B6B002B03D0FB685B6B4B
:1059EC0000229A62FB689B6B002B03D0FB689B6BBD
:1059FC0000229A62FB681B681A68FB681B6822F419
:105A0C0080621A60FB6800225A85FB68202283F8AA
:105A1C003D20FB68002283F83E20FB681B6C43F0A2
:105A2C001002FB681A64F868FEF7BFFC00BF103761
:105A3C00BD4680BD80B586B000AF78600023FB60AA
:105A4C007B685B6A7B617B6993F83D30FB744B4BE5
:105A5C001B68DB084A4AA2FB03231A0A13469B0065
:105A6C001344DA00D31AFB60FB68002B06D17B6968
:105A7C001B6C43F020027B691A640AE0FB68013B53
:105A8C00FB607B691B681B6803F40073B3F5007F34
:105A9C00EAD07B695B6B002B03D07B695B6B0022CC
:105AAC009A627B699B6B002B03D07B699B6B0022FA
:105ABC009A627B691B681A687B691B6822F4806296
:105ACC001A607B6900225A857B695B6B002B03D0C3
