:020000040800F2
:1000000000500020D5200008491A00084B1A0008AB
:100010004D1A00084F1A0008511A0008000000008D
:10002000000000000000000000000000531A00085B
:10003000551A000800000000571A0008591A000855
:100040001D2100081D2100081D2100081D21000898
:100050001D2100081D2100081D2100081D21000888
:100060001D2100081D2100081D2100085D1A00083F
:100070001D2100081D2100081D2100081D21000868
:10008000691A00081D2100081D2100081D21000813
:10009000751A00081D2100081D2100081D210008F7
:1000A0001D210008811A00081D2100081D210008DB
:1000B0001D2100081D2100088D1A0008991A00084A
:1000C000A51A00081D2100081D2100081D21000897
:1000D0001D2100081D2100081D210008B11A00087B
:1000E000BD1A00081D2100081D21000800000000A5
:1000F0000000000000000000000000000000000000
:0C01000000000000000000005FF808F1A3
:10010C0010B5054C237833B9044B13B10448AFF345
:10011C0000800123237010BDE401002000000000CA
:10012C002C83000808B5034B1BB103490348AFF3FC
:10013C00008008BD00000000E80100202C830008AE
:10014C00034613F8012B002AFBD1181A013870470B
:10015C0080F0004002E000BF81F0004142001FBF70
:10016C005FEA410392EA030F7FEA226C7FEA236C79
:10017C006AD04FEA1262D2EB1363C1BFD21841406E
:10018C0048404140B8BF5B42192B88BF704710F004
:10019C00004F40F4000020F07F4018BF404211F0A7
:1001AC00004F41F4000121F07F4118BF494292EA0F
:1001BC00030F3FD0A2F1010241FA03FC10EB0C003B
:1001CC00C3F1200301FA03F100F0004302D54942C8
:1001DC0060EB4000B0F5000F13D3B0F1807F06D375
:1001EC0040084FEA310102F10102FE2A51D2B1F16D
:1001FC00004F40EBC25008BF20F0010040EA030062
:10020C007047490040EB0000013A28BFB0F5000FE1
:10021C00EDD2B0FA80FCACF1080CB2EB0C0200FA97
:10022C000CF0AABF00EBC25052421843BCBFD040E6
:10023C001843704792F0000F81F4000106BF80F460
:10024C0000000132013BB5E74FEA41037FEA226C23
:10025C0018BF7FEA236C21D092EA030F04D092F0EE
:10026C00000F08BF0846704790EA010F1CBF002022
:10027C00704712F07F4F04D1400028BF40F000407F
:10028C00704712F100723CBF00F50000704700F09F
:10029C00004343F0FE4040F4000070477FEA2262C6
:1002AC0016BF08467FEA23630146420206BF5FEA97
:1002BC00412390EA010F40F4800070474FF0000397
:1002CC0004E000BF10F0004348BF40425FEA000C5E
:1002DC0008BF704743F0964301464FF000001CE006
:1002EC0050EA010208BF70474FF000030AE000BF5C
:1002FC0050EA010208BF704711F0004302D540429A
:10030C0061EB41015FEA010C02BF8446014600200B
:10031C0043F0B64308BFA3F18053A3F50003BCFA26
:10032C008CF2083AA3EBC25310DB01FA02FC6344D3
:10033C0000FA02FCC2F12002BCF1004F20FA02F2DA
:10034C0043EB020008BF20F00100704702F12002CD
:10035C0001FA02FCC2F1200250EA4C0021FA02F22E
:10036C0043EB020008BF20EADC7070474FF0FF0C33
:10037C001CEAD0521EBF1CEAD15392EA0C0F93EA2E
:10038C000C0F6FD01A4480EA010C400218BF5FEAD0
:10039C0041211ED04FF0006343EA501043EA511143
:1003AC00A0FB01310CF00040B1F5000F3EBF49003D
:1003BC0041EAD3715B0040EA010062F17F02FD2A41
:1003CC001DD8B3F1004F40EBC25008BF20F0010024
:1003DC00704790F0000F0CF0004C08BF49024CEA3B
:1003EC00502040EA51207F3AC2BFD2F1FF0340EACD
:1003FC00C250704740F400004FF00003013A5DDC3E
:10040C0012F1190FDCBF00F000407047C2F100027E
:10041C00410021FA02F1C2F1200200FA02FC5FEA6B
:10042C00310040F1000053EA4C0308BF20EADC70B5
:10043C00704792F0000F00F0004C02BF400010F427
:10044C00000F013AF9D040EA0C0093F0000F01F0D4
:10045C00004C02BF490011F4000F013BF9D041EAF6
:10046C000C018FE70CEAD15392EA0C0F18BF93EAF8
:10047C000C0F0AD030F0004C18BF31F0004CD8D122
:10048C0080EA010000F00040704790F0000F17BFA9
:10049C0090F0004F084691F0000F91F0004F14D0EF
:1004AC0092EA0C0F01D142020FD193EA0C0F03D147
:1004BC004B0218BF084608D180EA010000F000404A
:1004CC0040F0FE4040F40000704740F0FE4040F425
:1004DC00400070474FF0FF0C1CEAD0521EBF1CEAC4
:1004EC00D15392EA0C0F93EA0C0F69D0A2EB0302E2
:1004FC0080EA010C49024FEA402037D04FF080537C
:10050C0043EA111143EA10130CF000408B4238BF40
:10051C005B0042F17D024FF4000C8B4224BF5B1A4E
:10052C0040EA0C00B3EB510F24BFA3EB510340EA9C
:10053C005C00B3EB910F24BFA3EB910340EA9C004A
:10054C00B3EBD10F24BFA3EBD10340EADC001B01BA
:10055C0018BF5FEA1C1CE0D1FD2A3FF650AF8B425E
:10056C0040EBC25008BF20F0010070470CF0004C6B
:10057C004CEA50207F32C2BFD2F1FF0340EAC25096
:10058C00704740F400004FF00003013A37E792F057
:10059C00000F00F0004C02BF400010F4000F013AB5
:1005AC00F9D040EA0C0093F0000F01F0004C02BFB0
:1005BC00490011F4000F013BF9D041EA0C0195E719
:1005CC000CEAD15392EA0C0F08D142027FF47DAFB2
:1005DC0093EA0C0F7FF470AF084676E793EA0C0FA2
:1005EC0004D14B023FF44CAF08466EE730F0004CA0
:1005FC0018BF31F0004CCAD130F000427FF45CAF30
:10060C0031F000437FF43CAF5FE700BF4FF0FF3C9D
:10061C0006E000BF4FF0010C02E000BF4FF0010CF0
:10062C004DF804CD4FEA40024FEA41037FEA226CB9
:10063C0018BF7FEA236C11D001B052EA530C18BFDB
:10064C0090EA010F58BFB2EB030088BFC81738BF40
:10065C006FEAE17018BF40F0010070477FEA226C2E
:10066C0002D15FEA402C05D17FEA236CE4D15FEA2A
:10067C00412CE1D05DF8040B704700BF844608465E
:10068C006146FFE70FB5FFF7C9FF002848BF10F11F
:10069C00000F0FBD4DF808EDFFF7F4FF0CBF012064
:1006AC0000205DF808FB00BF4DF808EDFFF7EAFFEE
:1006BC0034BF012000205DF808FB00BF4DF808EDA9
:1006CC00FFF7E0FF94BF012000205DF808FB00BF9E
:1006DC004DF808EDFFF7D2FF94BF012000205DF824
:1006EC0008FB00BF4DF808EDFFF7C8FF34BF012031
:1006FC0000205DF808FB00BF00220A4930B50B88CA
:10070C00094D013810F8014F14B902B10B8030BDFE
:10071C005A1C92B2B2F5807FEC5414BF13460023DE
:10072C000122EFE7120200201A020020074A10B53E
:10073C001188074C4B1C9BB2B3F5807F138008BF0C
:10074C000023605408BF138010BD00BF12020020AC
:10075C001A02002038B500240D4B0D461C700D4BB1
:10076C0001463F22184607F037F90B4B1F2280F841
:10077C003F402946184607F02FF93222074BC47721
:10078C001A600D22064B1A70064B1C7038BD00BF48
:10079C0040040020E9030020C90300203C04002091
:1007AC004104002010020020194B70B55B6806460E
:1007BC000D4614463BB347F2305316491648002AEF
:1007CC0008BF1C4607F048F9144B0F221846314657
:1007DC0007F002F900221249C2730A22284607F0D8
:1007EC008FF80A2220460F4907F08AF80E4B1B7827
:1007FC0063B10E4B187810F0020003D009220620CA
:10080C000B4B1A7070BD4FF0FF30FBE70120F9E77E
:10081C00040200204483000800000020B9030020DB
:10082C00B30300209D030020E903002040040020B6
:10083C0041040020064B5B683BB1064B1B7813F060
:10084C00020F0CBF0020032070474FF0FF307047A1
:10085C000402002040040020064A10B51188064C02
:10086C004B1C9BB2802B138008BF0023605408BF25
:10087C00138010BD180200201A03002002460D4BF5
:10088C000068516803C390680B4A1860002313700A
:10089C000A4A13700A4A13800A4A13800A4A1380C0
:1008AC000A4A13800A4A13700A4A13600A4A1360F0
:1008BC00704700BF04020020410400209C0300206C
:1008CC001402002012020020160200201802002040
:1008DC0040040020300400202C040020094A136836
:1008EC000BB1013B1360084A136823B1013B136041
:1008FC000BB9064A1370064A13680BB1013B13601F
:10090C00704700BF3C040020380400209C030020EA
:10091C00340400202DE9F84FA24BA34EB3F800B0DD
:10092C00338800255B4506D0A04F3B780D3B022B4E
:10093C0020D8A6F800B09E4E9E4C3368002B40F099
:10094C0039826423994D33602B780F2B00F232825D
:10095C00DFE813F05B0345025E0264026E02A8023C
:10096C00DE02E602F70205031403510356031002DC
:10097C001C022B020223904A904C136033889B4537
:10098C00D9D08F4AD05C22780C2A00F2EE81DFE8B5
:10099C0012F00D005700C500EC01EC017B01900139
:1009AC009801A501EC01C001C501D7010023042267
:1009BC009E468449DFF81082DFF810920B7088F89D
:1009CC0000205FFA83FC59F82C20A2B9BEF1000F6D
:1009DC0001D081F800C00022774B76491A600B7861
:1009EC0013F0010F20D03E281ED162F300030B70D0
:1009FC00774B1A6018E092F804A0013382451CD1A1
:100A0C00BEF1000F01D081F800C013785278303B52
:100A1C00313A03EB830302EB43036E4A1380012349
:100A2C002370052388F80030338801339BB2802B68
:100A3C00338004BF00233380A0E74FF0010EC0E7E2
:100A4C00DFF880C161499CF8002051F822205E49F2
:100A5C00097812F801E0864514D1DFF878C1BCF8AA
:100A6C000030013B9BB2ACF800300BB10D284DD1DE
:100A7C009378D278303B03EB8303303A02EB430399
:100A8C002370D1E700229146C1F57F4A8CF80020F3
:100A9C000AF1D30ADFF834C15FFA82F85CF828C097
:100AAC00BCF1000F0CD1B9F1000F04D0494A1580EC
:100ABC00444A82F800800022013B22703380B3E765
:100ACC009CF800E09CF80150AEF1300E0EEB8E0E4F
:100ADC00554405EB4E05ADB27F2D1BD81CF801E03B
:100AEC00864517D13B4B1D80B9F1000F02D0354B19
:100AFC0083F8008055B99CF802309CF80320303BF9
:100B0C0003EB8303303A02EB430323702E4B01318A
:100B1C00197089E74FF001090132BBE70A2883D12C
:100B2C000022284B22701B78023B0D2B3FF67CAF2A
:100B3C0001A151F823F000BF7D0B0008970B0008B2
:100B4C00ED0B0008350A0008190C0008190C0008F8
:100B5C003B0C0008470C00085F0C00083B0C00081D
:100B6C00350A00087F0C0008350A0008890C0008BB
:100B7C003B78022B7FF458AF00220D4B1A600D4AC4
:100B8C00137843F0200313704EE70A4A13781907C1
:100B9C007FF54AAF23F0480313700F4B1A880F4BA5
:100BAC001A8041E7180200201602002041040020A0
:100BBC003C04002040040020380400209C0300204A
:100BCC001A030020010200200002002038840008D3
:100BDC00340400209A03002012020020140200208A
:100BEC00984B1A603B78062B974B02BF1A7842F051
:100BFC0020021A701A7842F002021A70934B1B688A
:100C0C00002B3FF411AF032098470DE78E4A137861
:100C1C0023F0420313708D4B1B680BB100209847D7
:100C2C003B78062B3FF400AF0F233B70FCE6864B62
:100C3C001A786FF386121A70F6E6834B1A786FF3F4
:100C4C00C3021A70814B1B68002B3FF4EDAE0A20D7
:100C5C00DAE77C4B1A607C4A137823F0600343F08C
:100C6C0060031370794B1B68002B3FF4DDAE07203B
:100C7C00CAE7754A137823F0420384E7724A137863
:100C8C0023F042031370CFE7714A2C28126807D166
:100C9C0006232370002A3FF4C7AE6E489047C3E684
:100CAC000021013B21703380002A3FF4BDAE6A481D
:100CBC00F4E722287FF4B8AE072323700022674B99
:100CCC006EE7222803D0654A1388102B01D1082324
:100CDC00D6E6591C1180624AD054A5E60A287FF446
:100CEC00A3AE00235D4A237011885D4A0F299BBF78
:100CFC005354554913700A789FBF42F020020A7072
:100D0C00504A1360514B1B68002B3FF48DAE0420EE
:100D1C007AE72C287FF4CFAE0B23CEE73A2801D10B
:100D2C000C23ADE6A0F13002092A3FF6C4AE4B4AC3
:100D3C00138803EB830300EB4303303B138073E610
:100D4C00484B9B6803B19847444A1388013B9BB2BC
:100D5C001380002B7FF468AE23703D4B1B68002B77
:100D6C003FF462AE404898475EE600233F4A23704A
:100D7C00136059E63B4B00201B689847344B1B68AB
:100D8C000BB13B4898470E232B7013E0354B0120D9
:100D9C001B6898472E4B1B680BB1364898470F239E
:100DAC002B704FF4FA73336004E0012300222B7094
:100DBC00314B1A702378DA0740F129812F4A1268D7
:100DCC005AB962F30003012223702D4B2D491A707E
:100DDC000A2308882C4933600880BDE8F88F264A1E
:100DEC0013782BB1013BDBB213701BB90D23CBE78E
:100DFC0004231370237825486FF345132370FFF7F2
:100E0C007BFC134B1B680BB1214898470223BBE7B3
:100E1C002378980640F1A1800323B5E71D48FFF71E
:100E2C006BFC0B4B1B680BB11B4898470423ABE7BF
:100E3C001A48FFF761FC064B1B680BB11848984722
:100E4C000523A1E73C0400204004002030040020CE
:100E5C002C040020488300085D8300089A030020BE
:100E6C00A303002004020020718300083804002032
:100E7C00848300089A8300081002002034040020A8
:100E8C00410400201202002014020020CD8500082D
:100E9C00B0830008B1850008BE830008BF85000838
:100EAC00D28300082378990701D507236CE76D4F8F
:100EBC003B78002B3FF47EAF6B48FFF71DFC2220E4
:100ECC00FFF734FC3846FFF717FC2220FFF72EFC07
:100EDC002C20FFF72BFC2220FFF728FC6348FFF7A0
:100EEC000BFC2220FFF722FC0D20FFF71FFC0A2031
:100EFC00FFF71CFC5E4B1B680BB15E4898472378D0
:100F0C006FF34513237006232B7040F2DC534AE732
:100F1C0023789A0621D5072304222B70564B48E7D9
:100F2C000022564B56481A70FFF7E6FB504B1B68D5
:100F3C000BB15448984723786FF34513237008235B
:100F4C0022E723789B0601D509231DE74A4A13782B
:100F5C00013BDBB21370002BA7D1012314E74A4BE2
:100F6C001B78002B3FF426AF4848FFF7C5FB404BDE
:100F7C001B680BB1464898470A2305E74548FFF71D
:100F8C00BBFB2220FFF7D2FB4348FFF7B5FB222027
:100F9C00FFF7CCFB2C20FFF7C9FB2220FFF7C6FB89
:100FAC003948FFF7A9FB2220FFF7C0FB2C20FFF7E5
:100FBC00BDFB3A48FFF7A0FB2C20FFF7B7FB3848E6
:100FCC00FFF79AFB2C20FFF7B1FB3020FFF7AEFBAD
:100FDC000D20FFF7ABFB0A20FFF7A8FB244B1B6887
:100FEC000BB130489847237823F0600323700B2310
:100FFC002B70C823D7E623789F06AED50C23C3E607
:10100C0023789807A9D559069ED50023CBE6264D03
:10101C0026492A88098891423FF4DFAE244E5F07A7
:10102C00B05C02D53E2808BF0A20224B5B6898476B
:10103C0000283FF4D2AE22782B8851070AD5F15CF8
:10104C003E2907D1052122F0050242F0010222704F
:10105C00194A116001339BB2B3F5807F08BF00239E
:10106C002B80BAE6E9030020A7850008C9030020FD
:10107C002C040020E683000810020020A3030020AB
:10108C009C850008F9830008B903002081850008BD
:10109C000A8400088F85000800000020B30300209C
:1010AC009D0300202084000814020020120200205E
:1010BC001A02002004020020340400201848194BA6
:1010CC0030B503604FF4807383604FF460230024C9
:1010DC000125C361022385B0CDE901440394057356
:1010EC0004754460036101F019FA08B100F0BAFB11
:1010FC0006230B4801A9CDE90145039301F0A0F8A3
:10110C0008B100F0AFFB01220223054801A9CDE98B
:10111C00012301F095F808B100F0A4FB05B030BD37
:10112C00880400200024014030B5054687B0102209
:10113C00002102A806F048FC2A681C4B9A4233D1C5
:10114C0003F56C439A691A4842F400729A619A69E1
:10115C0002A902F400720092009A9A69154C42F0AE
:10116C0004029A619B6903F004030193019B03231E
:10117C00CDE9023301F020FC00230F4A8021C4E9A1
:10118C0000234FF480724FF48060C4E903122022D4
:10119C00C4E905022046A360E36101F0A1FA08B19D
:1011AC0000F060FB2C62656207B030BD002401408A
:1011BC000008014044040020080002400E4B07B513
:1011CC005A690B2042F001025A6100225B691146F8
:1011DC0003F001030193019B01F030FA0B2001F0A5
:1011EC005DFA00221020114601F028FA102003B0FD
:1011FC005DF804EB01F052BA0010024010222DE908
:10120C00F04788B00DEB0200002106F0DDFB3C4BF3
:10121C0000249A69012642F010029A6102274FF4C9
:10122C0000599A69DFF8DCA002F010020092009AD3
:10123C009A69354D42F020029A619A69504602F043
:10124C0020020192019A9A69DFF8C08042F00402F0
:10125C009A619A694FF4005102F004020292029AC8
:10126C009A6942F008029A619B69002203F0080314
:10127C000393039B01F07EFC2846002241F282017D
:10128C0001F078FC002240464FF4004101F072FC62
:10129C00504604A9CDE90496CDE9064701F08CFB34
:1012AC0041F28203284604A9CDE90436CDE906476C
:1012BC0001F082FB164B284604A9CDE90534CDF884
:1012CC00109001F079FB4FF40043404604A9CDE99E
:1012DC000436CDE9064701F06FFB4023284604A9EC
:1012EC00CDE90434069601F067FB224621462820FE
:1012FC0001F0A4F9282001F0D1F908B0BDE8F0877D
:10130C000010024000100140000C01400008014098
:10131C000000311008B50B480B4A0C4BC0E90023F8
:10132C0000234FF48042C0E90233C0E90423C0E932
:10133C000633036201F082FD18B1BDE8084000F0ED
:10134C0091BA08BDFC04002000540040A0860100A6
:10135C0070B51026054686B03246002102A806F06C
:10136C0033FB2A68264B9A4248D1264C4FF44072E4
:10137C00A369254843F00803A361A36902A903F0FC
:10138C0008030093009B1223CDE90223032305934A
:10139C0001F012FB1D4A536843F0E06343F0020373
:1013AC005360E369802243F40013E361E369184C52
:1013BC0003F400130193019B164B2046C4E900363D
:1013CC000023C4E90232C4E90433C4E9063301F052
:1013DC0087F908B100F046FA00221F2011466C6311
:1013EC00656201F02BF91F2001F058F90022202032
:1013FC00114601F023F9202001F050F906B070BD20
:10140C000054004000100240000C0140000001405C
:10141C00B80400206C00024007B502238DF80700C9
:10142C0001220DF10701044804F01DFCB0FA80F014
:10143C00400903B05DF804FB600C00201FB50246A8
:10144C000749684606F0A0FA6846FEF779FE0A23BB
:10145C0082B26946034804F006FC05B05DF804FB53
:10146C00D2850008A80C0020024600B101220221FE
:10147C00014801F07FBB00BF000C014010B594B0D7
:10148C00142200210CA806F09FFA142200210DEB67
:10149C00020006F099FA1022002101A806F094FA35
:1014AC0002244FF480330122CDE91143CDE90A2304
:1014BC004FF4E0130AA80E92139303F069FC08B1E1
:1014CC0072B6FEE70F23CDE905344FF48063079025
:1014DC00CDE90830214605A803F01CFE08B172B610
:1014EC00FEE7122301934FF40043CDE9033001A82A
:1014FC0003F0CCFE08B172B6FEE714B010BD0000CC
:10150C0073B500F02BFEFFF7B9FFFFF777FEFFF77F
:10151C0055FE00F0F5FB00F029FD05F0F5FFFFF797
:10152C00F9FE00F057FC00F08FFC00F0E7FA00F039
:10153C0039FDFFF7C3FD2C4B2C489A692C4D42F01A
:10154C0001029A619B692B4A03F001030193019BF1
:10155C005368294E23F0E06343F00073536003F0AB
:10156C0083FF0021214804F05DFA244803F07CFF3E
:10157C002349244800F078F9234800F001FA234865
:10158C00234B4360234B0360234B8360FFF776F9B7
:10159C0022492348FFF7DEF801222249224804F0B1
:1015AC007AFD02222149224800F004FF214CFFF76A
:1015BC00B1F9FFF73FF9032809D12B783BB947F272
:1015CC00305230461146FFF7EFF801232B70237889
:1015DC00002BECD0184B1948197805F0E7FF0028C0
:1015EC00E4D12070E2E700BF00100240040C0020A0
:1015FC005405002000000140F18500082C0B002050
:10160C00BC0B0020740B0020FC0400205C050020A7
:10161C00251400087514000849140008DB8500081F
:10162C00E485000868050020600C002056050020A9
:10163C0088040020690500206A0500206B05002045
:10164C0010B5194C2378032B0AD8DFE803F0020AF3
:10165C001D254021154801F087FA08B90123237094
:10166C0010BD4021114801F07FFAD8B9104A137807
:10167C000133DBB213701378032B88BF1070012277
:10168C000C4B1A700223EAE74021084801F06CFA6F
:10169C000028E5D00323E2E74021044801F064FA76
:1016AC000028EFD00023DAE791060020000C01405F
:1016BC005A0500209006002010B50D4C23780133FC
:1016CC00DBB2082B237011D90A4B0B491A680B4853
:1016DC0006F05AF90948FEF733FD4FF0FF3382B29A
:1016EC000649074804F0BFFA0023237010BD00BF61
:1016FC006B06002014000020FE8500086C060020FC
:10170C00A80C002038B50268144B04469A4218D134
:10171C00134DFFF795FF2B780133DBB2042B2B70A5
:10172C000FD94FF400510F4801F029FA0E4B8021CC
:10173C001A780E486AB101F022FAFFF7BDFF0023B8
:10174C002B7022680A4B9A4206D1BDE83840FFF74D
:10175C00C5B801F00FFAF2E738BD00BF002C01400C
:10176C00530500200010014092060020000C01409F
:10177C000008004000F0E4B8B0F5005F05D1034A62
:10178C0013680133136000F0A1BB70478C06002076
:10179C0038B502681B4B9A4232D11B4B1B4C187844
:1017AC002378EBB91A4A1B491378CD5C854212D1C8
:1017BC000133DBB21370CB5C23B9012121701649C4
:1017CC000B701370FFF748F8BDE8384001220E4942
:1017DC00124804F060BCA0F153014B424B41F0E7BE
:1017EC000D4A222813780E4D01D00E2B04D900215E
:1017FC00E95421701170E5E7591C1170E854E1E7C8
:10180C0038BD00BF0048004068050020520500208C
:10181C00510500201886000850050020600C00209F
:10182C000400002055220C4B10B51A7053225A702C
:10183C0042229A70202203F8032F4218904206D1BC
:10184C000122064B04311970054B1A7010BD10F8AB
:10185C00014B03F8014FF1E76B0500206A050020EE
:10186C006905002072B6FEE770B500240368124DBE
:10187C005C63124E9C630B6822469C63286031604B
:10188C000F484FF4004101F075F92146286804F027
:10189C00C9F80421286804F0C5F80421306804F064
:1018AC00C1F82B681B685C639C6333681B689C6382
:1018BC00044B1C805C8070BD9C06002098060020A8
:1018CC0000080140940600207FB501230A22CDE9CF
:1018DC0001328DF817000DF117020548009278219E
:1018EC000022006801F052FB07B05DF804FB00BF5A
:1018FC00240B002037B5044680255038C0B2FFF7C2
:10190C00E3FF0020FFF7E0FF1020FFF7DDFF094B9E
:10191C0009492A4601EBC411184606F0A5F8CDE991
:10192C0000050648012340227821006801F0BEFB27
:10193C0003B030BDA006002022070020240B00209D
:10194C00084B1B6883420BD1074B18780130C0B28F
:10195C000728187001D8FFF7CDBF0022034B1A706F
:10196C00704700BF240B0020200700202107002017
:10197C004FF480620021014806F026B822070020AF
:10198C00F0B5194E85B03060642000F00BFC1824C3
:10199C00164D15F8010B013CFFF796FF14F0FF04F0
:1019AC00F7D1FFF7E5FFB0246427114D2046FFF770
:1019BC008BFF0020FFF788FF1020FFF785FF8023A7
:1019CC00CDE900530297013401234022782130687D
:1019DC00E4B201F0DBFAB82C05F18005E6D1002069
:1019EC00044B187005B0F0BD240B002020860008B5
:1019FC0022070020210700200E4B82B09A6942F08A
:101A0C0001029A619A6902F001020092009ADA6965
:101A1C0042F08052DA61DB69074A03F0805301938C
:101A2C00019B536823F0E06343F08063536002B082
:101A3C00704700BF0010024000000140FEE7FEE7C7
:101A4C00FEE7FEE7FEE770477047704700F098BB73
:101A5C00014800F019BF00BF44040020014800F009
:101A6C0013BF00BFB8040020014802F07DBB00BFCB
:101A7C00DC1B0020014803F025BD00BF040C002036
:101A8C00014803F01FBD00BF2C0B0020014801F0E2
:101A9C00E3BD00BFFC040020014802F035BA00BFD2
:101AAC00FC040020014804F093B900BF600C002036
:101ABC004FF4005001F06CB80B4A0346116810B596
:101ACC0009B90A491160106809490A4C0344091BF9
:101ADC008B4206D905F094FF0C2303604FF0FF30C6
:101AEC0010BD1360FCE700BF280B00200020002075
:101AFC000050002000040000704700007FB5102249
:101B0C00002102A805F060FF482215481549002362
:101B1C00C0E9001242F20F72CDE90033C0E9032391
:101B2C0083608023836103F0A1FD08B1FFF79AFE67
:101B3C004FF480530A4802A9029303F07DFE08B1CA
:101B4C00FFF790FE002369460548CDE9003303F00A
:101B5C006BFF08B1FFF786FE07B05DF804FB00BF12
:101B6C002C0B00200008004007B50368174A93426D
:101B7C0014D1174B19209A6942F400629A61002221
:101B8C009B69114603F400630093009B00F056FD23
:101B9C00192003B05DF804EB00F080BD0D4A9342B0
:101BAC0010D10B4B1E20DA6942F00402DA610022DC
:101BBC00DB69114603F004030193019B00F03EFD29
:101BCC001E20E6E703B05DF804FB00BF002C0140CB
:101BDC000010024000080040036882B0B3F1804F4F
:101BEC000CD103F50433DA6942F00102DA61DB69E6
:101BFC0003F001030093009B02B07047064A934226
:101C0C00FAD1064BDA6942F00202DA61DB6903F0C1
:101C1C0002030193019BEFE7000400400010024017
:101C2C00102210B5044688B00DEB0200002105F01F
:101C3C00CBFE23682C4A934215D12C4B4FF4807069
:101C4C009A6904A942F004029A619B6903F00403A7
:101C5C000193019B0223CDE904032548079300F06F
:101C6C00ABFE08B010BDB3F1804F1DD103F50433AA
:101C7C009A69082142F008029A619B691D4803F099
:101C8C0008030293029B0223CDE9041304A90793D2
:101C9C0000F092FE184A536823F4407343F0E0635B
:101CAC0043F480735360DCE7144A9342D9D10F4B51
:101CBC0010489A6904A942F008029A619B69302283
:101CCC0003F008030393039B0223CDE9042307933A
:101CDC0000F072FE084A536823F4406343F0E0635B
:101CEC0043F40063DEE700BF002C0140001002400B
:101CFC0000080140000C01400000014000040040BD
:101D0C0010B596B01022002103A805F05DFE00244A
:101D1C001C2221460DEB0200CDE9014405F054FED6
:101D2C00202221460EA805F04FFE47232748284ABB
:101D3C00C0E90544C0E9002344F61F638460C0E990
:101D4C00033403F093FC08B1FFF78CFD4FF4805380
:101D5C001E4803A9039303F06FFD08B1FFF782FD42
:101D6C001A4803F0AFFC08B1FFF77CFD00241748BC
:101D7C0001A9CDE9014403F057FE08B1FFF772FD4C
:101D8C0060230022114807A9CDE90734CDE90944A5
:101D9C00CDE90B440D9403F0EDFC08B1FFF762FDA7
:101DAC0000234FF4005209480EA9CDE90E33CDE9BA
:101DBC00103312931392159303F064FE08B1FFF7DE
:101DCC0051FD0248FFF72CFF16B010BD040C00208B
:101DDC00002C014010B500248AB021461C2203A817
:101DEC00CDE9014405F0F0FD47234FF08041154843
:101DFC00C0E9001342F20F738460C0E903348461BC
:101E0C0003F060FC08B1FFF72DFD0E4801A9CDE9E8
:101E1C00014403F009FE08B1FFF724FD0023602202
:101E2C000848CDE9032303A904220593079303F083
:101E3C00A1FC08B1FFF716FD0248FFF7F1FE0AB04E
:101E4C0010BD00BFBC0B002010B500248AB01C22B2
:101E5C00214603A8CDE9014405F0B6FD47231948F6
:101E6C00194A8460C0E9002342F20F738461C0E90F
:101E7C00033403F027FC08B1FFF7F4FC114801A967
:101E8C00CDE9014403F0D0FD08B1FFF7EBFC0022D3
:101E9C0060230C4803A9CDE903320592079203F0A5
:101EAC0069FC08B1FFF7DEFC0422064803A903F025
:101EBC0061FC08B1FFF7D6FC0248FFF7B1FE0AB08F
:101ECC0010BD00BF740B00200004004038B54FF467
:101EDC0000511E4800F048FE01281D4C05D11D4B39
:101EEC005B68A3600223237028E02378022B25D1A2
:101EFC00184B194A5868A368E060C01A174B1B6846
:101F0C00B3FBF2F3B0FBF3F046F2A713984219D8E7
:101F1C00FEF7D4F91249FEF7DDFA4FF08041054681
:101F2C00FEF7C2FB58B928460E49FEF7DBFB00B1A1
:101F3C000C4D0323237001236560237438BD4FF0CF
:101F4C008045F6E7084B63600423CCE7000C0140A6
:101F5C004C0C0020001000E040420F001800002044
:101F6C00000068420000C843000080BF08B54FF471
:101F7C00E1330A480A4AC0E9002300230C22C0E9D5
:101F8C000233C0E905230361C36103F03DFE18B1C0
:101F9C00BDE80840FFF766BC08BD00BFA80C0020D8
:101FAC000038014008B54FF4E1330A480A4AC0E949
:101FBC00002300230C22C0E90233C0E9052303618E
:101FCC00C36103F021FE18B1BDE80840FFF74ABC1D
:101FDC0008BD00BF600C002000480040102210B566
:101FEC00044688B00DEB0200002105F0EDFC2368DF
:101FFC00304A934229D1304B4FF400719A692F48E3
:10200C0042F480429A619A6902F480420092009AEA
:10201C009A6942F004029A619B6903F004030193EC
:10202C00019B0223CDE90413032304A9079300F0B9
:10203C00C3FC4FF48060002304A9CDE904031F48BE
:10204C00069300F0B9FC08B010BD1D4A9342FAD1BA
:10205C00194B04A9DA691B4842F48022DA61DA6967
:10206C00002402F480220292029A9A6942F0080239
:10207C009A619B694FF4806203F008030393039BFE
:10208C000223CDE904230323079300F095FC4FF4BE
:10209C00006304A90B48CDE90434069400F08CFCD1
:1020AC0022462146272000F0C9FA272000F0F6FA34
:1020BC00C9E700BF00380140001002400008014091
:1020CC0000480040000C0140FFF716FD0B480C497E
:1020DC000C4A002302E0D458C4500433C4188C4278
:1020EC00F9D3094A094C002301E013600432A242DF
:1020FC00FBD305F08BFCFFF703FA704700000020C0
:10210C00E40100200C870008E4010020FC1F0020E3
:10211C00FEE7000038B50E4B05461A784FF47A737B
:10212C00B3FBF2F30B4A1068B0FBF3F000F0C4FA07
:10213C00044658B90F2D09D8024629464FF0FF30F6
:10214C0000F07CFA2046044B1D6038BD0120FCE7F2
:10215C001C0000201800002020000020074A08B5B1
:10216C001368032043F01003136000F055FA0F209E
:10217C00FFF7D0FFFFF740FC002008BD0020024015
:10218C00034A044B11681B780B441360704700BF63
:10219C00F00C00201C000020014B1868704700BF99
:1021AC00F00C002038B50446FFF7F6FF0546631C1B
:1021BC001EBF044B1B78E418FFF7EEFF431BA34232
:1021CC00FAD338BD1C0000207047436A10B59A6AD8
:1021DC0012F0500F1BD19A6A42F400729A621A687C
:1021EC00926802F46022B2F5602F0CD11A7B52B9BE
:1021FC009A6A22F480729A629A6AD2045EBF9A6AD0
:10220C0042F001029A621846FFF7DEFF10BD1B6A0E
:10221C00BDE810401B6B1847704708B5406AFFF7C4
:10222C00FBFF08BD7047406A08B5836A43F0400362
:10223C008362C36A43F00403C362FFF7F3FF08BD74
:10224C00002373B5019390F824300446012B6CD015
:10225C00012380F824304D680268062D086805EBD0
:10226C00850322D81F26556B053B9E4025EA0605A3
:10227C0000FA03F32B43536309288B6800EB4005EA
:10228C004FF0070129D9D6681E3DA94026EA010165
:10229C00AB400B43D360A0F11003012B25D90020D8
:1022AC00002384F8243002B070BD0C2D4FF01F05B4
:1022BC0009D8166B233B9D4026EA050500FA03F36B
:1022CC002B431363D8E7D66A413B9D4026EA0505AC
:1022DC0000FA03F32B43D362CEE71069A94020EA3E
:1022EC000101AB400B431361D9E7114B9A4216D154
:1022FC0093681B02D3D49368102843F400039360B3
:10230C00CDD10C4B0C4A1B68B3FBF2F30A2253439E
:10231C000193019B002BC2D0019B013BF8E7A36A00
:10232C00012043F02003A362BAE70220BBE700BF01
:10233C00002401401800002040420F00002337B554
:10234C000193036804469A68D20702D5002003B0B3
:10235C0030BD9A6842F001029A60144B144A1B6813
:10236C00B3FBF2F30193019BE3B9FFF715FF0546AD
:10237C0023689B68DB07E9D4FFF70EFF401B02289C
:10238C00F6D923689B6813F00103F1D1A26A0120EE
:10239C0042F01002A262E26A84F8243042F0010298
:1023AC00E262D4E7019B013BDCE700BF1800002090
:1023BC0040420F002DE9F041404B90460268044624
:1023CC009A420F4602D03E498A4203D15B6813F40D
:1023DC00702F6ED194F82430012B6CD00123204641
:1023EC0084F82430FFF7AAFF064600285DD1A56AC1
:1023FC002168334B25F4706525F0010545F4807593
:10240C009942A56204D12D4A536813F4702F3ED122
:10241C00A36A23F48013A3624B685A0505D5A36AFB
:10242C0023F4405343F48053A362A36A206A13F449
:10243C00805318BFE36A3A4618BF23F00603E362E1
:10244C00002384F824301F4B4C3183621E4BC36233
:10245C001E4B03636FF0020341F84C3C51F8443CB3
:10246C0043F4807341F8443C434600F06BF9236815
:10247C009A6802F46022B2F5602F9A680CBF42F49D
:10248C00A00242F480129A603046BDE8F081A36A43
:10249C0043F48013A36253685B0541BFA06A20F428
:1024AC00405040F48050A062BFE7002384F82430F1
:1024BC00EAE70126E8E70226E6E700BF0024014030
:1024CC0000280140D72100082722000833220008E9
:1024DC0038B5036804469A68D10701D4002038BD8A
:1024EC009A6822F001029A60FFF756FE05462368AF
:1024FC009B68DB07F2D5FFF74FFE401B0228F6D98D
:10250C0023689B68DA07F2D5A36A012043F0100315
:10251C00A362E36A43F00103E362E0E7F8B5044623
:10252C0000286DD0836A23B9C36280F82430FEF78B
:10253C00FBFD2046FFF7CCFFA36A13F0100361D11B
:10254C0000285FD1A26A616822F4885222F002024C
:10255C0042F00202E569A668A262227B2943B6F525
:10256C00807F41EA420136D0771E7D427D412D02AB
:10257C00277D012F06D182BBA269013A45EA42327E
:10258C0042F400652268B6F5807F576827F46947E6
:10259C0045EA0705556097681D4D05EA070545EAAC
:1025AC000105956001D0012E02D12369013B1B0569
:1025BC00D56A25F470052B43D3629268154B1340F2
:1025CC00994213D10023E362A36A23F0030343F07F
:1025DC000103A362F8BD3546CAE7A26A42F02002A5
:1025EC00A262E26A42F00102E262CBE7A36A23F044
:1025FC00120343F01003A362E36A43F00103E362A6
:10260C000120E7E7A36A43F01003A362F8E700BFD9
:10261C00FDF7E1FFFE0E1FFF07490302CA6803F432
:10262C00E06322F4E0621204120C134343F0BF6324
:10263C0043F40033CB60704700ED00E0154B30B530
:10264C00DC68C4F30224C4F10703251D042B28BF46
:10265C000423062D4FF0FF3594BF0024033C05FAEC
:10266C0003F321EA0303A54022EA0502A340002854
:10267C0043EA0203ACBF00F16040074A4FEA031380
:10268C00DBB2ABBF00F5614000F00F0080F8003307
:10269C00135430BD00ED00E014ED00E0002807DB22
:1026AC0001234109034A00F01F00834042F8213006
:1026BC00704700BF00E100E00138B0F1807F0BD221
:1026CC004FF0E023F021054A586182F823100020D6
:1026DC00072298611A6170470120704700ED00E0F5
:1026EC00034610B540B314210068144A0244B2FBEF
:1026FC00F1F292001A64124ADA63022283F8212062
:10270C00D3E901242243DC68016822431C6921F4CB
:10271C007F5122435C6921F0300122439C692243A2
:10272C00DC6922430A43026000200122986383F88B
:10273C00200083F8212010BD0120FCE7F8FFFDBF2D
:10274C0000000240F0B590F82040012C34D0012458
:10275C0080F8204090F82140012CE5B24FF00004A5
:10276C0028D1022680F8216084630468266826F04C
:10277C0001062660D0E90F67BD4075606360436851
:10278C00102BC36A0BBFA260A160E160E2604BB189
:10279C00236843F00E0300202360236843F00103F9
:1027AC002360F0BD236823F004032360236843F007
:1027BC000A03F0E780F820400220F2E790F821208D
:1027CC000346022A06D0042282630120002283F8E9
:1027DC00202070470268C06B116821F00E01116057
:1027EC00116821F00101116001211A6C01FA02F249
:1027FC004260002083F82110E8E7000008B590F84B
:10280C002130022B03D004238363012008BD03680D
:10281C001A6822F00E021A601A6822F001021A607D
:10282C00174A93421FD0143293421ED01432934253
:10283C001DD0143293421DD0143293421DD0143249
:10284C00934214BF4FF080734FF480130D4A5360C2
:10285C00012380F82130002380F82030436B03B132
:10286C0098470020D2E70123F0E71023EEE74FF45E
:10287C008073EBE74FF48053E8E74FF48033E5E7E0
:10288C00080002400000024070B40425C66B026CC4
:10289C003468036895402542196832D04D0730D50D
:1028AC001A6896065EBF1A6822F004021A603E4A45
:1028BC00934219D01432934218D01432934217D049
:1028CC001432934217D01432934217D014329342DD
:1028DC0014BF4FF080634FF48003344A5360C36AD3
:1028EC00002B5ED070BC18470423F6E74023F4E7B6
:1028FC004FF48063F1E74FF48043EEE74FF480230D
:10290C00EBE702259540254235D08D0733D51A6863
:10291C00940606D41A6822F00A021A60012280F882
:10292C002120214A934219D01432934218D01432E8
:10293C00934217D01432934217D01432934217D0CB
:10294C001432934214BF4FF000734FF40013174A24
:10295C005360002380F82030836AC1E70223F6E736
:10296C002023F4E74FF40073F1E74FF40053EEE744
:10297C004FF40033EBE708259540254211D00907A9
:10298C000FD5196821F00E011960012303FA02F228
:10299C007260836380F82130002380F82030036B51
:1029AC009EE770BC704700BF080002400000024068
:1029BC0090F82100704700002DE9F74F00242646BF
:1029CC00DFF888C1624BDFF88CE1DFF88C810A6894
:1029DC0032FA06F502D103B0BDE8F08F0127B740FB
:1029EC0002EA070537EA02027AD14A68032A07D8B5
:1029FC00013A022A00F28380DFE802F092979D00F0
:102A0C00122A00F095806DD8112A00F08B80FF2DD2
:102A1C0098BF81464FF00F0B88BF00F104094FEAB5
:102A2C008602D9F8007088BF203A0BFA02FA27EA1E
:102A3C000A0704FA02F21743C9F80070D1F804909F
:102A4C0019F0805F4CD0DCF8182026F0030742F018
:102A5C000102CCF81820DCF8182007F1804702F0AE
:102A6C000102019207F5803706F0030A019A4FEA3A
:102A7C008A0ABA680BFA0AFB22EA0B0B374A904215
:102A8C005DD002F5806290425BD002F5806290428C
:102A9C0059D002F58062904214BF0422032202FA3C
:102AAC000AF242EA0B02BA609A6819F4801F14BF4A
:102ABC002A43AA439A60DA6819F4001F14BF2A4308
:102ACC00AA43DA605A6819F4003F14BF2A43AA4398
:102ADC005A601A6819F4803F14BF2A43AA431A603B
:102AEC00013674E7DFF878904A4508D010D8A9F57C
:102AFC0080194A4503D0724501D0424587D18A6876
:102B0C00DAB1012A4FF008040CBF076147617EE778
:102B1C00DFF850904A45F2D009F580394A45EDE787
:102B2C00CC6874E7CC68043471E7CC6808346EE781
:102B3C00CC680C346BE7002469E7042467E70022B7
:102B4C00ADE70122ABE70222A9E700BF001002406B
:102B5C000004014000002110000011100008014089
:102B6C0000002210000031108368194214BF0120AC
:102B7C00002070470AB1016170470904FBE7C36884
:102B8C0001EA030221EA030141EA024101617047B3
:102B9C00044A08B55169014202D05061FEF7ECFDC0
:102BAC0008BD00BF00040140016800224B6913F40A
:102BBC00806310D06FF480634B612023026380F834
:102BCC003D3080F83E20036C80F83C2043F0040339
:102BDC00036401207047184670472DE9F8460646F5
:102BEC000F4691461D464FEA114A3368BAF1010F60
:102BFC000CBF5C699C6927EA0404A4B2B4FA84F49F
:102C0C006409A14501D0002025E06A1CEED0FFF735
:102C1C00C3FA089BC01AA84201D8002DE5D133682D
:102C2C00BAF1010F0CBF5B699B6927EA03039BB2E6
:102C3C00B3FA83F35B099945D7D1002320220120F5
:102C4C00336386F83D2086F83E30326C86F83C3093
:102C5C0042F020023264BDE8F8862DE9F0410446CA
:102C6C000F46164698462568686927EA000080B228
:102C7C00C0B16B695A0517D52B68202243F4007339
:102C8C002B606FF480636B610023236384F83D2019
:102C9C0084F83E30236C43F00403236400230120AA
:102CAC0084F83C30BDE8F081731CDDD0FFF774FA7A
:102CBC00A0EB0800B04201D8002ED4D123685A6989
:102CCC0027EA020292B2002ACDD0002320222363ED
:102CDC0084F83D2084F83E30236C1343DDE770B557
:102CEC0004460D46164623685B691B0601D5002079
:102CFC001EE02046FFF758FFC8B96A1CF3D0FFF757
:102D0C004BFA801BA84201D8002DECD123685B69DB
:102D1C0013F08003E7D12022236384F83D2084F84C
:102D2C003E30226C84F83C3042F0200222640120B8
:102D3C0070BD00002DE9F0431546026899461368F2
:102D4C0085B043F480731360DDE90C780E463B4686
:102D5C0000224FF00111CDF800800446FFF73DFF33
:102D6C00236838B11B68DB0502D54FF4007323646C
:102D7C00032620E006F0FE061E613A464346204636
:102D8C001849FFF76AFFA8B9236803905A693946B6
:102D9C0003929B69424603932046039BFFF79FFFD8
:102DAC00064660B1236C042B01BF2268136843F400
:102DBC00007313600126304605B0BDE8F083B9F10D
:102DCC00010F236802D1EDB21D61F4E72A0A1A61E2
:102DDC00394642462046FFF782FF0028E2D123689D
:102DEC00F1E700BF0200010070B504460D4616461F
:102DFC0023685B695B0701D500201EE02046FFF7C6
:102E0C00D3FEC8B96A1CF3D0FFF7C6F9801BA842E1
:102E1C0001D8002DECD123685B6913F00403E7D1D2
:102E2C002022236384F83D2084F83E30226C84F801
:102E3C003C3042F020022264012070BD70B5044683
:102E4C0008B9012070BD90F83D3003F0FF021BB9AA
:102E5C0080F83C20FEF77CFA242384F83D3023686C
:102E6C001A6822F001021A601A6842F400421A60D1
:102E7C001A6822F400421A6002F0E8F93F4B6568C8
:102E8C009D4294BF3E4B3F4B98428CBF0023012385
:102E9C00002BD6D1394E3C4BB542B0FBF3F388BF77
:102EAC004FF496762268516821F03F0141EA030104
:102EBC0082BF73434FF47A76B3FBF6F35160116A19
:102ECC00013321F03F010B431362D169431E2B48A0
:102EDC0021F44F41854221F0FF0132D86D00B3FB44
:102EEC00F5F340F6FC700133034242D0C3F30B03FD
:102EFC001943D1611168D4E9073021F0C0010343B3
:102F0C000B4313609168D4E9030321F40341034399
:102F1C0021F0FF010B439360D168D4E9053021F017
:102F2C00FF0103430B43D3601368002043F00103FC
:102F3C0013602023206484F83D30206384F83E0025
:102F4C0080E7A06850B905EB4505B3FBF5F30133F9
:102F5C00C3F30B037BB143F40043C9E71920684367
:102F6C00B3FBF0F30133C3F30B0323B143F440433E
:102F7C00BEE70423BCE70123BAE700BFA08601002B
:102F8C007F841E00FF083D0040420F002DE9F743EF
:102F9C00044699460F4690460C9EFFF7FDF894F8B0
:102FAC003D300546202B03D0022003B0BDE8F08352
:102FBC0000901923012220463A49FFF70EFE002803
:102FCC00F2D194F83C30012BEED00123206884F828
:102FDC003C3003684246D90758BF036839465CBF8A
:102FEC0043F001030360036823F4006303602123AF
:102FFC0084F83D30402384F83E30002323640A9B40
:10300C0020466362BDF82C306385638D2385264B87
:10301C00E3624B46CDE90065FFF78CFE00282AD011
:10302C000120C2E7FFF75BFE40B1236C042B01BF0C
:10303C002268136843F400731360F1E7636A27682E
:10304C001A4612F8011B39616262628D218D013AB8
:10305C0092B262857A69481E80B2520720850AD5E1
:10306C0048B15A7802333A616362638D0239013B8D
:10307C009BB221856385238D2A4631462046002B41
:10308C00D0D1FFF7B1FE0028CFD12268136843F4EA
:10309C0000731360202384F83C0084F83D3084F8DE
:1030AC003E0082E7020010000000FFFF2DE9FF4701
:1030BC0099460023044602930F4690460C9EFFF758
:1030CC006BF894F83D308246202B16D146F2A812AC
:1030DC00554B1B68B3FBF2F3192253430293029B2B
:1030EC00013B0293029B53B92022236384F83D20B9
:1030FC0084F83E30236C13432364022066E022687C
:10310C0093699907EBD494F83C30012BF5D001234B
:10311C0084F83C3013680025DB0758BF136843491B
:10312C005CBF43F001031360136823F40063136066
:10313C00212384F83D30402384F83E30BDF83430F0
:10314C0025646385638D66629BB2E1622385676447
:10315C00C4F84880C4F84C902565002B57D0606BA0
:10316C0040B333494563816232491032C0E90B5197
:10317C003146FFF7E7FA064600283CD123234246A6
:10318C00009339464B462046CDF804A0FFF7D2FDFC
:10319C00F8B1606BFFF732FB636B9E6223681A68B1
:1031AC0022F480621A6066851A68268522F0010274
:1031BC001A600AE0202384F83D3084F83E00236C2A
:1031CC0084F83C0043F080032364012004B0BDE884
:1031DC00F087236803905A6903929A6984F83C003B
:1031EC000392039A5A6842F480725A605A6842F405
:1031FC0000625A60EAE7202384F83D3084F83E50A0
:10320C00236C84F83C5043F010032364DDE7202248
:10321C0084F83D2084F83E30226C84F83C3042F037
:10322C0040022264D1E700BF180000200000FFFF1D
:10323C003F330008053300087047704770477047EC
:10324C007047704790F83D2008B5036DD2B283B932
:10325C00C36C0268012B836C05D1DBB21361036D67
:10326C000233036508BDC3F307231361036D0133F8
:10327C00F7E7036D012B03D1836C0268DBB2F4E733
:10328C00036D022B2FD1222A05D10268136843F457
:10329C0080731360EAE7438D9BB263B1212A0AD194
:1032AC00436A026813F8011B11614362438D013BB1
:1032BC009BB24385D6E7438D9BB2002BD2D1212AFA
:1032CC00D0D10268516821F4E0615160116841F479
:1032DC00007111602022036380F83D2080F83E309D
:1032EC00FEF748FABEE703685A69120644BF00228B
:1032FC001A61B7E770477047406A08B5436B0BB16A
:10330C0000229A62836B0BB100229A6202681368E6
:10331C0023F48063136000232022438580F83D2032
:10332C0080F83E30036C43F010030364FFF7E3FFB7
:10333C0008BD70B5446A236894F83D1094F83E00BB
:10334C00E26A5D68C9B225F440755D60656BC0B218
:10335C000DB10026AE62A56B0DB10026AE6201F078
:10336C002105212D05D001F02205222D23D1202865
:10337C0021D15A68292922F400625A604FF00003C7
:10338C0063850DD1212323632823204684F83D3007
:10339C00FFF754FF2268536843F44073536070BDC9
:1033AC002A29F7D1222323632823204684F83D3091
:1033BC00FFF745FFEEE794F83E100029EFD0618D42
:1033CC0089B2012902BF196821F48061196059681A
:1033DC0012F5803F21F44071596006D0082A04D0C0
:1033EC00B2F12A4F01D0202A03D1196841F400719F
:1033FC001960596821F480515960596821F40061B1
:10340C00596000236385236C1BB12046FFF773FFC3
:10341C00C5E7202184F83D1094F83E1084F83E3026
:10342C00402904D120462363FFF764FFB7E7082A3D
:10343C0001D0202A05D1002320462363FFF7FDFE8F
:10344C00ADE71223F8E77047002337B546F2A81111
:10345C0001932C4B406A1B6890F83D20B3FBF1F3B1
:10346C0023214B4301930368D2B2019941BB016CF8
:10347C0041F020010164446B0CB10021A162816B0D
:10348C0009B100258D621D6825F480651D6000253D
:10349C00458504B1656301B14D63196821F00101E3
:1034AC00196090F83D10602911D1202380F83D302F
:1034BC00002380F83E300364FFF7C5FF03B030BD36
:1034CC0001990139019119688905CED4D3E702F02D
:1034DC002802282A0ED1196841F0010119601968D7
:1034EC0041F4806119600023036380F83D20FFF7ED
:1034FC0002FFE3E7202380F83D30002380F83E30C4
:10350C00F5E700BF1800002010B590F83D2090F8AA
:10351C003E300446102BD9B2D2B2036801D04029F8
:10352C0013D1222A11D1196821F40061196059684C
:10353C0011F4006106D1602A1EBF202284F83D20C0
:10354C0084F83E100022226307E002F028012829AB
:10355C00EDD10022226384F83D105A6812F4006207
:10356C004FD05A68606B22F400625A6090F8213098
:10357C00012B374B2BD04363FFF740F950B1226836
:10358C00606B136823F001031360202384F83D3033
:10359C00436B9847236C19071FBF2268536823F4A9
:1035AC00E063536094F83D30226CDBB252070DD5CA
:1035BC00282B0BD1274B2022E362002320462363C8
:1035CC0084F83D2084F83E30FFF73BFE10BDA06B25
:1035DC004363FFF713F90028DCD023685A695106BE
:1035EC0005D51A69636A1A70636A013363622268CB
:1035FC00A06B136823F001031360202384F83D3083
:10360C00C6E794F83D10602915D1202184F83D10AF
:10361C0022645A69520605D51A69636A1A70636A7C
:10362C000133636222682046136823F001031360A0
:10363C00FFF709FFAEE75A69500605D51A69636AA8
:10364C001A70636A013363622046FFF754FEA1E7E8
:10365C00553400080000FFFFF0B5044603688FB036
:10366C005A68C66A90F83E0094F83D101028C5B20E
:10367C00C9B202D0402D40F0E5829F69586910F024
:10368C00010F07D1B6F52A0F02D0B6F12A4F51D14E
:10369C000FB0F0BD96054DD5E26AB2F52A0F0CD1EC
:1036AC000122E26294F83E20402A11D1226D52B9D7
:1036BC00626C02F0FE021A61EAE7E26AB2F12A4F8A
:1036CC00F0D10822EDE7626C42F00102D2B2F2E7CF
:1036DC002269B2F5804F1AD194F83D20212A626CF0
:1036EC0011D102F0FE021A61626B0AB1926A2AB918
:1036FC00A26B002ACCD0926A002AC9D05A6842F434
:10370C0000625A60C4E742F00102D2B2EBE7226DCC
:10371C0032B9626CD21102F0060242F0F002CAE732
:10372C00226D012AB4D1626CD21102F0060242F071
:10373C00F102C0E7060703D5960501D5626CE4E7F4
:10374C00860740F1F080960540F1ED8094F83E102C
:10375C00E26A256B94F83D00C9B2222840F0DB8068
:10376C00206D40B9402906D100905A6900929B699E
:10377C000093009B8CE7216D89B92069B0F5404F0F
:10378C000DD101915A6901929A690192019A1A68B4
:10379C0042F480721A60236D0133236578E7618DE2
:1037AC0089B251B902915A6902929A690292029AAB
:1037BC001A6842F400721A6019E0618D89B201290D
:1037CC0049D112F5803F1BD11A6822F480621A602D
:1037DC005A6812F400620CD01A6822F480621A60E3
:1037EC00002203925A6903929B690393039B002363
:1037FC00D3E704925A6904929A690492049AD7E71F
:10380C00082A1CD0202A1AD0122D0DD1012A16D12B
:10381C001A6822F480621A60002205925A69059295
:10382C009B690593059BE2E7102AF1D8864941FA7A
:10383C0002F2D707ECD41A6842F48062EBE71A68FC
:10384C0022F480621A60002206925A6906929A69E2
:10385C000692069AACE7618D89B2022938D1102AFA
:10386C0003D87A49D140CE0718D4196841F40061C5
:10387C001960002107915969079199690791079976
:10388C00196821F48061196059680D05AFD5202A9B
:10389C001BD8072A0ED8012AA9D111E0196841F4C6
:1038AC008061196000210891596908919969089102
:1038BC000899E9E7A2F10801654ACA40D00796D5F4
:1038CC005A6842F480525A6091E712F5803FE3E760
:1038DC00196841F4806119605968090505D5202AD9
:1038EC0016D8072A09D8012A0DD0002209925A6944
:1038FC0009929B690993099B79E7A2F10801544A43
:10390C00CA40D207F1D55A6842F480525A60ECE7AB
:10391C0012F5803FE8E700220A925A690A929B69E5
:10392C000A930A9BB4E67F0740F194805E683605E3
:10393C003FF5AEAE070600F004063ED550053CD56B
:10394C00002E3DD194F83D20258D94F83E10D2B236
:10395C00E06AC9B2C5B9212A18D1082858D0202844
:10396C0056D010F5803F53D05A6822F4E0625A606A
:10397C0011232363002384F83E302023204684F84F
:10398C003D30FFF759FC83E6212A05D040297FF40E
:10399C007FAE222A7FF47CAE628D92B21AB95A683D
:1039AC0022F48062ADE694F83E20402A16D12046DF
:1039BC000FB0BDE8F040FFF745BC002E3FF468AEF9
:1039CC0097057FF565AE212939D1E16A94F83D2040
:1039DC00212A7FF45DAE628D92B24AB1626A12F80E
:1039EC00011B19616262638D013B9BB263854FE6DB
:1039FC0008290DD020290BD011F5803F08D059682B
:103A0C0021F4E06159601123236384F83E20B4E76C
:103A1C005A68204622F4E0625A601A6842F4007236
:103A2C001A6000232022236384F83D2094F83E2062
:103A3C0084F83E30402AA4D1FDF79CFE28E6402DA8
:103A4C007FF426AEB3E700BFEBFFFEFF14000100CE
:103A5C000101000159680E053FF51AAE450600F04C
:103A6C00040140F18680500540F18380002940F02C
:103A7C00838094F83D20222A7FF40AAEE06A628D9E
:103A8C0092B2032A14D91A69636A1A70636A0133F1
:103A9C006362638D013B9BB26385638D9BB2032B89
:103AAC007FF4F6AD2268536823F480635360EFE52E
:103ABC00E56A022D3FF473AF012A3FF670AF0B910C
:103ACC0046F2A811784A1268B2FBF1F202EB8202BC
:103ADC000B920B9A013A0B920B99D1B9226C20469E
:103AEC0042F0200222645A6822F4E0625A601A6999
:103AFC00636A1A70636A01336362638D013B9BB224
:103B0C006385202384F83D3084F83E10FFF7F3FBE7
:103B1C00BEE51A6812F40072DBD1196821F48061D9
:103B2C001960596821F4E06159601969636A197068
:103B3C00636A01336362638D013B9BB2638520230F
:103B4C0084F83D3094F83E3084F83E20402B04D16C
:103B5C0022632046FFF7CEFB9AE5082801D02028E7
:103B6C0001D1002300E0122320462363FFF765FBFD
:103B7C008EE500293FF48CAD92057FF589ADE26AA4
:103B8C00608D616A80B2042809D15A6822F480627F
:103B9C005A601B690B70636A0133636223E7608DA3
:103BAC0080B203280CD15868042A20F48060586035
:103BBC00EFD0022AEDD01A6822F480621A60E8E78E
:103BCC00608D80B20228E4D1042A33D007D8012AB0
:103BDC0007D0022A2ED0186840F4007004E0102A96
:103BEC00F9D1186820F4806018601B690B70616A49
:103BFC004B1C6362638D013B9BB2638523681B691D
:103C0C004B70636A216801336362638D013B9BB225
:103C1C0063854B6823F440734B60202384F83D305C
:103C2C0094F83E30402B4FF0000384F83E3005D121
:103C3C0023638EE7186840F48060D5E7082A90D09B
:103C4C00202A8DE7206C10B30025586987072DD5E5
:103C5C0096052BD5226C02B19D6994F83D2002F09B
:103C6C002802282A16D15A682F0622F480625A603C
:103C7C004FF0000385F00401204654BFA289228B2B
:103C8C00C1F3800184F83C30FFF7DAFA00E59D6956
:103C9C005869DBE700220C9259690C919B6984F8F6
:103CAC003C200C930C9BF3E418000020C60640F15A
:103CBC00B180950540F1AE8094F83D505A68EDB254
:103CCC0022F4E0625A6000220D925A690D921A6831
:103CDC0042F001021A600D9A1A6822F480621A608E
:103CEC005A68100520D505F0F702222A4AD1A06B9C
:103CFC000268526892B26285628D92B21AB1226CDD
:103D0C0042F0040222645A6822F400625A60FEF700
:103D1C004FFE012808D0A06B794B4363FEF76EFD74
:103D2C0010B1A06B436B9847638D9BB213B32368A0
:103D3C005A69510709D51A69636A1A70636A0133A3
:103D4C006362638D013B9BB2638523685A6952069B
:103D5C0009D51A69636A1A70636A01336362638DE9
:103D6C00013B9BB26385638D9BB21BB1236C43F00B
:103D7C0004032364236C13B320460FB0BDE8F0405A
:103D8C00FFF7C2BB606B0268526892B26285628DAB
:103D9C0092B21AB1226C42F0040222645A6822F4E4
:103DAC0000625A60FEF704FE0128BDD0606B544BD4
:103DBC004363FEF723FD0028B6D0606BB2E72A2DD3
:103DCC0006D123632823204684F83D30FFF737FAC9
:103DDC0094F83D30282B0CD14A4B2022E36200236F
:103DEC002046236384F83D2084F83E30FFF729FAFF
:103DFC004EE4236B222B02D0222D7FF449AC0023FE
:103E0C002022236384F83D2084F83E302046FFF7BF
:103E1C0016FA3DE401F0F701212900F0040535D133
:103E2C00070627D5560525D53DBB94F83D00628D78
:103E3C00C0B292B2002A3FF42BAC626A12F8015B5A
:103E4C001D616262628D013A92B26285628D92B29C
:103E5C00002A7FF41DAC29287FF41AAC5A6820463E
:103E6C0022F480625A602823216384F83D30FFF7E6
:103E7C00E5F90DE4002D3FF40BAC95057FF508AC8E
:103E8C00628D92B2002A3FF403ACA7E5400627D519
:103E9C00510525D53DBB94F83D20618DD2B289B238
:103EAC0000293FF4F5AB1969636A1970636A013331
:103EBC006362638D013B9BB26385638D9BB2002B68
:103ECC007FF4E6AB2A2A7FF4E3AB2268536823F431
:103EDC008063536022232363282384F83D3095E7C5
:103EEC00002D3FF4D5AB92057FF5D2AB628D92B22B
:103EFC00002A3FF4CDAB1A69636A1A704BE600BF17
:103F0C00553400080000FFFFF8B5036804465F69EC
:103F1C005E6890F83E2017F48075D2B20AD016F481
:103F2C00807507D06FF4807101255961196841F4CF
:103F3C0000411960B80506D5F10542BF6FF4007158
:103F4C0045F002055961780536D5F10534D5608DFB
:103F5C0094F83D10202AD4F830C080B2C9B25FD199
:103F6C0000285DD101F0F700212804D0282957D171
:103F7C00BCF1210F54D194F83D20E16AD2B208294A
:103F8C0001D020292AD1282A28D12E4A2046E262A3
:103F9C005A6822F4E0625A606FF480625A611A68BF
:103FAC0022F480621A6000232022236384F83D20CF
:103FBC0084F83E30FFF745F93A053FD5F3053DD57A
:103FCC006FF40062236845F008055A61236C2046A3
:103FDC002B432364BDE8F840FFF796BA212A1BD186
:103FEC001849E16222630021202284F83D2084F8E4
:103FFC003E105A6822F4E0625A606FF480625A6193
:10400C001A6822F480621A605A69100648BF196156
:10401C002046FFF713F9CFE76FF480625A61CBE7C4
:10402C006FF48061102A596101D0402A03D11A68BB
:10403C0042F400721A6045F00405BDE7002DC5D1AD
:10404C00F8BD00BF0000FFFFF8B50446E0B190F8E2
:10405C00913203F0FF021BB980F8902203F030FB81
:10406C00032384F8913200232546637155F8040B21
:10407C0002F032F895E80E00206802F01DF80146B7
:10408C0028B1022384F8913201252846F8BD206816
:10409C0002F02CF80028F4D102460127267904F10D
:1040AC001003C1B28E4203F1280318D800210A462E
:1040BC0004F5A873C8B2864203F128031BD895E80F
:1040CC000E00206802F014F805460028D9D101230F
:1040DC006073206884F8913202F0C0FAD5E743E9A6
:1040EC00062203F8277C03F8281C03F8252C43F838
:1040FC00102C0130D5E743E9062203F8272C03F8EE
:10410C00280C03F8252C43F8102C0131D2E738B5D4
:10411C0090F890320446012B10D0012580F8905273
:10412C00006801F0D0FF2946204603F0D0FB206840
:10413C0002F092FA002084F8900238BD0220FCE7CD
:10414C0010B590F890220446012A0AD0012241733E
:10415C0080F89022006802F079FA002084F890022E
:10416C0010BD0220FCE700002DE9F04F044685B09D
:10417C00006802F075FA10F4004500F04F84282511
:10418C00C64E2068B0F844301F0402D405B0BDE818
:10419C00F08FB0F8443013F00F0799B240F0C080A4
:1041AC0011F0100126D103889BB2334043F4004335
:1041BC000380B0F85030227C9BB203EBC20300EBBF
:1041CC004303B3F80434626AC3F309031A44E36289
:1041DC002046626203F0A3FA637B002BD1D0A26A63
:1041EC002168002ACDD1637B43F08003A1F84C30C9
:1041FC006273C6E70788BBB217F4006721D0B0F82A
:10420C00503094F850219BB203EBC20300EB4303F4
:10421C00B3F80C34B4F85621C3F30903C4F86C3169
:10422C0004F5267102F067FC22682046138823F0FF
:10423C0070031B051B0D43F08003138003F060FA21
:10424C009FE719049DD5038823F070031B051B0DF4
:10425C0043F080030380B0F8503094F850219BB2A7
:10426C0003EBC20300EB4303B3F80C34C3F30903B1
:10427C00C4F86C318BB1D4F8641171B1B4F8562117
:10428C0002F039FCD4F86431D4F86C21394613446B
:10429C002046C4F8643103F039FA21680A8893B2D5
:1042AC0012053FF56EAF03F44053B3F5405F3FF496
:1042BC0068AFB1F8502001F20C4092B2835AC3F3AC
:1042CC0009038352D4F860313E2B1DD95F09DB06FC
:1042DC00835A08BF07F1FF379BB243EA87236FEA83
:1042EC0043436FEA53439BB283520B8823F48043BE
:1042FC0023F070031B041B0C83F4405343F4004362
:10430C0043F080030B803CE70BB9835AE7E75F0867
:10431C00DB07835A48BF01379BB243EA8723E2E7A6
:10432C0030F8273019041FFA83F840F1F68030F882
:10433C00273005FB074123F070031B051B0D43F0D1
:10434C00800320F8273091F85C3100F5806EBBB902
:10435C00B0F8503091F850219BB2063303EBC203F6
:10436C003EF81390C9F30909B9F1000F00F0BA80B7
:10437C004B46B1F85621D1F8641102F0BCFBB1E008
:10438C0091F8533191F85021022B40F08980B0F80C
:10439C0050904FEAC20B1FFA89F918F4804AD1F8F1
:1043AC006831D94408F0400C3CD009F102093EF8C0
:1043BC001990C9F30909994513D90023C1F868313B
:1043CC0030F8223023F4804323F070031B041B0CC1
:1043DC0083F4005343F4004343F0800320F822306D
:1043EC0005E0A3EB0903C1F86831002BE8D0BCF160
:1043FC00000F0DD030F8223023F4E04323F070038B
:10440C001B041B0C43F4004343F0C00320F8223080
:10441C00B9F1000F66D0282101FB07414B46B1F8DA
:10442C005821A8E709F106093EF81990C9F30909C2
:10443C00994512D9C1F868A130F8223023F4804391
:10444C0023F070031B041B0C83F4005343F4004350
:10445C0043F0800320F8223005E0A3EB0903C1F8F8
:10446C006831002BE8D0BCF1000F0DD130F82230B0
:10447C0023F4E04323F070031B041B0C43F40043B0
:10448C0043F0C00320F82230B9F1000F2AD02821C4
:10449C0001FB07414B46B1F85A216CE70F8FFFFF28
:1044AC0030F8223023F4E04323F070031B041B0C80
:1044BC0043F4004343F0C00320F8223091F850310C
:1044CC0030F82320DB0012F4804FB0F8502092B269
:1044DC0054D0023213443EF81390C9F30909B9F1D0
:1044EC00000F9BD105FB07F16318D3F86C214A44EC
:1044FC00C3F86C21D3F864214A44C3F86421D3F87F
:10450C0068211AB1D3F86031994541D205FB0743B4
:10451C00204693F8501103F0F9F818F0800F20683A
:10452C003FF42FAE30F8273005FB07FC9BB233402D
:10453C0043F4004320F8273004EB0C03DA7C012A07
:10454C0056D1002107FB0552A1501A7F92B318F0E7
:10455C0040085A7C36D012BBB0F850201B7C92B26B
:10456C001B0100F2044010441A5AC2F309021A52F9
:10457C001A5A92B242F400421A521BE00632134409
:10458C003EF81390C9F30909B9F1000FAAD081E7DD
:10459C0001F5A8712068214402F078F8BDE7012AE2
:1045AC0008D1B0F850201B7C92B200F204401B01E1
:1045BC0010441952282303FB0743197C204603F0AF
:1045CC00AEF8DEE53AB9B0F850201B7C92B21B0174
:1045DC0000F20C40C7E7012AECD1B0F850201B7C4C
:1045EC0092B200F20C401B01104423F80080E1E76A
:1045FC00197C18F4807E9A6A4FEAC10A00F580692A
:10460C001BD1B0F85070BFB25744023739F817704D
:10461C00C7F30907974202D3C3F828E0CEE7D21BB1
:10462C009A625A6A0CF110013A445A62DA6A2144CD
:10463C003A44DA6202F02AF8A3E5B0F850C018F058
:10464C00400E1FFA8CFCD44408F4804800F0F4802F
:10465C000CF1020C39F81CC01FFA88F8CCF3090CC9
:10466C0094452CBF0022A2EB0C029A62002A5BD16B
:10467C00282303FB07435B7C002B41D1B0F850206F
:10468C0000F2044C92B20B0194443CF80320C2F3A8
:10469C0009022CF803203CF803206FEA42426FEA2F
:1046AC00524292B22CF80320B0F8502000F20C4089
:1046BC0092B21044C25AC2F30902C252C25A6FEAF1
:1046CC0042426FEA524292B2C252204603F027F89D
:1046DC00B8F1000F00F0F480282303FB0743226895
:1046EC00197C32F8213023F4E04323F070031B04CF
:1046FC001B0C43F4404343F0800322F82130DFE0ED
:10470C00012BE2D1B0F850E000F2044C1FFA8EFEFF
:10471C00F4440B012CF80320B0F850C000F20C400C
:10472C001FFA8CFC6044CFE7B8F1000F0DD030F8C5
:10473C00212022F4E04222F070021204120C42F406
:10474C00404242F0800220F821204FF0280808FB5C
:10475C00074898F83420012A40F0B280D8F8242079
:10476C0002EB0C0EC8F824E0DA6A6244DA62D8F87C
:10477C003030D8F82020934235D39B1AC8F830300B
:10478C00282303FB074393F811C093B2BCF1000F2D
:10479C0045D1B0F8508000F2044C1FFA88F8C4449C
:1047AC0009013CF801803E2AC8F309082CF8018065
:1047BC0025D94FEA5218D2063CF8012008BF08F15F
:1047CC00FF3892B242EA88226FEA42426FEA5242C2
:1047DC0092B22CF80120282202FB0742128B714660
:1047EC0001F044FF6CE01BB9624688F83430C7E72F
:1047FC00002288F83420C8F830201A46C0E712B9D5
:10480C003CF80120E0E74FEA5208D2073CF80120BF
:10481C0048BF08F1010892B242EA8822D8E7BCF1FD
:10482C00010FD8D1B0F850C000F204421FFA8CFC32
:10483C00624409015352CEE70CF1060C39F81CC046
:10484C001FFA88F8CCF3090C94458CBF7246A2EB86
:10485C000C029A62002A5DD1282303FB07435B7C80
:10486C00002B43D1B0F8502000F2044C92B20B0153
:10487C0094443CF80320C2F309022CF803203CF8C2
:10488C0003206FEA42426FEA524292B22CF80320A4
:10489C00B0F8502000F20C4092B21044C25AC2F34D
:1048AC000902C252C25A6FEA42426FEA524292B2B3
:1048BC00C252204602F033FFB8F1000F3FF40CAFA8
:1048CC00282303FB07432268197C32F8213023F498
:1048DC00E04323F040031B041B0C83F0300343F430
:1048EC00004343F0800322F821304AE4012BE0D14D
:1048FC00B0F850E000F2044C1FFA8EFEF4440B01A9
:10490C002CF80320B0F850C000F20C401FFA8CFCBD
:10491C006044CDE7B8F1000F0DD130F8212022F41E
:10492C00E04222F070021204120C42F4404242F0B7
:10493C00800220F821204FF0280808FB074898F83F
:10494C003420012ABCD1D8F8242002EB0C0EC8F874
:10495C0024E0DA6A6244DA62D8F83030D8F82020E1
:10496C00934232D39B1AC8F83030282303FB0743F9
:10497C0093F811C093B2BCF1000F42D1B0F8508043
:10498C0000F20C4C1FFA88F8C44409013CF8018071
:10499C003E2AC8F309082CF8018022D94FEA521894
:1049AC00D2063CF8012008BF08F1FF3892B242EA67
:1049BC0088226FEA42426FEA524292B22CF80120EE
:1049CC00282202FB0742528B09E71BB9624688F882
:1049DC003430CAE70022C8F8302088F834201A4650
:1049EC00C3E712B93CF80120E3E74FEA5208D207BB
:1049FC003CF8012048BF08F1010892B242EA882233
:104A0C00DBE7BCF1010FDBD1B0F8502000F20C4C0D
:104A1C0092B294440A012CF80230D1E7460512D523
:104A2C0022682046B2F8443023F480631B041B0C2C
:104A3C00A2F8443002F07FFE2946204605B0BDE8BE
:104A4C00F04FFFF77DBB41040AD52268B2F8443021
:104A5C0023F480431B041B0CA2F84430FFF796BBD5
:104A6C00820405D52268B2F8443023F40053F1E7F0
:104A7C00C30419D522682046B2F8403023F0040351
:104A8C001B041B0CA2F84030B2F8403023F0080392
:104A9C001B041B0CA2F8403002F070FE2268B2F826
:104AAC00443023F48053D5E7070548D5684623687E
:104ABC00064619461A4603F1200532F8047B954246
:104ACC0026F8027BF9D1B3F8402092B242F00102F1
:104ADC00A3F84020B3F8402022F001021204120C7B
:104AEC00A3F84020B3F844205605FBD5B3F8442076
:104AFC0022F480621204120CA3F8442030F8022B2A
:104B0C0021F8042B8D42F9D1B3F84020204692B203
:104B1C0042F00802A3F84020B3F8442022F40062CB
:104B2C001204120CA3F84420B3F8402092B242F0C5
:104B3C000402A3F8402002F011FEFFF727BB820508
:104B4C000DD522682046B2F8443023F400731B04C0
:104B5C001B0CA2F8443002F0EAFDFFF717BBC305AB
:104B6C007FF514AB2268B2F8443023F4807371E7FC
:104B7C0070B52824054601F00700444311F0800F5E
:104B8C0014BF04F1100104F5A87105EB040615BF60
:104B9C0001240024747486F8514114BF4919491931
:104BAC00022BCB7008BF0023087008BF0B710A6181
:104BBC0095F89032012B09D00123286885F89032A2
:104BCC0001F0A8FA002085F8900270BD0220FCE7E5
:104BDC00282301F00702534311F0800F10B504464F
:104BEC0018BF03F1100118440BBF03F5A871012382
:104BFC00002309190ABF0919437480F851310A704E
:104C0C0094F89032012B09D00123206884F890325B
:104C1C0001F0E0FB002084F8900210BD0220FCE7BC
:104C2C0070B52824002601F007014C43051985F8BE
:104C3C00501104F5A8710144C5E95923C5F86C61FC
:104C4C0085F85161006801F021FD304670BD2823C4
:104C5C0001F0070103FB0100D0F86C01704770B53F
:104C6C00282501F007014D4344190026C4E9092306
:104C7C000122217405F11001014484F834202363CE
:104C8C00E6626274006801F001FD304670BD38B513
:104C9C00037901F00705AB4204462AD311F0800FCB
:104CAC004FF028031CD001226B4303F11001034485
:104CBC0001445A7401230D708B7094F890229A421F
:104CCC0019D0206884F8903201F057FC25B920687F
:104CDC0004F5267101F0C8FC002084F8900238BD60
:104CEC0000224B4303F5A8710344014483F851217E
:104CFC00E0E70120F3E70220F1E738B5027901F093
:104D0C000F039A42044626D3282301F0070253438B
:104D1C0011F0800F14BF03F1100103F5A8711844B2
:104D2C004FF0000515BF012300230919091914BF01
:104D3C00437480F851318D700A7094F89032012BC5
:104D4C000BD00123206884F8903201F036FC284601
:104D5C0084F8905238BD0120FCE70220FAE710B528
:104D6C00282411F0800F1BBF01F0070104FB010088
:104D7C0004FB0100103008BF00F5A87099B21AB9F5
:104D8C000273C180002010BD012283600273F9E719
:104D9C002DE9F341054638B30368DB0710D42B68C3
:104DAC009F075ED42B68190700F195802B685A0772
:104DBC0000F1C180EB69002B40F02C81002029E030
:104DCC00904C636803F00C03042B07D0636803F06A
:104DDC000C03082B0AD16368DE0307D523689C03F8
:104DEC00DDD56B68002BDAD1012013E06B68B3F5CD
:104DFC00803F12D1236843F480332360FDF7CCF954
:104E0C00064623689803CAD4FDF7C6F9801B6428AC
:104E1C00F7D9032002B0BDE8F0819BB9236823F4D5
:104E2C0080332360236823F480232360FDF7B4F9D7
:104E3C00064623689903B2D5FDF7AEF9801B6428AA
:104E4C00F7D9E6E7B3F5A02F236803D143F4802309
:104E5C002360CFE723F480332360236823F480237B
:104E6C00CBE7684C636813F00C0F07D0636803F052
:104E7C000C03082B10D16368DA030DD423689B074D
:104E8C0002D52B69012BAFD123686A6923F0F80393
:104E9C0043EAC203236085E72A695B4B6AB10122AE
:104EAC001A60FDF779F9064623689F07ECD4FDF7E5
:104EBC0073F9801B0228F7D9ABE71A60FDF76CF980
:104ECC000646236898077FF56DAFFDF765F9801BE3
:104EDC000228F6D99DE7AA694A4E4B4BE2B1012252
:104EEC00C3F88024FDF758F90446736A9B070DD567
:104EFC004FF4FA52454B1B68B3FBF2F3019300BF1E
:104F0C00019B5A1E0192002BF9D14FE7FDF744F992
:104F1C00001B0228E9D97CE7C3F88024FDF73CF993
:104F2C000446736A9F077FF541AFFDF735F9001B07
:104F3C000228F6D96DE7334CE369D80024D4012755
:104F4C00E36943F08053E361E36903F0805300931A
:104F5C00009B2F4E3368D90518D5EB68012B26D151
:104F6C00236A43F001032362FDF716F941F28838F6
:104F7C000646236A9B073FD5002F3FF41BAFE3691E
:104F8C0023F08053E36115E70027E2E7336843F42D
:104F9C0080733360FDF700F980463368DA05DCD4A2
:104FAC00FDF7FAF8A0EB08006428F6D931E7ABB9A5
:104FBC00236A41F2883823F001032362236A23F029
:104FCC0004032362FDF7E8F80646236A9807D3D555
:104FDC00FDF7E2F8801B4045F7D91AE7052B236A49
:104FEC0003D143F004032362BAE723F001032362E5
:104FFC00236A23F00403B6E7FDF7CEF8801B404587
:10500C00B7D906E700100240000042421800002009
:10501C00007000402A4C626802F00C02082A3ED054
:10502C000022022B274B1A662CD1FDF7B5F8064649
:10503C002368990120D42B6AB3F5803F05D16268AF
:10504C00A96822F400320A436260696A62680B4301
:10505C0022F474121343012263601A4B1A66FDF793
:10506C009BF8054623689A013FF5A8AEFDF794F826
:10507C00401B0228F6D9CCE6FDF78EF8801B0228DF
:10508C00D6D9C6E6FDF788F8054623689B017FF55F
:10509C0095AEFDF781F8401B0228F6D9B9E6012B35
:1050AC003FF4A2AE60682B6A00F480329A427FF41F
:1050BC009BAE6B6A00F47010C01A18BF0120A9E6F1
:1050CC0000100240000042420D4A536803F00C01EC
:1050DC00082912D10B48C3F38341DB03405C09D58B
:1050EC005368094AC3F340435043084AD35CB0FBAE
:1050FC00F3F07047064B584370470348704700BFA6
:10510C00001002405286000800127A0050860008F7
:10511C0000093D002DE9F0410D46044610B901206F
:10512C00BDE8F081444A136803F007038B4228D38F
:10513C0021688E0730D4CA0743D43F4A136803F062
:10514C000703AB4265D822683C4D12F0040F6CD1BA
:10515C00130706D56B68226923F4605343EAC20334
:10516C006B60FFF7B1FF6B68354AC3F30313D35C75
:10517C00D840344B1860344B1868FCF7CBFF002038
:10518C00CEE7136823F007030B431360136803F097
:10519C0007038B42C3D1CBE7284B11F0040F1EBF82
:1051AC005A6842F4E0625A60080742BF5A6842F4F7
:1051BC0060525A605A68A06822F0F00202435A60AA
:1051CC00B9E762681D4E012A33681AD113F4003F07
:1051DC00A5D0736841F2883823F00303134373603E
:1051EC00FCF7DAFF07467368626803F00C03B3EB55
:1051FC00820FA2D0FCF7D0FFC01B4045F3D903208F
:10520C008EE7022A02D113F0007FE1E713F0020FC0
:10521C00DEE7136823F007032B431360136803F0D6
:10522C000703AB427FF47BAF8DE76B68E16823F437
:10523C00E0630B436B608BE70020024000100240E0
:10524C00408600081800002020000020044B054A6E
:10525C005B68C3F30223D35C034A1068D8407047E1
:10526C00001002403886000818000020044B054A44
:10527C005B68C3F3C223D35C034A1068D840704701
:10528C0000100240388600081800002003682DE941
:10529C00F3410546D80721D5364CE369D9002BD408
:1052AC000126E36943F08053E361E36903F0805323
:1052BC000193019B304F3B68DA051FD5236A6A685E
:1052CC0013F440732ED1236A6A6823F4407313439A
:1052DC0023621EB1E36923F08053E3612A689107CE
:1052EC0006D52449A8684B6823F4404303434B601C
:1052FC00D30636D4002012E00026DBE73B6843F4EB
:10530C0080733B60FCF748FF80463B68DB05D5D4D7
:10531C00FCF742FFA0EB08006428F6D9032002B08A
:10532C00BDE8F08102F440729A42CCD00120134ABD
:10533C00236AC2F84004002023F44071DF07C2F84E
:10534C0040042162BFD5FCF727FF41F2883807469D
:10535C00236A9807B7D4FCF71FFFC01B4045F7D949
:10536C00DCE7044AE968536823F480030B43536079
:10537C00C0E700BF00100240007000400000424235
:10538C00036A026A70B522F0010202624468826903
:10539C000D6822F073022A438D6823F002032B431D
:1053AC000A4DA8420BD1CD6823F008032B4324F4FB
:1053BC004074D1E90556354323F004032C43446073
:1053CC0082614A684263036270BD00BF002C0140D9
:1053DC00036A026A70B522F4807202624468C26980
:1053EC000D6822F073022A438D6823F4007343EA9C
:1053FC0005230B4DA8420DD1CD6823F4006343EA7D
:10540C00052324F44054D1E90556354323F4806335
:10541C0044EA05144460C2614A68C263036270BD09
:10542C00002C0140036A026A30B522F480520262F9
:10543C004468C2690D6822F4E64242EA05228D688E
:10544C0023F4005343EA0533064DA84202BF4D69CD
:10545C0024F4804444EA85144460C2614A680264BE
:10546C00036230BD002C014090F83D30012B20D15F
:10547C00022380F83D300368DA6842F00102DA60FA
:10548C000D4A93420AD0B3F1804F07D0A2F5943263
:10549C00934203D002F58062934204D19A6802F0E1
:1054AC000702062A03D01A6842F001021A60002093
:1054BC0070470120704700BF002C014070477047B7
:1054CC0070477047036870B5DD681E690446B10704
:1054DC000DD5AA070BD56FF002021A6101220277D3
:1054EC009B699B0769D0FFF7EAFF002323777107BD
:1054FC0010D56A070ED56FF00402236820461A6196
:10550C00022222779B6913F4407F5CD0FFF7D7FF10
:10551C000023237733070FD528070DD56FF008022A
:10552C00236820461A6104222277DB69990750D040
:10553C00FFF7C5FF00232377F20610D5EB060ED537
:10554C006FF01002236820461A6108222277DB696B
:10555C0013F4407F43D0FFF7B2FF00232377F0070B
:10556C0008D5E90706D56FF00102236820461A61B9
:10557C00FCF7C8F8320608D52B0606D56FF080026A
:10558C00236820461A6100F0A4FA700608D5690653
:10559C0006D56FF04002236820461A61FFF791FF91
:1055AC00B20622D5AB0620D56FF020022368204628
:1055BC00BDE870401A6100F08BBAFFF77FFF204600
:1055CC00FFF77EFF91E7FFF779FF2046FFF778FFA3
:1055DC009EE7FFF773FF2046FFF772FFAAE7FFF77E
:1055EC006DFF2046FFF76CFFB7E770BD1E4A0368DE
:1055FC0090420AD0B0F1804F07D0A2F5943290427D
:10560C0003D002F58062904215D14A6823F07003F2
:10561C001343154A90420AD0B0F1804F07D0A2F53F
:10562C009432904203D002F58062904203D1CA6852
:10563C0023F4407313434A6923F08003134303603C
:10564C008B68C3620B688362074B984204BF0B697B
:10565C000363012343610369DB0742BF036923F042
:10566C0001030361704700BF002C014010B50446D4
:10567C0030B390F83D3003F0FF021BB980F83C20AA
:10568C00FCF772FA0223206884F83D30211DFFF7E5
:10569C00ADFF0123002084F8463084F83E3084F8B6
:1056AC003F3084F8403084F8413084F8423084F83C
:1056BC00433084F8443084F8453084F83D3010BDD4
:1056CC000120FCE710B5044630B390F83D3003F0F0
:1056DC00FF021BB980F83C20FCF77EFA02232068FD
:1056EC0084F83D30211DFFF781FF0123002084F851
:1056FC00463084F83E3084F83F3084F8403084F8EB
:10570C00413084F8423084F8433084F8443084F8D3
:10571C00453084F83D3010BD0120FCE7036A026A75
:10572C0070B522F010020262446882690D6822F49E
:10573C00E64242EA05228D6823F0200343EA051372
:10574C000B4DA8420DD1CD6823F0800343EA05131D
:10575C0024F44064D1E90556354323F0400344EA70
:10576C008504446082614A688263036270BD00BF35
:10577C00002C014038B590F83C300446012B4FD03A
:10578C000120082A84F83C003AD006D8BAB1042A81
:10579C0026D0002384F83C3038BD0C2AF9D120687F
:1057AC00FFF740FEC3690A6943F40063C361C36930
:1057BC0023F48063C361C36943EA02232EE02068AB
:1057CC00FFF7DEFD83690A6943F00803836183698F
:1057DC0023F0040383618369134383610020D8E7BA
:1057EC002068FFF79BFF83690A6943F400638361B8
:1057FC00836923F480638361836943EA0223ECE7C2
:10580C002068FFF7E5FDC3690A6943F00803C3612B
:10581C00C36923F00403C361C3691343C361DDE7A8
:10582C000220B9E710B584680A4324F47F4442EAA5
:10583C0003222243826010BD38B590F83C300446F8
:10584C00012B4FF0020000F08E80012284F83D0005
:10585C00206884F83C20836823F47F4323F077038B
:10586C0083600B68602B4FD032D8402B64D016D895
:10587C00202B0DD00AD833F0100109D0012384F865
:10588C003D30002384F83C30104638BD302BF5D128
:10589C00826822F07002134343F0070328E0502B78
:1058AC00ECD14A68CD68016A036A21F00A0123F041
:1058BC000103036283690A4323F0F00343EA0513EF
:1058CC0083610262836823F0700343F057030FE097
:1058DC00B3F5805F0DD0B3F5005F0CD0702BCDD13C
:1058EC00CB68D1E90121FFF79DFF836843F0770373
:1058FC0083600022C2E7CB68D1E90121FFF792FF58
:10590C00836843F48043F3E7036A026A4D6822F02C
:10591C001002C9680262826923F0A00322F470426B
:10592C0043EA051342EA013282610362836823F081
:10593C00700343F06703DBE74A68CD68016A036ACA
:10594C0021F00A0123F00103036283690A4323F067
:10595C00F00343EA051383610262836823F070034A
:10596C0043F04703C4E702468EE710B50124036AEF
:10597C0001F01F018C4023EA04030362036A8A408E
:10598C001A43026210BD000008B529B990F83E30E8
:10599C00012B1DD001202EE0042907D190F83F30B7
:1059AC00012BF7D1022380F83F3014E0082907D1EE
:1059BC0090F84030012BEDD1022380F840300AE002
:1059CC0090F84130012BE5D1022380F8413002E000
:1059DC00022380F83E3000680122FFF7C6FF0F4B10
:1059EC00984209D0B0F1804F0BD1836803F00703C4
:1059FC00062B0DD1002008BD436C43F400434364D7
:105A0C00F3E7074B9842F0D003F580639842ECD053
:105A1C00036843F001030360ECE700BF002C014076
:105A2C0000040040FFF7B0BF30B590F83C300246A0
:105A3C00012B4FF0020022D0136882F83D005C6805
:105A4C000D6824F070042C4398685C600C4CA342E5
:105A5C000AD0B3F1804F07D0A4F59434A34203D0FD
:105A6C0004F58064A34204D1496820F0800001430E
:105A7C0099600123002082F83D3082F83C0030BD53
:105A8C00002C014090F83C300246012B1ED0CB6814
:105A9C00886823F440730343486823F4806303430A
:105AAC00086823F400630343086923F48053034319
:105ABC00486923F4005303430020C96923F480434D
:105ACC000B4311684B6482F83C007047022070470E
