:020000040800F2
:10000000005000208D070008D1040008D904000822
:10001000E1040008E9040008F10400080000000001
:10002000000000000000000000000000F9040008CB
:100030000505000800000000110500081D05000866
:10004000D5070008D5070008D5070008D507000820
:10005000D5070008D5070008D5070008D507000810
:10006000D5070008D5070008D5070008D507000800
:10007000D5070008D5070008D5070008D5070008F0
:10008000D5070008D5070008D5070008D5070008E0
:10009000D5070008D5070008D5070008D5070008D0
:1000A000D507000829050008D5070008D50700086E
:1000B000D5070008D5070008D5070008D5070008B0
:1000C000D5070008D5070008D5070008D5070008A0
:1000D000D5070008D5070008D5070008D507000890
:1000E000D5070008D5070008D50700080000000064
:1000F0000000000000000000000000000000000000
:0C01000000000000000000005FF808F1A3
:10010C0010B5054C237833B9044B13B10448AFF345
:10011C0000800123237010BD5C0000200000000053
:10012C00FC2B000808B5034B1BB103490348AFF384
:10013C00008008BD0000000060000020FC2B0008BF
:10014C00034613F8012B002AFBD1181A013870470B
:10015C0080B588B000AF07F1100300221A605A6016
:10016C009A60DA60334B9B69324A43F01003936117
:10017C00304B9B6903F01003FB60FB682D4B9B69B4
:10018C002C4A43F0200393612A4B9B6903F0200314
:10019C00BB60BB68274B9B69264A43F00403936101
:1001AC00244B9B6903F004037B607B68214B9B69A8
:1001BC00204A43F0080393611E4B9B6903F008032C
:1001CC003B603B6800224FF400511B4800F009FED5
:1001DC0000228021194800F004FE4FF400533B61CB
:1001EC0001237B610023BB610223FB6107F1100338
:1001FC001946114800F05AFC20233B6100237B6117
:10020C000123BB6107F1100319460C4800F04EFCAA
:10021C0080233B6101237B610023BB610223FB61D3
:10022C0007F110031946054800F040FC00BF2037C9
:10023C00BD4680BD0010024000100140000C014082
:10024C0080B500AF00F0C2FA00F00EF8FFF780FFA7
:10025C0000F0AAF900F01EFA024801F053FA00BFB0
:10026C00FDE700BF9800002080B590B000AF07F10B
:10027C00180328220021184602F02AF83B1D002200
:10028C001A605A609A60DA601A610123BB614FF4FC
:10029C008033FB6100233B620123BB6202237B633F
:1002AC004FF48033BB634FF4E013FB6307F1180387
:1002BC00184600F0C7FD0346002B01D000F0CAF829
:1002CC000F237B600223BB600023FB604FF4806331
:1002DC003B6100237B613B1D0221184601F034F881
:1002EC000346002B01D000F0B5F800BF4037BD46E7
:1002FC0080BD000080B500AF2C4B1B78032B45D87C
:10030C0001A252F823F000BF250300083B030008AC
:10031C00650300087B0300082021254800F04AFDF6
:10032C000346002B36D1214B01221A7032E02021DA
:10033C001F4800F03FFD0346002B09D11B4B022246
:10034C001A701C4B1B780133DAB21A4B1A7024E06A
:10035C00164B00221A7020E02021154800F02AFDCF
:10036C000346002B18D0114B03221A7014E02021E5
:10037C000F4800F01FFD0346002B03D00B4B00224F
:10038C001A700AE0094B02221A7006E0074B002291
:10039C001A7002E000BF00E000BF064B1B78022B76
:1003AC0002D1044B00221A7000BF80BD79000020DE
:1003BC00000C01407800002080B500AF0E4B1B787C
:1003CC000133DAB20C4B1A700B4B1B78082B11D97A
:1003DC000A490B4801F05CFF0948FFF7B1FE0346E0
:1003EC009AB24FF0FF330649064801F07DFD024BEF
:1003FC0000221A7000BF80BD92000020142C00084F
:10040C007C000020E000002080B582B000AF786056
:10041C004FF400510C4800F0FCFCFFF76BFF0B4B4A
:10042C001B78002B06D08021094800F0F2FCFFF766
:10043C00C3FF04E000228021054800F0D2FC00BF7D
:10044C000837BD4680BD00BF001001407800002079
:10045C00000C014080B400AF72B600BF00BFFDE7D6
:10046C0080B485B000AF154B9B69144A43F001036F
:10047C009361124B9B6903F00103BB60BB680F4B8C
:10048C00DB690E4A43F08053D3610C4BDB6903F0FC
:10049C0080537B607B680A4B5B68FB60FB6823F0D6
:1004AC00E063FB60FB6843F08063FB60044AFB681D
:1004BC00536000BF1437BD4680BC7047001002402B
:1004CC000000014080B400AF00BFFDE780B400AF76
:1004DC0000BFFDE780B400AF00BFFDE780B400AF04
:1004EC0000BFFDE780B400AF00BFFDE780B400AFF4
:1004FC0000BFBD4680BC704780B400AF00BFBD4696
:10050C0080BC704780B400AF00BFBD4680BC704754
:10051C0080B500AF00F0A0F900BF80BD80B500AF82
:10052C00024801F041F900BF80BD00BF98000020D7
:10053C0080B586B000AF7860144A154BD31A7B6136
:10054C007B693B61134B1B68002B02D1114B124A88
:10055C001A60104B1A687B6813443A699A4207D2A6
:10056C0001F0BEFE03460C221A604FF0FF3309E087
:10057C00084B1B68FB60074B1A687B681344054AE1
:10058C001360FB6818461837BD4680BD005000202C
:10059C0000040000940000207802002080B400AF1A
:1005AC0000BFBD4680BC704780B586B000AF07F178
:1005BC00080300221A605A609A60DA603B460022F7
:1005CC001A605A601E4B1F4A1A601D4B77225A60E4
:1005DC001B4B00229A601A4B4EF65F22DA60184BC6
:1005EC0000221A61164B00225A61154B00229A61A7
:1005FC00134801F037F80346002B01D0FFF72AFF10
:10060C004FF48053BB6007F1080319460C4801F006
:10061C00BBF90346002B01D0FFF71CFF00233B6006
:10062C0000237B603B461946054801F09DFB0346C1
:10063C00002B01D0FFF70EFF00BF1837BD4680BD61
:10064C0098000020002C014080B584B000AF786089
:10065C007B681B680D4A934213D10D4B9B690C4A66
:10066C0043F4006393610A4B9B6903F40063FB60E2
:10067C00FB6800220021192000F0E1F9192000F09C
:10068C00FAF900BF1037BD4680BD00BF002C0140F9
:10069C000010024080B500AF114B124A1A60104B8B
:1006AC004FF4E1325A600E4B00229A600C4B002240
:1006BC00DA600B4B00221A61094B0C225A61084B71
:1006CC0000229A61064B0022DA61054801F0BCFB5E
:1006DC000346002B01D0FFF7BDFE00BF80BD00BF5D
:1006EC00E00000200038014080B588B000AF786091
:1006FC0007F1100300221A605A609A60DA607B6876
:10070C001B681C4A934231D11B4B9B691A4A43F418
:10071C0080439361184B9B6903F48043FB60FB6837
:10072C00154B9B69144A43F004039361124B9B696C
:10073C0003F00403BB60BB684FF400733B610223FE
:10074C007B610323FB6107F1100319460B4800F092
:10075C00ADF94FF480633B6100237B610023BB61E7
:10076C0007F110031946054800F0A0F900BF203727
:10077C00BD4680BD00380140001002400008014019
:10078C00FFF70CFF0B480C490C4A002302E0D4582D
:10079C00C4500433C4188C42F9D3094A094C0023C1
:1007AC0001E013600432A242FBD301F09FFDFFF77E
:1007BC0047FD7047000000205C0000209C2C0008C6
:1007CC005C00002074020020FEE7000080B500AF42
:1007DC00084B1B68074A43F010031360032000F01A
:1007EC0023F90F2000F008F8FFF73AFE0023184613
:1007FC0080BD00BF0020024080B582B000AF7860A1
:10080C00124B1A68124B1B7819464FF47A73B3FBD0
:10081C00F1F3B2FBF3F3184600F03BF90346002B5F
:10082C0001D001230EE07B680F2B0AD800227968D7
:10083C004FF0FF3000F003F9064A7B681360002389
:10084C0000E0012318460837BD4680BD000000209B
:10085C00080000200400002080B400AF054B1B787A
:10086C001A46054B1B681344034A136000BFBD4670
:10087C0080BC7047080000202801002080B400AF25
:10088C00024B1B681846BD4680BC704728010020EF
:10089C0080B485B000AF78607B6803F00703FB6021
:1008AC000C4BDB68BB60BA684FF6FF031340BB60B0
:1008BC00FB681A02BB68134343F0BF6343F4003375
:1008CC00BB60044ABB68D36000BF1437BD4680BC14
:1008DC00704700BF00ED00E080B400AF044BDB6854
:1008EC001B0A03F007031846BD4680BC704700BFC7
:1008FC0000ED00E080B483B000AF0346FB7197F9C4
:10090C000730002B0BDBFB7903F01F02064997F92C
:10091C0007305B09012000FA02F241F8232000BFE6
:10092C000C37BD4680BC704700E100E080B483B05A
:10093C0000AF03463960FB7197F90730002B0ADBD7
:10094C003B68DAB20C4997F907301201D2B20B446A
:10095C0083F800230AE03B68DAB20849FB7903F01C
:10096C000F03043B1201D2B20B441A7600BF0C37B2
:10097C00BD4680BC704700BF00E100E000ED00E028
:10098C0080B489B000AFF860B9607A60FB6803F09E
:10099C000703FB61FB69C3F10703042B28BF042386
:1009AC00BB61FB690433062B02D9FB69033B00E0F6
:1009BC0000237B614FF0FF32BB6902FA03F3DA4389
:1009CC00BB681A407B699A404FF0FF317B6901FA92
:1009DC0003F3D9437B680B40134318462437BD46B9
:1009EC0080BC704780B582B000AF78607B68013BFB
:1009FC00B3F1807F01D301230FE00A4A7B68013BEE
:100A0C0053600F214FF0FF30FFF790FF054B002292
:100A1C009A60044B07221A60002318460837BD461B
:100A2C0080BD00BF10E000E080B582B000AF786000
:100A3C007868FFF72DFF00BF0837BD4680BD80B535
:100A4C0086B000AF0346B9607A60FB7300237B610C
:100A5C00FFF742FF78617A68B9687869FFF790FF11
:100A6C00024697F90F3011461846FFF75FFF00BF9B
:100A7C001837BD4680BD80B582B000AF0346FB7110
:100A8C0097F907301846FFF735FF00BF0837BD460A
:100A9C0080BD80B582B000AF78607868FFF7A2FFA8
:100AAC00034618460837BD4680BD000080B48BB0A5
:100ABC0000AF7860396000237B6200233B6269E100
:100ACC0001227B6A02FA03F3FB613B681B68FA693B
:100ADC001340BB61BA69FB699A4240F058813B688C
:100AEC005B689A4A93425ED0984A934275D8984A6A
:100AFC00934258D0964A93426FD8964A934252D01A
:100B0C00944A934269D8944A93424CD0924A934265
:100B1C0063D8924A934246D0904A93425DD8122BA6
:100B2C002AD8122B59D801A252F823F0B30B000883
:100B3C008D0B00089F0B0008E10B0008E70B000869
:100B4C00E70B0008E70B0008E70B0008E70B0008B1
:100B5C00E70B0008E70B0008E70B0008E70B0008A1
:100B6C00E70B0008E70B0008E70B0008E70B000891
:100B7C00950B0008A90B0008794A934213D02CE07E
:100B8C003B68DB683B6229E03B68DB6804333B6213
:100B9C0024E03B68DB6808333B621FE03B68DB68A2
:100BAC000C333B621AE03B689B68002B02D1042398
:100BBC003B6213E03B689B68012B05D108233B6229
:100BCC007B68FA691A6109E008233B627B68FA6961
:100BDC005A6103E000233B6200E000BFBB69FF2BBE
:100BEC0001D87B6801E07B6804337B61BB69FF2B18
:100BFC0002D87B6A9B0002E07B6A083B9B003B614E
:100C0C007B691A680F213B6901FA03F3DB431A4035
:100C1C00396A3B6901FA03F31A437B691A603B6832
:100C2C005B6803F08053002B00F0B1804D4B9B6947
:100C3C004C4A43F0010393614A4B9B6903F0010357
:100C4C00BB60BB68484A7B6A9B08023352F823306E
:100C5C00FB607B6A03F003039B000F2202FA03F391
:100C6C00DB43FA681340FB607B68404A934213D025
:100C7C007B683F4A93420DD07B683E4A934207D033
:100C8C007B683D4A934201D1032306E0042304E030
:100C9C00022302E0012300E000237A6A02F003023F
:100CAC0092009340FA681343FB602F497B6A9B08C0
:100CBC000233FA6841F823203B685B6803F4801325
:100CCC00002B06D02D4B9A682C49BB6913438B60C3
:100CDC0006E02A4B9A68BB69DB43284913408B60BA
:100CEC003B685B6803F40013002B06D0234BDA68D7
:100CFC002249BB691343CB6006E0204BDA68BB6921
:100D0C00DB431E491340CB603B685B6803F4003344
:100D1C00002B06D0194B5A681849BB6913434B601A
:100D2C0006E0164B5A68BB69DB43144913404B6011
:100D3C003B685B6803F48033002B21D00F4B1A689F
:100D4C000E49BB6913430B6021E000BF0000321059
:100D5C0000003110000022100000211000001210C1
:100D6C00000011100010024000000140000801407A
:100D7C00000C01400010014000140140000401402F
:100D8C000B4B1A68BB69DB43094913400B607B6A48
:100D9C0001337B623B681A687B6A22FA03F3002BEF
:100DAC007FF48EAE00BF00BF2C37BD4680BC7047B1
:100DBC000004014080B485B000AF78600B467B80A6
:100DCC007B689A687B881340002B02D00123FB734D
:100DDC0001E00023FB73FB7B18461437BD4680BC37
:100DEC00704780B483B000AF78600B467B801346AD
:100DFC007B707B78002B03D07A887B681A6103E0C8
:100E0C007B881A047B681A6100BF0C37BD4680BC16
:100E1C00704780B485B000AF78600B467B807B68F0
:100E2C00DB68FB607A88FB6813401A04FB68D943C3
:100E3C007B880B401A437B681A6100BF1437BD4690
:100E4C0080BC704780B586B000AF78607B68002BA3
:100E5C0001D1012372E27B681B6803F00103002BB4
:100E6C0000F08780924B5B6803F00C03042B0CD0D2
:100E7C008F4B5B6803F00C03082B12D18C4B5B6817
:100E8C0003F48033B3F5803F0BD1894B1B6803F41B
:100E9C000033002B6CD07B685B68002B68D101237E
:100EAC004CE27B685B68B3F5803F06D1804B1B68D6
:100EBC007F4A43F4803313602EE07B685B68002B21
:100ECC000CD17B4B1B687A4A23F480331360784B2C
:100EDC001B68774A23F4802313601DE07B685B68F2
:100EEC00B3F5A02F0CD1724B1B68714A43F48023CD
:100EFC0013606F4B1B686E4A43F4803313600BE036
:100F0C006B4B1B686A4A23F480331360684B1B6875
:100F1C00674A23F4802313607B685B68002B13D033
:100F2C00FFF7ACFC386108E0FFF7A8FC02463B6910
:100F3C00D31A642B01D9032300E25D4B1B6803F425
:100F4C000033002BF0D014E0FFF798FC386108E078
:100F5C00FFF794FC02463B69D31A642B01D9032397
:100F6C00ECE1534B1B6803F40033002BF0D100E091
:100F7C0000BF7B681B6803F00203002B63D04C4B53
:100F8C005B6803F00C03002B0BD0494B5B6803F040
:100F9C000C03082B1CD1464B5B6803F48033002BED
:100FAC0016D1434B1B6803F00203002B05D07B6862
:100FBC001B69012B01D00123C0E13D4B1B6823F0C1
:100FCC00F8027B685B69DB00394913430B603AE03C
:100FDC007B681B69002B20D0364B01221A60FFF76F
:100FEC004DFC386108E0FFF749FC02463B69D31A17
:100FFC00022B01D90323A1E12D4B1B6803F0020343
:10100C00002BF0D02A4B1B6823F0F8027B685B693D
:10101C00DB00274913430B6015E0264B00221A60B6
:10102C00FFF72CFC386108E0FFF728FC02463B690F
:10103C00D31A022B01D9032380E11D4B1B6803F04B
:10104C000203002BF0D17B681B6803F00803002B14
:10105C003AD07B689B69002B19D0174B01221A6080
:10106C00FFF70CFC386108E0FFF708FC02463B690F
:10107C00D31A022B01D9032360E10D4B5B6A03F0F9
:10108C000203002BF0D0012000F0CEFA1CE00A4B3A
:10109C0000221A60FFF7F2FB38610FE0FFF7EEFB5E
:1010AC0002463B69D31A022B08D9032346E100BF41
:1010BC00001002400000424280044242924B5B6AA4
:1010CC0003F00203002BE9D17B681B6803F00403D7
:1010DC00002B00F0A6800023FB758B4BDB6903F023
:1010EC008053002B0DD1884BDB69874A43F080532A
:1010FC00D361854BDB6903F08053BB60BB68012374
:10110C00FB75824B1B6803F48073002B18D17F4B4B
:10111C001B687E4A43F480731360FFF7AFFB3861A2
:10112C0008E0FFF7ABFB02463B69D31A642B01D9ED
:10113C00032303E1754B1B6803F48073002BF0D081
:10114C007B68DB68012B06D16F4B1B6A6E4A43F040
:10115C00010313622DE07B68DB68002B0CD16A4B1A
:10116C001B6A694A23F001031362674B1B6A664AC8
:10117C0023F0040313621CE07B68DB68052B0CD1A5
:10118C00614B1B6A604A43F0040313625E4B1B6A9B
:10119C005D4A43F0010313620BE05B4B1B6A5A4A36
:1011AC0023F001031362584B1B6A574A23F00403C4
:1011BC0013627B68DB68002B15D0FFF75FFB38618F
:1011CC000AE0FFF75BFB02463B69D31A41F2883217
:1011DC00934201D90323B1E04B4B1B6A03F002038A
:1011EC00002BEED014E0FFF749FB38610AE0FFF763
:1011FC0045FB02463B69D31A41F28832934201D92E
:10120C0003239BE0404B1B6A03F00203002BEED13F
:10121C00FB7D012B05D13C4BDB693B4A23F0805312
:10122C00D3617B68DB69002B00F08780364B5B68F1
:10123C0003F00C03082B61D07B68DB69022B46D1D1
:10124C00334B00221A60FFF719FB386108E0FFF7F7
:10125C0015FB02463B69D31A022B01D903236DE01F
:10126C00294B1B6803F00073002BF0D17B681B6AC1
:10127C00B3F5803F08D1244B5B6823F400327B68C4
:10128C009B68214913434B601F4B5B6823F474121A
:10129C007B68196A7B685B6A0B431B4913434B6081
:1012AC001B4B01221A60FFF7E9FA386108E0FFF7DF
:1012BC00E5FA02463B69D31A022B01D903233DE020
:1012CC00114B1B6803F00073002BF0D035E0104B72
:1012DC0000221A60FFF7D2FA386108E0FFF7CEFA65
:1012EC0002463B69D31A022B01D9032326E0064B95
:1012FC001B6803F00073002BF0D11EE07B68DB69E8
:10130C00012B07D1012319E00010024000700040AE
:10131C00600042420B4B5B68FB60FB6803F480325D
:10132C007B681B6A9A4206D1FB6803F470127B68D7
:10133C005B6A9A4201D0012300E00023184618375B
:10134C00BD4680BD0010024080B584B000AF78600F
:10135C0039607B68002B01D10123D0E06A4B1B68FC
:10136C0003F007033A689A4210D9674B1B6823F0C5
:10137C00070265493B6813430B60634B1B6803F022
:10138C0007033A689A4201D00123B8E07B681B68D6
:10139C0003F00203002B20D07B681B6803F00403CE
:1013AC00002B05D0594B5B68584A43F4E0635360FB
:1013BC007B681B6803F00803002B05D0534B5B685C
:1013CC00524A43F460535360504B5B6823F0F00275
:1013DC007B689B684D4913434B607B681B6803F02B
:1013EC000103002B40D07B685B68012B07D1474B76
:1013FC001B6803F40033002B15D101237FE07B68BD
:10140C005B68022B07D1414B1B6803F00073002B68
:10141C0009D1012373E03D4B1B6803F00203002B41
:10142C0001D101236BE0394B5B6823F003027B682D
:10143C005B68364913434B60FFF720FAF8600AE00B
:10144C00FFF71CFA0246FB68D31A41F2883293422A
:10145C0001D9032353E02D4B5B6803F00C027B682E
:10146C005B689B009A42EBD1274B1B6803F0070388
:10147C003A689A4210D2244B1B6823F00702224987
:10148C003B6813430B60204B1B6803F007033A685F
:10149C009A4201D0012332E07B681B6803F00403FD
:1014AC00002B08D0194B5B6823F4E0627B68DB6887
:1014BC00164913434B607B681B6803F00803002B31
:1014CC0009D0124B5B6823F460527B681B69DB000C
:1014DC000E4913434B6000F021F802460B4B5B683E
:1014EC001B0903F00F030A49CB5C22FA03F3094AE8
:1014FC001360094B1B681846FFF77EF9002318464A
:10150C001037BD4680BD00BF0020024000100240D5
:10151C002C2C0008000000200400002080B487B0B0
:10152C0000AF0023FB600023BB6000237B61002322
:10153C007B6000233B611E4B5B68FB60FB6803F028
:10154C000C03042B02D0082B03D027E0194B3B6172
:10155C0027E0FB689B0C03F00F03174AD35C7B60FE
:10156C00FB6803F48033002B10D0114B5B685B0CD1
:10157C0003F00103114AD35CBB607B680D4A03FB8B
:10158C0002F2BB68B2FBF3F37B6104E07B680C4AAC
:10159C0002FB03F37B617B693B6102E0054B3B6122
:1015AC0000BF3B6918461C37BD4680BC704700BF66
:1015BC000010024000127A00442C0008542C000841
:1015CC0000093D0080B400AF024B1B681846BD46B5
:1015DC0080BC70470000002080B500AFFFF7F2FF21
:1015EC000246054B5B681B0A03F007030349CB5CFF
:1015FC0022FA03F3184680BD001002403C2C000870
:10160C0080B500AFFFF7DEFF0246054B5B68DB0AD7
:10161C0003F007030349CB5C22FA03F3184680BDA1
:10162C00001002403C2C000880B485B000AF7860FC
:10163C000A4B1B680A4AA2FB03235B0A7A6802FB6B
:10164C0003F3FB6000BFFB685A1EFA60002BF9D154
:10165C0000BF00BF1437BD4680BC7047000000209F
:10166C00D34D621080B582B000AF78607B68002BE0
:10167C0001D1012341E07B6893F83D30DBB2002BB4
:10168C0006D17B68002283F83C207868FEF7DCFFEB
:10169C007B68022283F83D207B681A687B680433E0
:1016AC001946104600F05CFA7B68012283F846204C
:1016BC007B68012283F83E207B68012283F83F205F
:1016CC007B68012283F840207B68012283F841204B
:1016DC007B68012283F842207B68012283F8432037
:1016EC007B68012283F844207B68012283F8452023
:1016FC007B68012283F83D20002318460837BD463D
:10170C0080BD000080B485B000AF78607B6893F832
:10171C003D30DBB2012B01D001233AE07B68022281
:10172C0083F83D207B681B68DA687B681B6842F095
:10173C000102DA607B681B68184A93420ED07B6802
:10174C001B68B3F1804F09D07B681B68144A934225
:10175C0004D07B681B68134A934211D17B681B68C9
:10176C009B6803F00703FB60FB68062B10D07B68BB
:10177C001B681A687B681B6842F001021A6007E05C
:10178C007B681B681A687B681B6842F001021A6050
:10179C00002318461437BD4680BC7047002C01400E
:1017AC00000400400008004080B584B000AF7860B1
:1017BC007B681B68DB68FB607B681B681B69BB6014
:1017CC00BB6803F00203002B20D0FB6803F002037C
:1017DC00002B1BD07B681B686FF002021A617B68C0
:1017EC0001221A777B681B689B6903F00303002BAB
:1017FC0003D0786800F098F905E0786800F08BF970
:10180C00786800F09AF97B6800221A77BB6803F0BD
:10181C000403002B20D0FB6803F00403002B1BD027
:10182C007B681B686FF004021A617B6802221A77CE
:10183C007B681B689B6903F44073002B03D07868AA
:10184C0000F072F905E0786800F065F9786800F04E
:10185C0074F97B6800221A77BB6803F00803002B2D
:10186C0020D0FB6803F00803002B1BD07B681B689F
:10187C006FF008021A617B6804221A777B681B6878
:10188C00DB6903F00303002B03D0786800F04CF9FC
:10189C0005E0786800F03FF9786800F04EF97B6855
:1018AC0000221A77BB6803F01003002B20D0FB68D2
:1018BC0003F01003002B1BD07B681B686FF0100229
:1018CC001A617B6808221A777B681B68DB6903F452
:1018DC004073002B03D0786800F026F905E0786897
:1018EC0000F019F9786800F028F97B6800221A7763
:1018FC00BB6803F00103002B0CD0FB6803F0010361
:10190C00002B07D07B681B686FF001021A617868A6
:10191C00FEF77AFDBB6803F08003002B0CD0FB684C
:10192C0003F08003002B07D07B681B686FF08002EC
:10193C001A61786800F07FFABB6803F04003002B53
:10194C000CD0FB6803F04003002B07D07B681B68AE
:10195C006FF040021A61786800F0F8F8BB6803F089
:10196C002003002B0CD0FB6803F02003002B07D0C6
:10197C007B681B686FF020021A61786800F052FADD
:10198C0000BF1037BD4680BD80B584B000AF786015
:10199C0039600023FB737B6893F83C30012B01D139
:1019AC000223B4E07B68012283F83C207B6802228E
:1019BC0083F83D207B681B689B68BB60BB6823F089
:1019CC007703BB60BB6823F47F43BB607B681B68F9
:1019DC00BA689A603B681B68B3F5005F3ED0B3F5FC
:1019EC00005F00F28780B3F5805F00F08680B3F56E
:1019FC00805F7FD8702B1AD0702B7BD8602B50D087
:101A0C00602B77D8502B3CD0502B73D8402B58D010
:101A1C00402B6FD8302B64D0302B6BD8202B60D060
:101A2C00202B67D8002B5CD0102B5AD062E07B683F
:101A3C0018683B6899683B685A683B68DB6800F03B
:101A4C0074F97B681B689B68BB60BB6843F07703C9
:101A5C00BB607B681B68BA689A604FE07B6818684B
:101A6C003B6899683B685A683B68DB6800F05DF935
:101A7C007B681B689A687B681B6842F480429A609A
:101A8C003CE07B6818683B6859683B68DB681A4621
:101A9C0000F0D4F87B681B685021184600F02BF935
:101AAC002CE07B6818683B6859683B68DB681A4611
:101ABC0000F0F2F87B681B686021184600F01BF9F7
:101ACC001CE07B6818683B6859683B68DB681A4601
:101ADC0000F0B4F87B681B684021184600F00BF945
:101AEC000CE07B681A683B681B681946104600F0CE
:101AFC0002F903E00123FB7300E000BF7B680122C5
:101B0C0083F83D207B68002283F83C20FB7B184641
:101B1C001037BD4680BD80B483B000AF786000BF85
:101B2C000C37BD4680BC704780B483B000AF786082
:101B3C0000BF0C37BD4680BC704780B483B000AF8B
:101B4C00786000BF0C37BD4680BC704780B483B052
:101B5C0000AF786000BF0C37BD4680BC70470000FA
:101B6C0080B485B000AF786039607B681B68FB601F
:101B7C007B682F4A93420BD07B68B3F1804F07D020
:101B8C007B682C4A934203D07B682B4A934208D142
:101B9C00FB6823F07003FB603B685B68FA681343D7
:101BAC00FB607B68224A93420BD07B68B3F1804F79
:101BBC0007D07B681F4A934203D07B681E4A93422E
:101BCC0008D1FB6823F44073FB603B68DB68FA6860
:101BDC001343FB60FB6823F080023B685B69134393
:101BEC00FB607B68FA681A603B689A687B68DA620B
:101BFC003B681A687B689A627B680D4A934203D1F2
:101C0C003B681A697B681A637B6801225A617B689E
:101C1C001B6903F00103002B05D07B681B6923F0C3
:101C2C0001027B681A6100BF1437BD4680BC704747
:101C3C00002C0140000400400008004080B487B034
:101C4C0000AFF860B9607A60FB681B6A7B61FB6867
:101C5C001B6A23F00102FB681A62FB689B693B61FB
:101C6C003B6923F0F0033B617B681B013A6913432A
:101C7C003B617B6923F00A037B617A69BB68134380
:101C8C007B61FB683A699A61FB687A691A6200BFEA
:101C9C001C37BD4680BC704780B487B000AFF8607D
:101CAC00B9607A60FB681B6A7B61FB681B6A23F076
:101CBC001002FB681A62FB689B693B613B6923F469
:101CCC0070433B617B681B033A6913433B617B693F
:101CDC0023F0A0037B61BB681B017A6913437B6112
:101CEC00FB683A699A61FB687A691A6200BF1C3713
:101CFC00BD4680BC704780B485B000AF7860396059
:101D0C007B689B68FB60FB6823F07003FB603A68A0
:101D1C00FB68134343F00703FB607B68FA689A6027
:101D2C0000BF1437BD4680BC704780B487B000AF8D
:101D3C00F860B9607A603B60FB689B687B617B698B
:101D4C0023F47F437B613B681A027B681A43BB68B0
:101D5C0013437A6913437B61FB687A699A6000BF0D
:101D6C001C37BD4680BC704780B485B000AF78602E
:101D7C0039607B6893F83C30012B01D1022346E09B
:101D8C007B68012283F83C207B68022283F83D208B
:101D9C007B681B685B68FB607B681B689B68BB602F
:101DAC00FB6823F07003FB603B681B68FA68134305
:101DBC00FB607B681B68FA685A607B681B68164A74
:101DCC0093420ED07B681B68B3F1804F09D07B68BF
:101DDC001B68124A934204D07B681B68104A9342DA
:101DEC000CD1BB6823F08003BB603B685B68BA68AE
:101DFC001343BB607B681B68BA689A607B680122DE
:101E0C0083F83D207B68002283F83C200023184691
:101E1C001437BD4680BC7047002C014000040040C4
:101E2C000008004080B483B000AF786000BF0C376E
:101E3C00BD4680BC704780B483B000AF786000BFF3
:101E4C000C37BD4680BC704780B582B000AF78605F
:101E5C007B68002B01D1012342E07B6893F8413071
:101E6C00DBB2002B06D17B68002283F84020786817
:101E7C00FEF73AFC7B68242283F841207B681B68C0
:101E8C00DA687B681B6822F40052DA60786800F02C
:101E9C0071F97B681B681A697B681B6822F4904295
:101EAC001A617B681B685A697B681B6822F02A02DE
:101EBC005A617B681B68DA687B681B6842F40052C5
:101ECC00DA607B6800225A647B68202283F8412008
:101EDC007B68202283F842207B6800225A6300230F
:101EEC0018460837BD4680BD80B58AB002AFF86091
:101EFC00B9603B601346FB8000237B61FB6893F861
:101F0C004130DBB2202B75D1BB68002B02D0FB8893
:101F1C00002B01D101236EE0FB6800225A64FB68A0
:101F2C00212283F84120FEF7A9FC7861FB68FA882E
:101F3C009A84FB68FA88DA84FB689B68B3F5805F47
:101F4C0008D1FB681B69002B04D10023FB61BB6823
:101F5C00BB6103E0BB68FB610023BB612EE03B6807
:101F6C0000937B6900228021F86800F048F8034652
:101F7C00002B05D0FB68202283F8412003233AE094
:101F8C00FB69002B0BD1BB691B881A46FB681B68CD
:101F9C00C2F308025A60BB690233BB6107E0FB69FC
:101FAC001A78FB681B685A60FB690133FB61FB689C
:101FBC00DB8C9BB2013B9AB2FB68DA84FB68DB8C4E
:101FCC009BB2002BCBD13B6800937B690022402154
:101FDC00F86800F014F80346002B05D0FB682022AB
:101FEC0083F84120032306E0FB68202283F841207C
:101FFC00002300E0022318462037BD4680BD80B583
:10200C0086B000AFF860B9603B601346FB713BE0F3
:10201C003B6AB3F1FF3F37D0FEF730FC02463B681A
:10202C00D31A3A6A9A4202D33B6A002B01D103239A
:10203C003AE0FB681B68DB6803F00403002B23D039
:10204C00BB68802B20D0BB68402B1DD0FB681B6865
:10205C001B6803F00803082B16D100237B61FB6877
:10206C001B681B687B61FB681B685B687B617B6919
:10207C00F86800F01DF8FB6808225A64FB6800221F
:10208C0083F8402001230FE0FB681B681A68BB68CB
:10209C001340BA689A420CBF01230023DBB21A46E4
:1020AC00FB799A42B4D0002318461837BD4680BD40
:1020BC0080B495B000AF78607B681B680C337B6391
:1020CC007B6B53E8003F3B633B6B23F49073FB64E7
:1020DC007B681B680C33FA6C3A64FB63F96B3A6CE3
:1020EC0041E80023BB63BB6B002BE5D17B681B680D
:1020FC0014333B623B6A53E8003FFB61FB6923F0FE
:10210C000103BB647B681B681433BA6CFA62BB6254
:10211C00B96AFA6A41E800237B627B6A002BE5D13D
:10212C007B681B6B012B19D17B681B680C33FB6024
:10213C00FB6853E8003FBB60BB6823F010037B6473
:10214C007B681B680C337A6CBA617B617969BA69FC
:10215C0041E800233B613B69002BE5D17B682022E1
:10216C0083F842207B6800221A6300BF5437BD46B7
:10217C0080BC704780B584B000AF78607B681B680A
:10218C001B6923F440517B68DA687B681B680A433F
:10219C001A617B689A687B681B691A437B685B6968
:1021AC001343BB607B681B68DB6823F4B05323F0DC
:1021BC000C037A681268B9680B43D3607B681B68A0
:1021CC005B6923F440717B689A697B681B680A43DE
:1021DC005A617B681B682C4A934203D1FFF710FAB3
:1021EC00F86002E0FFF7F8F9F860FA6813469B0014
:1021FC0013449A001A447B685B689B00B2FBF3F3B0
:10220C00224AA2FB03235B091901FA6813469B00BF
:10221C0013449A001A447B685B689B00B2FBF3F290
:10222C001A4BA3FB02035B09642000FB03F3D31AD4
:10223C001B013233154AA2FB03235B0903F0F003A5
:10224C001944FA6813469B0013449A001A447B689D
:10225C005B689B00B2FBF3F20C4BA3FB02035B0924
:10226C00642000FB03F3D31A1B013233074AA2FB91
:10227C0003235B0903F00F027B681B680A449A6016
:10228C0000BF1037BD4680BD003801401F85EB51A3
:10229C000EB46FF0004100B59CB01DAB02900690DF
:1022AC00079104910848094953F8042B05910068DB
:1022BC0002A9019300F092F90022029B1A701CB043
:1022CC005DF804EB03B070470C0000200802FFFF20
:1022DC0003460244934200D1704703F8011BF9E70F
:1022EC00014B1868704700BF0C00002070B5002629
:1022FC000C4D0D4C641BA410A64209D100F078FCC7
:10230C0000260A4D0A4C641BA410A64205D170BDD0
:10231C0055F8043B98470136EEE755F8043B9847CF
:10232C000136F2E7942C0008942C0008942C000839
:10233C00982C00087047704738B50546002940D0E6
:10234C0051F8043C0C1F002BB8BFE41800F0DEF869
:10235C001C4A136833B9636014602846BDE83840E2
:10236C0000F0DAB8A34208D9206821188B4201BFCB
:10237C0019685B6809182160EDE71A465B680BB1B8
:10238C00A342FAD911685018A0420BD1206801441D
:10239C00501883421160E0D118685B6808441060E3
:1023AC005360DAE702D90C232B60D6E7206821189A
:1023BC008B4201BF19685B68091821606360546027
:1023CC00CBE738BD7002002070B50F4E0C4631685B
:1023DC00054611B900F0AAFB30602146284600F0F2
:1023EC00A5FB431C03D14FF0FF34204670BDC41C29
:1023FC0024F00304A042F8D0211A284600F096FBE2
:10240C000130F2D1EFE700BF6C0200202DE9F84358
:10241C00CD1C25F0030508350C2D38BF0C25002DDF
:10242C00064601DBA94204D90C2333600020BDE829
:10243C00F883DFF8D48000F069F8D8F800301C4637
:10244C0044BB29463046FFF7BFFF431C044658D116
:10245C00D8F800402746002F43D1002C4BD02368DE
:10246C003946304604EB030900F060FB814542D14C
:10247C00216830466D1A2946FFF7A6FF01303AD085
:10248C0023682B442360D8F800305A6862BBC8F824
:10249C0000700FE02268521B20D40B2A17D9611947
:1024AC00A342256018BF5960636808BFC8F80010C4
:1024BC0062514B60304600F02FF804F10B00231DE5
:1024CC0020F00700C21A1CBF1B1AA350AFE76268AA
:1024DC00A3420CBFC8F800205A60EBE7234664689F
:1024EC00AEE73C467F68B6E71A465B68A342FBD171
:1024FC0000235360DEE70C233046336000F00CF809
:10250C0094E70560D6E700BF700200200148FFF792
:10251C0011BF00BF680200200148FFF70CBF00BFCD
:10252C00680200202DE9F0471F468E688246BE42A5
:10253C000C4690460B682DD8B1F90C2012F4906F14
:10254C0026D06569096905EB4505A3EB010905EB87
:10255C00D5757B1C4B446D109D4238BF1D465305F1
:10256C0027D52946FFF752FF064660B34A46216934
:10257C0000F0FAFAA38923F4906343F08003A3815B
:10258C0026614E4426603E466561A5EB0905A560B3
:10259C00BE4200D93E4632464146206800F0ACFAB5
:1025AC000020A3689B1BA360236833442360BDE811
:1025BC00F0872A4600F0E6FA06460028E0D150469D
:1025CC002169FFF7B9FE0C23CAF80030A3894FF03C
:1025DC00FF3043F04003A381E9E700002DE9F04F01
:1025EC0098468B8907461B060D4614469DB010D5A0
:1025FC000B6973B94021FFF709FF2860286130B9D6
:10260C000C233B604FF0FF301DB0BDE8F08F402332
:10261C006B610023099320238DF8293030234FF070
:10262C000109CDF80C80DFF898818DF82A3023460B
:10263C009A4613F8012B0AB1252AF9D1BAEB040BEF
:10264C000BD05B46224629463846FFF76BFF01301C
:10265C0000F0A780099A5A4409929AF80030002B8E
:10266C0000F09F8000234FF0FF32CDE905230AF1E3
:10267C00010A049307938DF853301A93544605229C
:10268C0014F8011B4E4800F061FA049AD8B9D00630
:10269C0044BF20238DF85330110744BF2B238DF8F2
:1026AC0053309AF800302A2B15D0544600204FF0A6
:1026BC000A0C079A214611F8013B303B092B4BD9E8
:1026CC00B0B1079214E0A0EB080309FA03F313432B
:1026DC00A2460493D2E7039B191D1B680391002BA0
:1026EC00BBBF5B4242F0020207930793B8BF049250
:1026FC0023782E2B0AD163782A2B32D1039B0234F8
:10270C001A1D1B68039243EAE3730593DFF8B4A028
:10271C0003225046217800F019FA38B14022049B6C
:10272C00A0EB0A00824013430134049314F8011BFC
:10273C00062225488DF8281000F008FA002836D01B
:10274C00224B1BBB039B073323F007030833039374
:10275C00099B334409936AE70C4601200CFB0232B7
:10276C00A8E700234FF00A0C1946013405932046C4
:10277C0010F8012B303A092A03D9002BC6D0059149
:10278C00C4E7044601230CFB0121F0E703AB0093E3
:10279C002A4638460E4B04A9AFF30080421C06466D
:1027AC00D6D1AB895B063FF52DAF09982CE703AB6F
:1027BC0000932A463846064B04A900F07DF8EDE755
:1027CC00562C00085C2C0008602C0008000000004F
:1027DC00312500082DE9F047164698468A680B69A2
:1027EC0007469342B8BF1346336091F843200C461A
:1027FC00DDF820900AB1013333602368990642BF9B
:10280C00336802333360256815F0060506D104F1F0
:10281C00190AE36832689B1AAB422BDC94F84330FC
:10282C002268003B18BF0123920630D4414638463B
:10283C0004F14302C847013023D02368226903F016
:10284C000603042B14BF002533684FF0000608BFA5
:10285C00E56804F11A0408BFED1A54F8123C08BFDD
:10286C0025EAE5759342C4BF9B1AED18B5421AD1FF
:10287C00002008E00123524641463846C847013043
:10288C0003D14FF0FF30BDE8F0870135C1E73020B0
:10289C00E11881F843005A1C94F845102244023385
:1028AC0082F84310C2E70123224641463846C84706
:1028BC000130E6D00136D9E72DE9FF470F7E91466E
:1028CC00782F80460C469A460C9E01F1430207D89D
:1028DC00622F0AD8002F00F0D380582F00F0BA8056
:1028EC0004F1420684F842703AE0A7F16303152B19
:1028FC00F6D801A151F823F05D29000871290008D0
:10290C00ED280008ED280008ED280008ED28000847
:10291C0071290008ED280008ED280008ED280008B2
:10292C00ED280008732A00089B2900082D2A0008AE
:10293C00ED280008ED280008952A0008ED2800086D
:10294C009B290008ED280008ED280008352A00080E
:10295C0033681A1D1B68326004F1420684F8423059
:10296C0001239EE033682068191D3160060601D5ED
:10297C001D6803E04506FBD5B3F90050002D03DAC2
:10298C002D236D4284F843300A23594811E0216805
:10299C003368080653F8045B02D4490648BFADB24D
:1029AC006F2F336014BF0A2308235148002184F889
:1029BC0043106668002EA8BF2168A660A4BF21F052
:1029CC00040121600DB9002E4BD01646B5FBF3F176
:1029DC0003FB1157C75D06F8017D2F46BB420D4620
:1029EC00F4D9082B0BD12368DF0708D5236961685C
:1029FC009942DEBF302306F8013C06F1FF36921BEC
:102A0C0022614B4621464046CDF800A003AAFFF7B1
:102A1C00E1FE01304AD14FF0FF3004B0BDE8F08741
:102A2C00236843F0200323607827324884F84570EC
:102A3C00236831681F0651F8045B02D45F0648BF57
:102A4C00ADB23160D90744BF43F0200323601DB100
:102A5C001023ABE72648E9E7236823F02003236023
:102A6C00F6E71646BDE733682568181D61693060C6
:102A7C002E061B6801D5196002E06806FBD519808B
:102A8C00002316462361BCE7336800211A1D32600F
:102A9C001E686268304600F059F808B1801B60600F
:102AAC0063682361002384F84330AAE73246494621
:102ABC0040462369D0470130ADD023689B0713D41F
:102ACC00E068039B9842B8BF1846A6E7012332463C
:102ADC0049464046D04701309DD00135E368039903
:102AEC005B1AAB42F2DCEBE7002504F11906F5E7C3
:102AFC00672C0008782C0008884210B501EB020402
:102B0C0002D98442234607D8431EA14208D011F8AB
:102B1C00012B03F8012FF8E7014602448A4200D149
:102B2C0010BD13F8014D02F8014DF7E738B500233D
:102B3C00054D044608462B60FDF7FAFC431C02D1F8
:102B4C002B6803B1236038BD64020020034610B526
:102B5C00C9B202449342184601D1002003E0047824
:102B6C0001338C42F6D110BD0A44914200F1FF337F
:102B7C0000D1704710B511F8014B914203F8014F89
:102B8C00F9D110BD2DE9F041804615460C4621B90E
:102B9C001146BDE8F041FFF739BC2AB9FFF7CCFB71
:102BAC0000242046BDE8F08100F01AF88542064664
:102BBC0002D8B5EB500FF4D829464046FFF726FC57
:102BCC0007460028ECD0B5422A46214628BF32469B
:102BDC00FFF7CAFF21464046FFF7AEFB3C46E0E755
:102BEC0051F8043C181F002BBCBF0B58C018704781
:102BFC00F8B500BFF8BC08BC9E467047F8B500BFDE
:082C0C00F8BC08BC9E467047AD
:102C1400656E766961646F20706F7220757361727E
:102C240074310D0A000000000000000000000000E4
:102C3400010203040607080900000000010203045E
:102C440002030405060708090A0B0C0D0E0F1010E9
:102C54000102232D302B2000686C4C00656667450B
:102C64004647003031323334353637383941424300
:102C740044454600303132333435363738396162B1
:082C84006364656600000000B6
:082C8C00C0D4FF7F010000002D
:042C94003101000802
:042C98000D01000822
:102C9C0000127A001000000001000000100000205B
:102CAC00000000002C01002094010020FC010020F9
:102CBC000000000000000000000000000000000008
:102CCC0000000000000000000000000000000000F8
:102CDC0000000000000000000000000000000000E8
:0C2CEC00000000000000000000000000DC
:040000050800078D5B
:00000001FF
